:020000040000FA
:100000000C94C9010C94FA010C94FA010C94FA01B5
:100010000C94FA010C94FA010C94FA010C94FA0174
:100020000C94FA010C94FA010C94FA010C94FA0164
:100030000C94FA010C94D3140C94FA010C94FA0168
:100040000C94FA010C941D160C94FA010C94FA010C
:100050000C94FA010C94FA010C94FA010C94891492
:100060000C94FA010C945D150C9433150C94FA0160
:100070000C94FA010C94FA010C94FA010C94FA0114
:100080000C94EF150C94FA010C94FA010C94FA01FB
:100090000C94FA010C94FA010C94FA010C944B168E
:1000A0000C94FA010C94FA010C94C1150C94FA0109
:1000B0000C94FA010C94FA010C94FA010C94931527
:1000C0000C94FA010C94FA010C94FA010C94FA01C4
:1000D0000C94FA010C94FA010C94FA010C94FA01B4
:1000E0000C94FA010C94AE020C9474020C94D40299
:1000F0000C9413090C9473020C9470040C94D802A1
:100100000C94B2090C9469090C94C0020C94A102DD
:100110000C9435090C94A5020C94B8020C94D302EB
:100120000C9417050C94A8020C94420B0C94CA0270
:100130000C94B4170C9484040C9412090C9492043B
:100140000C94CA040C94C6020C9434040C943C091C
:100150000C94B2020C94BC020C9422090C9461041D
:100160000C949D020C9493020C94CE020C94990270
:100170000C94680700407A10F35A00A0724E1809D8
:100180000010A5D4E80000E87648170000E40B54FE
:10019000020000CA9A3B000000E1F50500008096CD
:1001A0009800000040420F000000A08601000000FF
:1001B000102700000000E8030000000064000000B9
:1001C00000000A00000000000100000000002C7682
:1001D000D888DC674F0823DFC1DFAE59E1B1B7969D
:1001E000E5E3E453C63AE651997696E8E6C28426FA
:1001F000EB898C9B62ED407C6FFCEFBC9C9F40F2D6
:10020000BAA56FA5F490055A2AF75C936B6CF96751
:100210006DC11BFCE0E40D47FEF520E6B500D0ED16
:10022000902E0300943577050080841E080000207E
:100230004E0A000000C80C333333330F986E12831C
:100240001141EF8D2114893BE65516CFFEE6DB18F0
:10025000D1844B381BF77C1D901DA4BBE4242032B5
:1002600084725E228100C9F124ECA1E53D270200E1
:10027000002100240027002A002D00300033000157
:10028000010000040107010A0100002200250028E6
:10029000002B002E0031003400020100000501088F
:1002A000010B01000020002300260029002C002F54
:1002B0000032000001000003010601090100000AEC
:1002C0000B02090C0D0E08070304010000000000DA
:1002D000000000000000000000000000000000001E
:1002E00000000000000000000012111000000000DB
:1002F00000000000000000000000000000000000FE
:1003000000000005050505070508080808020202A7
:10031000020A0A08080404040401010101010101A0
:10032000010303030303030303040707070C0C0C77
:100330000C0C0C0C0C02020202060606060606064F
:10034000060B0B0B0B0B0B0B0B01021020200808EC
:100350001020401020408002010201080402010127
:100360000204081020408080402010080402018010
:100370000402018040201008040201080402010167
:100380000204081020408001020408102040800070
:10039000B41711241FBECFEFD1E2DEBFCDBF00E006
:1003A0000CBF13E0A0E0B2E0ECE1F1E500E00BBF30
:1003B00002C007900D92AE3CB107D9F726E0AEEC33
:1003C000B3E001C01D92A039B207E1F711E0C9EC1A
:1003D000D1E000E006C021970109802FFE010E94B4
:1003E0006E26C83CD10780E00807A9F70E94B41820
:1003F0000C948C280C940000CF92DF92EF92FF9225
:100400001F93CF93DF93EC018E818C3009F44DC0A4
:1004100038F48B30E1F060E070E080EC9FE73DC0A5
:1004200085518230C0F71A81612F70E0762F6627E0
:1004300066277F778B81682B90E080E00E94E7231E
:100440002DEC3CEC4CEC5DE30E94482448C06A81F2
:1004500070E090E080E00E94E7236B017C01CB819B
:10046000C7FF0AC0AC019B0160E070E080E89FEB31
:100470000E9469256B017C01CF706C2F70E090E0C9
:1004800080E00E94E9232DEC3CEC4CEC5DE30E9403
:100490004824A70196010E946A25DF91CF911F9100
:1004A000FF90EF90DF90CF9008951A81612F70E058
:1004B00090E080E00E94E7236B017C016B816F700C
:1004C00070E090E080E00E94E9232DEC3CEC4CECE5
:1004D0005DE30E944824A70196010E946A2517FF48
:1004E000DCCF9058DACF089508958150823108F01A
:1004F0005AC0E82FF0E08827EF57FD4F8F4F0C943C
:100500006E26A102A502930299029D02D302A802BF
:10051000AE02B202B802BC02C002C602CA02D302D4
:10052000CE02D402D802809180008F778093800021
:100530000895809180008F7DF9CF80918000877F22
:10054000F5CF84B58F7784BD089584B58F7DFBCFBB
:100550008091B0008F778093B00008958091B000B3
:100560008F7DF9CF809190008F77809390000895D0
:10057000809190008F7DF9CF80919000877FF5CF9B
:100580008091A0008F778093A00008958091A000B3
:100590008F7DF9CF8091A000877FF5CF80912001DA
:1005A0008F77809320010895809120018F7DF9CF6E
:1005B00080912001877FF5CFCF93DF93282F30E004
:1005C000F901E354FD4F8491F901E75BFC4FD491AD
:1005D000F901ED5FFC4FC491CC23A1F081110E9481
:1005E0007502EC2FF0E0EE0FFF1FED55FD4FA591CA
:1005F000B491EC91ED2381E090E009F480E0DF918B
:10060000CF91089580E090E0FACF1F93CF93DF93CE
:10061000282F30E0F901E354FD4F8491F901E75BA5
:10062000FC4FD491F901ED5FFC4FC491CC23A9F0AC
:10063000162F81110E947502EC2FF0E0EE0FFF1FC4
:10064000E757FD4FA591B4918FB7F894EC91111134
:1006500008C0D095DE23DC938FBFDF91CF911F912F
:100660000895DE2BF8CFCF93DF9390E0FC01E75B9A
:10067000FC4F24918D5F9C4FFC0184918823C9F02D
:1006800090E0880F991FFC01E159FD4FA591B491AD
:10069000FC01E757FD4FC591D49161110DC09FB783
:1006A000F8948C91209582238C9388812823288329
:1006B0009FBFDF91CF910895623051F49FB7F894B6
:1006C0003C91822F809583238C93E8812E2BEFCF52
:1006D0008FB7F894EC912E2B2C938FBFEACF8653D3
:1006E00020917B00982F987F277F922B90937B00FF
:1006F0008770806480937C0080917A00806480930E
:100700007A0080917A0086FDFCCF809178009091EC
:10071000790008953FB7F89480915604909157045A
:10072000A0915804B091590426B5A89B05C02F3F4D
:1007300019F00196A11DB11D3FBFBA2FA92F982F07
:100740008827BC01CD01620F711D811D911D42E002
:10075000660F771F881F991F4A95D1F708958F92CA
:100760009F92AF92BF92CF92DF92EF92FF924B0196
:100770005C010E948A036B017C010E948A036C1950
:100780007D098E099F09683E734081059105A8F394
:1007900021E0821A9108A108B10888EEC80E83E012
:1007A000D81EE11CF11C81149104A104B10429F7A5
:1007B000FF90EF90DF90CF90BF90AF909F908F9081
:1007C00008959091000289130DC0EEE6F2E0E491E5
:1007D0009FEF90930002E230E1F038F4EE2381F0D5
:1007E000E13089F060E00C940503E43049F110F148
:1007F000E530C1F7909173009D7F90937300F2CF25
:1008000010926E00EFCF90916F009D7F90936F00DC
:10081000E9CF909170009D7F9093700091E090934C
:10082000B0009091B100987F94609093B1001092C5
:10083000B300D8CF909171009D7F90937100D2CF7B
:10084000909172009D7F90937200CCCFDB01149643
:100850004D915C9115976D917C91DC01ED91FC912E
:100860000280F381E02D1994AF92BF92CF92DF9274
:10087000EF92FF920F931F93CF93DF936C017B0155
:100880008B01040F151FEB015E01AE18BF08C017E6
:10089000D10759F06991D601ED91FC910190F08159
:1008A000E02DC6011995892B79F7C501DF91CF910C
:1008B0001F910F91FF90EF90DF90CF90BF90AF907E
:1008C0000895FC01538D448D252F30E0842F90E056
:1008D000821B930B541710F0CF960895019708953B
:1008E000FC01918D828D981761F0A28DAE0FBF2F04
:1008F000B11D5D968C91928D9F5F9F73928F90E05A
:1009000008958FEF9FEF0895FC01918D828D9817C8
:1009100031F0828DE80FF11D858D90E008958FEF05
:100920009FEF0895FC01918D228D892F90E0805CCE
:100930009F4F821B91098F739927089584ED94E04E
:100940000E94920421E0892B09F420E0822F08956F
:10095000FC01A48DA80FB92FB11DA35ABF4F2C9134
:10096000848D90E001968F739927848FA689B7892B
:100970002C93A089B1898C91837080648C93938D22
:10098000848D981306C00288F389E02D80818F7DC5
:1009900080830895EF92FF920F931F93CF93DF937D
:1009A000EC0181E0888F9B8D8C8D98131AC0E889AB
:1009B000F989808185FF15C09FB7F894EE89FF897A
:1009C0006083E889F98980818370806480839FBF18
:1009D00081E090E0DF91CF911F910F91FF90EF9018
:1009E0000895F62E0B8D10E00F5F1F4F0F73112728
:1009F000E02E8C8D8E110CC00FB607FCFACFE88963
:100A0000F989808185FFF5CFCE010E94A804F1CF3E
:100A1000EB8DEC0FFD2FF11DE35AFF4FF0829FB7D6
:100A2000F8940B8FEA89FB8980818062CFCFCF93C6
:100A3000DF93EC01888D8823B9F0AA89BB89E88906
:100A4000F9898C9185FD03C0808186FD0DC00FB6AC
:100A500007FCF7CF8C9185FFF2CF808185FFEDCF2A
:100A6000CE010E94A804E9CFDF91CF91089580E0E4
:100A700090E0892B29F00E949E0481110E940000C1
:100A800080E090E0892B49F080E090E0892B29F00C
:100A90000E94000081110E94000080E090E0892BFC
:100AA00049F080E090E0892B29F00E94000081113C
:100AB0000E94000080E090E0892B49F080E090E007
:100AC000892B29F00E94000081110C9400000895E8
:100AD000AF92BF92CF92DF92EF92FF920F931F934C
:100AE000CF93DF936B017A01EC01C35DDB4F28816B
:100AF0003CE0389F8001399F100D1124A0900D0615
:100B0000B12C27FF1FC0FB011182108288818F5FEB
:100B1000888388819801280F311D87FD3A95F60159
:100B20002A153B051CF488818C30C4F180819181A9
:100B3000049680349C4908F473C0F6018081918149
:100B4000049670C088819801280F311D87FD3A9561
:100B50002A153B05DCF68881A801480F511D87FD49
:100B60005A95FA01EE0FFF1FE40FF51FE358FA4FF5
:100B7000808186FFCBCF8881F801E80FF11D87FDCA
:100B8000FA95CF01EE0FFF1FE80FF91FE358FA4F58
:100B9000808160E08F730E940503B8CF80819181CE
:100BA0002881A801420F511D27FD5A959A01FA018B
:100BB000EE0FFF1FE20FF31FE358FA4F218132813E
:100BC000820F931FF7019183808388819801280FFA
:100BD000311D87FD3A95F901EE0FFF1FE20FF31F5C
:100BE000E358FA4F808186FF22C08881080F111DCB
:100BF00087FD1A95F801EE0FFF1FE00FF11FE35874
:100C0000FA4F808161E08F73DF91CF911F910F9137
:100C1000FF90EF90DF90CF90BF90AF900C940503C2
:100C200080E49CE9F701918380838FEF8883DF91D3
:100C3000CF911F910F91FF90EF90DF90CF90BF90D9
:100C4000AF900895CF92DF92EF92FF92CF93DF9310
:100C5000DC011796CC911797D0E06111DC2F189624
:100C60002C91189730E0220F331F2D553D4F50E047
:100C700040E0F90185919491FC01F080BA0190E087
:100C800080E0EF2DEC23ED1310C04F5F5F4F1D96FA
:100C9000CD90DD90ED90FC9050976C157D058E0504
:100CA0009F0538F36FEF7FEFCB01DF91CF91FF907E
:100CB000EF90DF90CF9008958F929F92AF92BF9266
:100CC000CF92DF92EF92FF920F931F93CF93DF9318
:100CD000CDB7DEB7C054D1400FB6F894DEBF0FBE1B
:100CE000CDBF2FB7F89440915E0450915F0460919E
:100CF0006004709161042FBFFC010185128523857A
:100D000034856A017B01C01AD10AE20AF30A97010D
:100D10008601003D174021053105B0F4FC018189B1
:100D2000C05CDE4F0FB6F894DEBF0FBECDBFDF91C3
:100D3000CF911F910F91FF90EF90DF90CF90BF90D8
:100D4000AF909F908F9008958C01FC01418752874E
:100D5000638774871482138212821182108262E088
:100D600085810E94330361E070E080E090E00E94A2
:100D7000AF0361E0F80185810E94330360E0F80170
:100D800085810E940503F80186818551823028F50E
:100D90008BE291E10197F1F762E0F80185810E9411
:100DA0003303F801828990E08230910538F0880F92
:100DB000991F880F991F05970197F1F7F89460E044
:100DC000C8010E9422066F3F7F4F8F4F9F4F61F4F3
:100DD000F801118A789480E0A3CF64E170E080E0AC
:100DE00090E00E94AF03D8CF61E0C8010E942206C4
:100DF0006F3F7F4F8F4F9F4F59F3CE0101967C017C
:100E00005E019FEBA91A9EEFB90A670160E0C80175
:100E10000E942206F601608371838283938361E0DE
:100E2000C8010E942206F601648375838683978336
:100E3000F8E0CF0ED11CCA14DB0441F7789430E0FF
:100E400020E0F70180809180A280B38044815581A9
:100E500066817781FFEF8F169F06AF06BF0631F0E0
:100E60004F3F8FEF58076807780719F4F801118A88
:100E7000B2CFF90183E0F595E7958A95E1F7E00FA8
:100E8000F11F8081880F84169506A606B706F0F03C
:100E900080832F5F3F4FF8E0EF0EF11C28323105C1
:100EA00081F6F801448120818181280F3327331F87
:100EB0008281280F311D8381820F932F911D9927E5
:100EC0004817190699F681E0818B2ACF8160E0CF1F
:100ED000089520910A04260F3327331F213231054C
:100EE000ECF42091AA04FC0190E080E0243069F049
:100EF00082E00895A0910A042191AC0146515C4F13
:100F0000A40FB52FB11D2C930196861798F38091ED
:100F10000A04680F60930A0480E0089581E0089550
:100F20001092AA0481E08093A9041092840461E0E5
:100F300084E10E94050361E085E10E940503E9EB7D
:100F4000F0E080818E7F808380818D7F808388E444
:100F50008093B80085E48093BC00089510926304E8
:100F6000109262041092B1041092D3040E94900770
:100F700083E792E090935D0480935C0484E792E0C1
:100F800090935B0480935A040895CF93DF9391E08C
:100F90009093E9038823B9F0C091B800D091BA00CA
:100FA0008091BC008A7B8093BC0060E084E10E9459
:100FB000050360E085E10E9405030E949007D0933D
:100FC000BA00C093B800DF91CF9108958F929F929D
:100FD000AF92BF92CF92DF92EF92FF920F931F9347
:100FE000CF93DF93D091D304D13208F0D7C0182F1C
:100FF000C091D2040E948A036B017C018091AA04F3
:1010000081116BC082E08093AA041093A9048FEF32
:101010008093A8041092A704D093A604A2EBB4E096
:10102000E6E8F4E080E0D81391C010928504809146
:101030008504CC0FC82BC093850480918404813033
:1010400009F088C0109284040E948A036B017C011D
:10105000809185048093BB008091AC049091AD0495
:10106000A091AE04B091AF04892B8A2B8B2BA1F0F9
:101070000E948A030091AC041091AD042091AE044B
:101080003091AF046C197D098E099F090617170767
:101090002807390708F442C08091BC0083FDD8CFEF
:1010A00085EC8093BC000E948A036B017C018091D7
:1010B000AA04823009F450C08091A8048F3F09F43B
:1010C0006FC08091A804803209F46CC08091A8049C
:1010D000803309F469C084E026C08091AC0490910B
:1010E000AD04A091AE04B091AF04892B8A2B8B2B59
:1010F00009F484CF0E948A038090AC049090AD04E0
:10110000A090AE04B090AF046C197D098E099F09C0
:1011100086169706A806B90608F070CF8091AB0432
:101120000E94C50785E01092B1041092D30410927A
:10113000B004DF91CF911F910F91FF90EF90DF905E
:10114000CF90BF90AF909F908F9008959D91919375
:101150008F5F69CF85EEA5CF8091AC049091AD04EF
:10116000A091AE04B091AF04892B8A2B8B2B09F48C
:101170009ECF0E948A030091AC041091AD0420918F
:10118000AE043091AF046C197D098E099F090617D2
:1011900017072807390708F08ACFC0CF81E0C3CFEF
:1011A00080E0C1CF82E0BFCF83E0BDCFDC011196EC
:1011B0008D919C91DC01ED91FC910280F381E02DF9
:1011C00041E050E01995019729F481E00E94E6077B
:1011D00091E0811190E0892F0895CF93DF93EC0186
:1011E0008B818823A1F0888191E09093B004809353
:1011F000D2041092B1041092D30481E00E94E60759
:1012000091E0811190E0892FDF91CF9108950E94A4
:10121000AE0781E08B83CE010E94ED08982F8111EB
:10122000E2CFF1CF0895E091630480916204E81762
:1012300030F4F0E0EC59FB4F808190E008958FEF9F
:101240009FEF089590916304809162042FEF3FEF28
:10125000981748F4E92FF0E0EC59FB4F208130E07B
:101260009F5F90936304C9010895809162049091F7
:101270006304891B990B0895CF92DF92EF92FF923E
:101280000F931F93CF93DF937C01CB018A012091B1
:10129000B004222389F0EB016B01C40ED51ECC15DE
:1012A000DD0569F06991D701ED91FC910190F08124
:1012B000E02DC7011995F3CF642F0E946907C8017B
:1012C000DF91CF911F910F91FF90EF90DF90CF9022
:1012D0000895CF93DF931F92CDB7DEB76983209136
:1012E000B0042223F9F02091D304203258F021E0F9
:1012F00030E0FC013383228390E080E00F90DF91A7
:10130000CF9108958091B104E82FF0E0EE54FB4FA7
:10131000998190838F5F8093B1048093D30481E09F
:1013200090E0ECCF61E0CE0101960E946907F7CF13
:10133000FC01248131E03093B0042093D204109258
:10134000B1041092D3048385682B81E795E00E9455
:10135000690981E00C94E60728E0FC01238760E03E
:101360000C94980990E080E008952F923F924F925C
:101370005F926F927F928F929F92AF92BF92CF9225
:10138000DF92EF92FF920F931F93CF93DF93DC01D5
:101390001496ED91FC911597EF2B09F422C1690188
:1013A0002A01EC01888191E09093B0048093D204EB
:1013B0001092B1041092D304CD010E94D608782E69
:1013C000882309F40EC1F12CE12C332433948C8151
:1013D0009D8186010E191F098017910708F48C0161
:1013E00028800E948A034B015C018091AA0481112C
:1013F00073C0602EB0E2B01710F480E2682E309215
:10140000AA0421E0C601801B910BE816F90608F436
:1014100020E02093A904EFEFE093A8041092A70422
:101420008FEF860D8093A604309285048091850409
:10143000220C282A2092850480918404813009F0AE
:1014400090C0109284040E948A034B015C01809139
:1014500085048093BB008091AC049091AD04A09171
:10146000AE04B091AF04892B8A2B8B2BA1F00E9484
:101470008A032091AC043091AD044091AE045091A8
:10148000AF04681979098A099B09261737074807A5
:10149000590708F442C08091BC0083FDD8CFF5EC19
:1014A000F093BC000E948A034B015C018091AA0466
:1014B000813009F45AC08091A704861510F4609019
:1014C000A704A6E8B4E0E4E6F4E080E0861551F174
:1014D0009D9191938F5FFACF8091AC049091AD0470
:1014E000A091AE04B091AF04892B8A2B8B2B09F409
:1014F0007CCF0E948A032091AC043091AD044091CE
:10150000AE045091AF04681979098A099B0926171E
:1015100037074807590708F068CF8091AB040E944D
:10152000C507612C10926304609262046016110674
:1015300009F057C042018E0C9F1C5401C501881947
:1015400099098017910798F589819A81DC01ED91BD
:10155000FC910284F385E02D1995F50181935F01DB
:10156000EDCF85EE8093BC009DCF8091AC0490912F
:10157000AD04A091AE04B091AF04892B8A2B8B2BC4
:1015800009F494CF0E948A032091AC043091AD04F9
:101590004091AE045091AF04681979098A099B09FA
:1015A000261737074807590708F080CFB6CFE00E57
:1015B000F11EEC14FD0408F40ACF872DDF91CF91C2
:1015C0001F910F91FF90EF90DF90CF90BF90AF9061
:1015D0009F908F907F906F905F904F903F902F9053
:1015E0000895712CEACFCF93DF9300D0CDB7DEB74B
:1015F0008B8322E030E0AE014F5F5F4FBE016D5F35
:101600007F4F80914D0690914E060E94B5098981C9
:101610009A819827892798270F900F900F90DF9134
:10162000CF9108950F931F93CF938C01C62F0E94E3
:1016300098096C2F6460C8010E9498096C2F6B7F19
:10164000C8010E94980983EC90E00197F1F7CF91CF
:101650001F910F9108950F931F93CF93DF938C01E8
:10166000D62FC42F607F642B0E94120B80E1D89F7D
:10167000B00111246C2BC801DF91CF911F910F9104
:101680000C94120B41E00E942B0B81E090E0089536
:101690000F931F93CF93DF93EC010E94AE071D823F
:1016A0008A85823010F098E09D83888762E370E03D
:1016B00080E090E00E94AF036B85CE010E94980904
:1016C00068EE73E080E090E00E94AF0360E3CE013B
:1016D0000E94120B0BE416E4C8010197F1F760E3D6
:1016E000CE010E94120BC8010197F1F760E3CE0111
:1016F0000E94120B83E592E00197F1F760E2CE01C0
:101700000E94120B6D81606240E0CE010E942B0BA3
:1017100084E08E8340E06CE0CE010E942B0B40E021
:1017200061E0CE010E942B0B0BE31FE1C801019782
:10173000F1F782E08F8340E066E0CE010E942B0B40
:1017400040E062E0CE010E942B0BC8010197F1F747
:10175000DF91CF911F910F910895FC01019000201E
:10176000E9F73197AF01481B590BBC0184ED94E0B8
:101770000C943404CF93DF93EC0188819981009716
:1017800011F00E941227198218821D821C821B826E
:101790001A82DF91CF910895FC0180819181009799
:1017A00011F00C94122708950F931F93CF93DF939A
:1017B000EC0188819981009759F02A813B81261795
:1017C000370730F081E0DF91CF911F910F9108959D
:1017D0008B016F5F7F4F0E949B27009759F0998381
:1017E00088831B830A832C813D81232B59F7FC01BD
:1017F0001082E8CF80E0E7CFEF92FF920F931F9324
:10180000CF93DF936115710541F480E0DF91CF91B3
:101810001F910F91FF90EF90089541155105B1F080
:101820007B01EC010C811D81040F151FB8010E9482
:10183000D40B882351F3288139818C819D81B70194
:10184000820F931F0E9485281D830C8381E0DECFC9
:10185000CF93DF93EC01FB0101900020E9F7319772
:10186000AF01461B570B0E94FC0B811103C0CE0138
:101870000E94BA0BCE01DF91CF910895CF93DF93F1
:10188000EC01FB0144815581608171810E94FC0B58
:10189000811103C0CE010E94BA0BCE01DF91CF911E
:1018A0000895EF92FF920F931F93CF93DF93EC0174
:1018B0007B018A01BA010E94D40B81110BC0CE01B9
:1018C0000E94BA0BCE01DF91CF911F910F91FF9033
:1018D000EF9008951D830C83B701888199810E9440
:1018E0008528F0CFFB0101900020E9F73197AF0187
:1018F000461B570B0C94510C0F931F93CF93DF9300
:10190000CDB7DEB762970FB6F894DEBF0FBECDBF7E
:101910008C01CB01F8011182108213821282158290
:1019200014824AE0BE016F5F7F4F0E943021BE01EA
:101930006F5F7F4FC8010E94720C62960FB6F894D9
:10194000DEBF0FBECDBFDF91CF911F910F910895E4
:10195000FB01DC0111961C921E9213961C921E92A2
:10196000129715961C921E9214978617970749F0A6
:10197000608171816115710521F0448155810C945C
:10198000510C0895FC01118210821382128215827B
:101990001482FB0101900020E9F73197AF01461B4B
:1019A000570B0C94510CCF93DF93EC01611571052B
:1019B00049F465E872E0CE010E94C20CCE01DF91CD
:1019C000CF9108956130710519F467E572E0F3CFA6
:1019D0006DE772E0F0CFBF92CF92DF92EF92FF926D
:1019E0000F931F93CF93DF9300D000D01F921F92CD
:1019F000CDB7DEB77C01D62E8A01F80184819581AE
:101A0000449740F441E050E068EC73E0C8010E9464
:101A1000FC0BF3CF6D2D88E0EFE1F2E0DE011196D3
:101A200001900D928A95E1F7F70180858D1510F4EC
:101A30006FEF680FE62FF0E0EE0FFF1F81E090E000
:101A40008C0F9D1FE80FF91F6081606840E0C7019F
:101A50000E942B0B6CEC73E0CE0101960E94C20C2D
:101A6000F801C480D580C114D104E9F0F4E1CF16A7
:101A7000D10418F084E1C82ED12CF8016081718165
:101A8000FB01EC0DFD1DB0801082CE0101966115A9
:101A9000710519F10E94720CF80180819181C80EC4
:101AA000D91EF601B082BE016F5F7F4FC7010E9451
:101AB0002604CE0101960E94CC0B28960FB6F8940E
:101AC000DEBF0FBECDBFDF91CF911F910F91FF9071
:101AD000EF90DF90CF90BF9008950E94BA0BDCCFBB
:101AE000CF93DF93EC016115710549F469E572E06C
:101AF000CE010E94C20CCE01DF91CF9108956130DA
:101B0000710519F460E672E0F3CF68E672E0F0CF99
:101B1000EF92FF920F931F93CF93DF93CDB7DEB772
:101B2000E3970FB6F894DEBF0FBECDBF7C01CB01AB
:101B3000BA01F70111821082138212821582148277
:101B400042E0420F8E010F5F1F4F0E94122100974B
:101B500089F0BC01C7010E94720CE3960FB6F8949D
:101B6000DEBF0FBECDBFDF91CF911F910F91FF90D0
:101B7000EF900895C7010E94BA0BEFCF85ED8093D7
:101B8000BC008091AC049091AD04A091AE04B091E2
:101B9000AF040796A11DB11D23E0B695A7959795B3
:101BA00087952A95D1F72091BC0024FD03C010929F
:101BB000AA0408954091AC045091AD046091AE0424
:101BC0007091AF04452B462B472B69F30097A10575
:101BD000B10541F02AE22A95F1F700C00197A10969
:101BE000B109E1CF8091AB040C94C507CF92DF928D
:101BF000EF92FF920F931F93CF93DF93CDB7DEB792
:101C0000EA970FB6F894DEBF0FBECDBF80915104A6
:101C1000909152040091530410915404081719072D
:101C20000CF48C0180914F0490915004081719070F
:101C30000CF48C0180914D0490914E040817190703
:101C40000CF48C011093E8030093E70361E00115A5
:101C5000110509F060E080E30E94050361E00130B6
:101C6000110509F060E081E30E94050361E00230A4
:101C7000110509F060E082E30E94050302301105BE
:101C800009F0F3C5809100028F3209F449C48F3FF7
:101C900009F46FC461E972E0CE0101960E94C20CA2
:101CA000AE014F5F5F4F70E060E08EE396E00E9410
:101CB000EB0CCE0101960E94CC0B60915104709107
:101CC0005204CE0189960E94D30C60915304709106
:101CD0005404CE0183960E94D30C61EA72E0CE01D7
:101CE00001960E94C20CBE016D5D7F4FCE01019630
:101CF0000E943E0C66EA72E00E94280CBE01675DFD
:101D00007F4F0E943E0CBC01CE018F960E94A80C12
:101D1000AE01415D5F4F61E070E08EE396E00E94AE
:101D2000EB0CCE018F960E94CC0BCE0101960E9447
:101D3000CC0BCE0183960E94CC0BCE0189960E94DB
:101D4000CC0B60914D0470914E04CE0189960E9497
:101D5000D30C60914F0470915004CE0183960E9481
:101D6000D30C6DEA72E0CE0101960E94C20CBE0156
:101D70006D5D7F4FCE0101960E943E0C63EB72E0D9
:101D80000E94280CBE01675D7F4F0E943E0CBC0183
:101D9000CE018F960E94A80CAE01415D5F4F62E0BC
:101DA00070E08EE396E00E94EB0CCE018F960E94CD
:101DB000CC0BCE0101960E94CC0BCE0183960E94E3
:101DC000CC0BCE0189960E94CC0B6091E7037091F9
:101DD000E803CE0183960E94700D6BEB72E0CE019A
:101DE00001960E94C20CBE016D5D7F4FCE0101962F
:101DF0000E943E0CBC01CE0189960E94A80CAE0147
:101E0000475D5F4F63E070E08EE396E00E94EB0C6D
:101E1000CE0189960E94CC0BCE0101960E94CC0B7C
:101E2000CE0183960E94CC0B64EC72E0CE01019649
:101E30000E94C20CAE014F5F5F4F70E060E082E332
:101E400096E00E94EB0CCE0101960E94CC0B4091D3
:101E5000010250910202609103027091040220E09D
:101E6000CE018F960E94880D409105025091060286
:101E7000609107027091080220E0CE0189960E94CD
:101E8000880D4091090250910A0260910B027091F5
:101E90000C0221E0CE0183960E94880D6DEF72E066
:101EA000CE0101960E94C20CBE016D5D7F4FCE0136
:101EB00001960E943E0C63ED72E00E94280CBE0168
:101EC000675D7F4F0E943E0C67ED72E00E94280C18
:101ED000BE01615D7F4F0E943E0CBC01CE01C596E4
:101EE0000E94A80CAE014B5C5F4F61E070E082E3A2
:101EF00096E00E94EB0CCE01C5960E94CC0BCE0161
:101F000001960E94CC0BCE0183960E94CC0BCE0191
:101F100089960E94CC0BCE018F960E94CC0B6091CB
:101F2000380470913904CE0189960E947C0C60912E
:101F30003A0470913B04CE0183960E947C0C6BEDB9
:101F400072E0CE0101960E94C20CBE016D5D7F4F12
:101F5000CE0101960E943E0C60EE72E00E94280CB9
:101F6000BE01675D7F4F0E943E0CBC01CE018F9683
:101F70000E94A80CAE01415D5F4F62E070E082E319
:101F800096E00E94EB0CCE018F960E94CC0BCE0106
:101F900001960E94CC0BCE0183960E94CC0BCE0101
:101FA00089960E94CC0B6091530470915404CE0129
:101FB00083960E94700D6BEB72E0CE0101960E9439
:101FC000C20CBE016D5D7F4FCE0101960E943E0C9A
:101FD000BC01CE0189960E94A80CAE01475D5F4FFF
:101FE00063E070E082E396E00E94EB0CCE018996FC
:101FF0000E94CC0BCE0101960E94CC0BCE018396A1
:102000000E94CC0B66EE72E0CE0101960E94C20CDB
:10201000AE014F5F5F4F70E060E086E296E00E94A5
:10202000EB0CCE0101960E94CC0B40910D02509119
:102030000E0260910F027091100221E0CE0189968C
:102040000E94880D6091430470914404CE018396F0
:102050000E947C0C66EF72E0CE0101960E94C20CD9
:10206000BE016D5D7F4FCE0101960E943E0C6CEF6C
:1020700072E00E94280CBE01675D7F4F0E943E0CFB
:10208000BC01CE018F960E94A80CAE01415D5F4F4E
:1020900061E070E086E296E00E94EB0CCE018F9644
:1020A0000E94CC0BCE0101960E94CC0BCE018396F0
:1020B0000E94CC0BCE0189960E94CC0B60913F040C
:1020C00070914004CE0189960E947C0C609141047D
:1020D00070914204CE0183960E947C0C60E073E014
:1020E000CE0101960E94C20CBE016D5D7F4FCE01F4
:1020F00001960E943E0C67E073E00E94280CBE012E
:10210000675D7F4F0E943E0CBC01CE018F960E94FE
:10211000A80CAE01415D5F4F62E070E086E296E0A0
:102120000E94EB0CCE018F960E94CC0BCE01019643
:102130000E94CC0BCE0183960E94CC0BCE018996D7
:102140000E94CC0B6091510470915204CE0189968B
:102150000E94700D60913D0470913E04CE01839603
:102160000E947C0C6CE073E0CE0101960E94C20CD0
:10217000BE016D5D7F4FCE0101960E943E0C68EC62
:1021800073E00E94280CBE01675D7F4F0E943E0CE9
:10219000BC01CE018F960E94A80CAE01415D5F4F3D
:1021A00063E070E086E296E00E94EB0CCE018F9631
:1021B0000E94CC0BCE0101960E94CC0BCE018396DF
:1021C0000E94CC0BCE0189960E94CC0B61E173E09A
:1021D000CE0101960E94C20CAE014F5F5F4F70E0CE
:1021E00060E08AE196E00E94EB0CCE0101960E942D
:1021F000CC0B8091470403E712E0882311F00FE62F
:1022000012E08091480453E7E52E52E0F52E882332
:1022100021F04FE6E42E42E0F42E6BE173E0CE01B4
:1022200001960E94C20CBE016F5F7F4FCE01839664
:102230000E94A80CB701CE0183960E94280C61E28F
:1022400073E00E94280CB8010E94280CBC01CE014A
:1022500089960E94A80CAE01475D5F4F61E070E077
:102260008AE196E00E94EB0CCE0189960E94CC0B8D
:10227000CE0183960E94CC0BCE0101960E94CC0B1E
:102280006091450470914604CE0183960E947C0CB7
:1022900067E273E0CE0101960E94C20CBE016D5D43
:1022A0007F4FCE0101960E943E0CBC01CE01899663
:1022B0000E94A80CAE01475D5F4F62E070E08AE1CA
:1022C00096E00E94EB0CCE0189960E94CC0BCE01C9
:1022D00001960E94CC0BCE0183960E94CC0B60919C
:1022E0004F0470915004CE0183960E94700D6BEBE9
:1022F00072E0CE0101960E94C20CBE016D5D7F4F5F
:10230000CE0101960E943E0CBC01CE0189960E942E
:10231000A80CAE01475D5F4F63E070E08AE196E094
:102320000E94EB0CCE0189960E94CC0BCE01019647
:102330000E94CC0BCE0183960E94CC0B6DE273E021
:10234000CE0101960E94C20CAE014F5F5F4F70E05C
:1023500060E08EE096E00E94EB0CCE0101960E94B8
:10236000CC0B60911502709116028091170290912A
:1023700018021CA21BA21EA21DA218A61FA22AE0C0
:10238000AE014F5F5F4F0E943B21BE016F5F7F4FE9
:10239000CE0183960E94720C6FE373E0CE0101962A
:1023A0000E94C20CBE016D5D7F4FCE0101960E945E
:1023B0003E0C66E473E00E94280CBC01CE018996B5
:1023C0000E94A80CAE01475D5F4F61E070E08EE0B7
:1023D00096E00E94EB0CCE0189960E94CC0BCE01B8
:1023E00001960E94CC0BCE0183960E94CC0B80916B
:1023F00049040FE712E0882311F006E712E069E4D0
:1024000073E0CE0101960E94C20CBE016F5F7F4F48
:10241000CE0183960E94A80CB801CE0183960E943B
:10242000280CBC01CE0189960E94A80CAE01475D24
:102430005F4F62E070E08EE096E00E94EB0CCE0110
:1024400089960E94CC0BCE0183960E94CC0BCE01C4
:1024500001960E94CC0B80914A0407E812E0882381
:1024600011F004E812E080914B043DE8E32E32E0E5
:10247000F32E882321F02BE8E22E22E0F22E809129
:102480004C049DE8C92E92E0D92E882321F08FE8D4
:10249000C82E82E0D82E6DEF72E0CE0101960E9428
:1024A000C20CBE016F5F7F4FCE0183960E94A80CC5
:1024B000B601CE0183960E94280CB7010E94280C19
:1024C00062E573E00E94280CB8010E94280CBC0150
:1024D000CE0189960E94A80CAE01475D5F4F63E074
:1024E00070E08EE096E00E94EB0CCE0189960E948F
:1024F000CC0BCE0183960E94CC0BCE0101960E949C
:10250000CC0BEA960FB6F894DEBF0FBECDBFDF91BD
:10251000CF911F910F91FF90EF90DF90CF90089592
:10252000EEE6F2E0149117FDB5CB61E08FE20E9478
:102530003303112309F4F1C0123009F005C1809171
:10254000B100887F83608093B10089EF8093B300EE
:102550008FEF9FEFDC018093340490933504A093B8
:102560003604B093370480917000826080937000CD
:1025700091CB8FE280930002EEE6F2E01491812F7E
:102580001F3F09F487CB123009F468C060F41123AF
:1025900079F1113009F444C087FD7CCB61E08FE212
:1025A0000E943303C9CF143009F499C008F478C0ED
:1025B000153091F710922001109221018091210194
:1025C00088608093210180912101816080932101A5
:1025D000E2E3F3E0E491F0E0EE0FFF1FE757FD4F79
:1025E00085919491E8E7F3E0E491E093CE039DCFE9
:1025F00014BC15BC84B5826084BD85B5816085BD81
:10260000E2E3F3E0E491F0E0EE0FFF1FE757FD4F48
:1026100085919491E8E7F3E0E491E093D20385CFCC
:1026200010928000109281008091810088608093D8
:10263000810080918100816080938100E2E3F3E07A
:10264000E491F0E0EE0FFF1FE757FD4F8591949165
:10265000E8E7F3E0E491E093D10367CF1092B00094
:102660001092B1008091B00082608093B0008091A0
:10267000B10081608093B100E2E3F3E0E491F0E027
:10268000EE0FFF1FE757FD4F859194919093320411
:1026900080933104E8E7F3E0E491E093330445CF1D
:1026A0001092900010929100809191008860809328
:1026B000910080919100816080939100E2E3F3E0CA
:1026C000E491F0E0EE0FFF1FE757FD4F85919491E5
:1026D000E8E7F3E0E491E093D00313E026CF109213
:1026E000A0001092A1008091A10088608093A100B9
:1026F0008091A10081608093A100E2E3F3E0E49186
:10270000F0E0EE0FFF1FE757FD4F85919491E8E74A
:10271000F3E0E491E093CF0308CF85B5887F836031
:1027200085BD8CE787BD8FEF9FEFDC018093E303CE
:102730009093E403A093E503B093E60380916E00C9
:10274000826080936E00A6CA1130E9F48091810006
:10275000887F8160809381008FE39FE1909389005F
:10276000809388008FEF9FEFDC018093DF039093CD
:10277000E003A093E103B093E20380916F008260D5
:1027800080936F0087CA1330E9F480919100887FAD
:102790008160809391008FE39FE1909399008093F3
:1027A00098008FEF9FEFDC018093DB039093DC03B5
:1027B000A093DD03B093DE0380917100826080936B
:1027C000710068CA1430E9F48091A100887F8160AB
:1027D0008093A1008FE39FE19093A9008093A800CC
:1027E0008FEF9FEFDC018093D7039093D803A093E2
:1027F000D903B093DA0380917200826080937200F3
:1028000049CA1530E9F480912101887F8160809365
:1028100021018FE39FE190932901809328018FEF9D
:102820009FEFDC018093D3039093D403A093D5034F
:10283000B093D603809173008260809373002ACA9C
:10284000123089F034F4112361F0113009F022CAFA
:1028500083CF143009F4BECF0CF49DCF1530C9F2EC
:1028600019CA8FE35FCF8FE371CE8FE20E94E1033D
:1028700011CA0F931F93CF93DF93182FEB0160E0E2
:102880000E94050383E090E00197F1F761E0812F5A
:102890000E94050383E290E00197F1F760E0812F49
:1028A0000E940503FE01E75BFC4F6491FE01ED5FB2
:1028B000FC4FE491F0E0EE0FFF1FED55FD4F8591C9
:1028C000949100E315E720E030E0462F0E946F1757
:1028D0006115710581059105B9F06F5F7F4F8F4FCD
:1028E0009F4F9F70611571058105910569F02AE37D
:1028F00030E040E050E00E940625CA01B901DF91B6
:10290000CF911F910F91089520E931E040E050E010
:10291000F4CF1F920F920FB60F9211242F933F9373
:102920008F939F93AF93BF9380915E0490915F04C8
:10293000A0916004B09161043091550423E0230F0D
:102940002D3758F50196A11DB11D20935504809394
:102950005E0490935F04A0936004B093610480913F
:10296000560490915704A0915804B09159040196CF
:10297000A11DB11D8093560490935704A093580451
:10298000B0935904BF91AF919F918F913F912F9137
:102990000F900FBE0F901F90189526E8230F0296F8
:1029A000A11DB11DD2CF1F920F920FB60F9211240D
:1029B0000BB60F922F933F934F935F936F937F9339
:1029C0008F939F93AF93BF93EF93FF9380913404C2
:1029D00090913504A0913604B0913704892B8A2B4D
:1029E0008B2BE1F190913304E0913104F0913204AA
:1029F0008081892780838091340490913504A0914F
:102A00003604B0913704181619061A061B069CF4F2
:102A10008091340490913504A0913604B09137042C
:102A20000197A109B1098093340490933504A093D0
:102A30003604B0933704FF91EF91BF91AF919F910E
:102A40008F917F916F915F914F913F912F910F9057
:102A50000BBE0F900FBE0F901F9018958091000233
:102A60000E94E103E8CF1F920F920FB60F9211243C
:102A70000BB60F922F933F934F935F936F937F9378
:102A80008F939F93AF93BF93EF93FF9384ED94E065
:102A90000E94A804FF91EF91BF91AF919F918F91F8
:102AA0007F916F915F914F913F912F910F900BBE4E
:102AB0000F900FBE0F901F9018951F920F920FB698
:102AC0000F9211240BB60F922F938F939F93EF9336
:102AD000FF93E091E404F091E5048081E091EA0441
:102AE000F091EB0482FD1DC090818091ED048F5F19
:102AF0008F732091EE04821741F0E091ED04F0E035
:102B0000EC52FB4F958F8093ED04FF91EF919F91D5
:102B10008F912F910F900BBE0F900FBE0F901F90B3
:102B200018958081F2CF1F920F920FB60F92112449
:102B30000BB60F922F933F934F935F936F937F93B7
:102B40008F939F93AF93BF93EF93FF9348E251E02E
:102B500064E271E090E080E00E946805FF91EF91EF
:102B6000BF91AF919F918F917F916F915F914F91A5
:102B70003F912F910F900BBE0F900FBE0F901F90A3
:102B800018951F920F920FB60F9211240BB60F9249
:102B90002F933F934F935F936F937F938F939F9365
:102BA000AF93BF93EF93FF9348EA50E064EA70E07D
:102BB00083E090E00E946805FF91EF91BF91AF9193
:102BC0009F918F917F916F915F914F913F912F9145
:102BD0000F900BBE0F900FBE0F901F9018951F9275
:102BE0000F920FB60F9211240BB60F922F933F93B3
:102BF0004F935F936F937F938F939F93AF93BF9305
:102C0000EF93FF9348E950E064E970E082E090E0E0
:102C10000E946805FF91EF91BF91AF919F918F91B5
:102C20007F916F915F914F913F912F910F900BBECC
:102C30000F900FBE0F901F9018951F920F920FB616
:102C40000F9211240BB60F922F933F934F935F93E4
:102C50006F937F938F939F93AF93BF93EF93FF9364
:102C600048E850E064E870E081E090E00E94680588
:102C7000FF91EF91BF91AF919F918F917F916F9154
:102C80005F914F913F912F910F900BBE0F900FBE10
:102C90000F901F9018951F920F920FB60F9211244C
:102CA0000BB60F922F933F934F935F936F937F9346
:102CB0008F939F93AF93BF93EF93FF938091B9004E
:102CC000887F803609F44DC008F040C0883209F48E
:102CD000A9C028F5803109F49DC0C8F4882309F4FF
:102CE000FBC0883009F496C0FF91EF91BF91AF917E
:102CF0009F918F917F916F915F914F913F912F9114
:102D00000F900BBE0F900FBE0F901F90189588313B
:102D100009F488C0803241F78093A80414C080343D
:102D200009F49DC040F48033B9F38833E9F6809309
:102D3000A80485ECB0C0803509F485C0883509F455
:102D400096C0883489F60E94BE0DCECF883909F42A
:102D50008CC038F5883729F050F4883611F0803768
:102D600019F683E08093AA0410922C0457C0883887
:102D700009F47BC0803919F0803809F0B5CF809113
:102D80002C04803208F071C0E0912C0481E08E0F99
:102D900080932C048091BB00F0E0E45FFB4F8083C4
:102DA0003DC0803B39F0E0F4803A09F479C0883ABC
:102DB00009F09ACF84E08093AA0410920B04109239
:102DC0000A04E0915C04F0915D04199580910A0475
:102DD00081110FC081E080930A041092EA0309C0B8
:102DE000803C09F4A6CF883C09F4A3CF883B09F0C6
:102DF0007BCFE0910B0481E08E0F80930B04F0E019
:102E0000E651FC4F80818093BB0090910B04809130
:102E10000A0429C0809185048093BB0085EC8093CF
:102E2000BC0062CF9091A7048091A604981758F532
:102E3000E091A70481E08E0F8093A704F0E0EA57A9
:102E4000FB4F8081E9CFE091A70481E08E0F809352
:102E5000A7048091BB00F0E0EA57FB4F808390917C
:102E6000A7048091A6049817C8F285E8D8CFE0910E
:102E7000A70481E08E0F8093A7048091BB00F0E04F
:102E8000EA57FB4F80838091A90481115CCF81E0D8
:102E90008093840484EA8093BC001092AA0424CF17
:102EA00085EC8093BC001092AA0480912C0480329F
:102EB00030F4E0912C04F0E0E45FFB4F108260916D
:102EC0002C0470E0E0915A04F0915B048CE094E0F3
:102ED000199510922C0408CF1092A80434CFCF92E9
:102EE000DF92EF92FF920F931F93E82FF92F05C007
:102EF000015011092109310961F19081962394173C
:102F0000B9F305C0015011092109310911F190816E
:102F100096239413F7CFC12CD12CE12CF12C0AC0AD
:102F20008FEFC81AD80AE80AF80A0C151D052E05F5
:102F30003F0579F080818623841791F36C2D7D2DD8
:102F40008E2D9F2D1F910F91FF90EF90DF90CF90CE
:102F5000089560E070E080E090E01F910F91FF9095
:102F6000EF90DF90CF9008951092D7041092D6047E
:102F700088EE93E0A0E0B0E08093D8049093D90469
:102F8000A093DA04B093DB042BE232E03093D50453
:102F90002093D40425EC30E03093E1042093E00446
:102FA00024EC30E03093E3042093E20420EC30E0A2
:102FB0003093E5042093E40421EC30E03093E704FF
:102FC0002093E60422EC30E03093E9042093E804F7
:102FD00026EC30E03093EB042093EA041092ED04E9
:102FE0001092EE041092EF041092F0041092740507
:102FF000109273058093750590937605A0937705DD
:10300000B09378058DE392E09093720580937105FB
:1030100082E080937E0626E120937F06EBE4F3E0D6
:10302000E491E0938006E5E0F3E0E491E09381062B
:1030300080E89EE3A0E0B0E0809386069093870648
:10304000A0938806B093890633E030936B062093F3
:103050006C06ECE4F3E0E491E0936D06E6E0F3E067
:10306000E491E0936E068093730690937406A093A8
:103070007506B093760610924E0610924D0680911A
:103080000D06803308F06CC091E0980F90930D0608
:1030900080934A0690E0FC01EE0FFF1FE80FF91F36
:1030A000E358FA4F88EB9BE09283818310924106AC
:1030B000109240062FE432E030933F0620933E0604
:1030C00087E28093420694E19093470684E08093E0
:1030D0004806109249061092350610923406309335
:1030E00033062093320646E24093360690933B0621
:1030F00080933C0610923D061092290610922806F5
:10310000309327062093260645E240932A069093A3
:103110002F06809330061092310610921D061092F1
:103120001C0630931B0620931A0644E240931E06A9
:103130009093230680932406109225061092110680
:103140001092100630930F0620930E0623E2209370
:103150001206909317068093180610921906089588
:103160008FEF80934A06A2CFCF93DF93CDB7DEB720
:1031700062970FB6F894DEBF0FBECDBF789484B5CA
:10318000826084BD84B5816084BD85B5826085BD63
:1031900085B5816085BD80916E00816080936E00F1
:1031A00010928100809181008260809381008091E3
:1031B0008100816080938100809180008160809394
:1031C00080008091B10084608093B1008091B00054
:1031D00081608093B0008091910082608093910023
:1031E0008091910081608093910080919000816036
:1031F000809390008091A10082608093A1008091D3
:10320000A10081608093A1008091A00081608093E3
:10321000A000809121018260809321018091210191
:103220008160809321018091200181608093200141
:1032300080917A00846080937A0080917A00826025
:1032400080937A0080917A00816080937A008091E7
:103250007A00806880937A001092C100E091E404C3
:10326000F091E50482E08083E091E004F091E104D4
:103270001082E091E204F091E30480E180831092F7
:10328000EC04E091E804F091E90486E08083E091A9
:10329000E604F091E704808180618083E091E60498
:1032A000F091E704808188608083E091E604F091EA
:1032B000E704808180688083E091E604F091E70470
:1032C00080818F7D808362E080917E060E9433033F
:1032D0002FB7F89480915E0490915F04A0916004F0
:1032E000B09161042FBF805D9740A109B10980931F
:1032F000820690938306A0938406B093850617E315
:1033000010938B0662E080916B060E9433032FB707
:10331000F89480915E0490915F04A0916004B09154
:1033200061042FBF805D9740A109B10980936F06AA
:1033300090937006A0937106B0937206109378066E
:1033400083E080934F0680914D0690914E06009742
:1033500011F00E94122786E090E00E9476268C01F0
:1033600087E7D8018C9381E795E012969C938E9322
:10337000119713961C92139780E290E015969C93F8
:103380008E93149710934E0600934D060E94AE073D
:1033900081E0F8018383C8010E94ED08182F811194
:1033A0001CC110E010933C0480914A06803308F061
:1033B00052C061E08CE00E94330380914A06282FBE
:1033C00030E0F901EE0FFF1FE20FF31FE358FA4F51
:1033D0009081907C9C60908310924B0610924C06DA
:1033E0002CE0622F0E946226829FB001112430E0FF
:1033F00020E0AB01420F531FFA01EE0FFF1FE40F55
:10340000F51FE358FA4F908196FD17C02F5F3F4F8D
:103410002C30310571F7813009F041C110928000E4
:1034200082E0809381001092850010928400B19A0E
:1034300080916F00826080936F00E0914A068E2F2A
:1034400090E0FC01EE0FFF1FE80FF91FE358FA4F61
:1034500080818064808362E084E00E94330362E0C4
:1034600085E00E94330362E086E00E94330362E05D
:1034700087E00E94330360E089E00E94330360E04C
:103480008BE00E94330316E161E0812F0E94330339
:103490001F5F1333C9F761E088E00E94330361E0E6
:1034A0008AE00E9433038EE396E00E94480B8EE38D
:1034B00096E00E94AC0982E396E00E94480B82E30A
:1034C00096E00E94AC0986E296E00E94480B86E2F4
:1034D00096E00E94AC098AE196E00E94480B8AE1DE
:1034E00096E00E94AC098EE096E00E94480B8EE0C8
:1034F00096E00E94AC096AE573E09E012F5F3F4FA2
:103500001901C9010E94C20CA10170E060E08EE3C4
:1035100096E00E94EB0CC1010E94CC0B6CE673E0BC
:10352000C1010E94C20CA10161E070E08EE396E04F
:103530000E94EB0CC1010E94CC0B6FE773E0C1014C
:103540000E94C20CA10162E070E08EE396E00E944E
:10355000EB0CC1010E94CC0B61E973E0C1010E9438
:10356000C20CA10163E070E08EE396E00E94EB0CD8
:10357000C1010E94CC0B6CED75E080E090E00E94F0
:10358000AF03810189E796E00E945C06C12CD12C33
:1035900060ECE62E6FE7F62E882331F089E796E09F
:1035A0000E94FC016B017C0189E796E00E945C06A9
:1035B000882309F420C680917F068B3038F08D3047
:1035C00008F499C08551823008F478C5812C912C7B
:1035D00050ECA52E5FE7B52EACC080ED8C8721E0C6
:1035E00030E0AE014F5F5F4FBE01645F7F4F80915F
:1035F0004D0690914E060E94B5098981853509F0E6
:10360000D0CE8AEA0E94F30A909351068093500626
:103610008CEA0E94F30A90935306809352068EEA36
:103620000E94F30A909355068093540680EB0E9403
:10363000F30A909361068093600682EB0E94F30A7E
:10364000909363068093620684EB0E94F30A909342
:1036500065068093640686EB0E94F30A90935706F2
:103660008093560688EB0E94F30A90935906809344
:1036700058068AEB0E94F30A90935B0680935A06E1
:103680008CEB0E94F30A90935D0680935C068EEBB0
:103690000E94F30A90935F0680935E0683CE823089
:1036A00061F4109290008093910010929500109216
:1036B000940088BB80937100C0CE833069F410926F
:1036C000A00082E08093A1001092A5001092A400B7
:1036D00089BB80937200B1CE8111AFCE10922001D0
:1036E00082E08093210110922501109224018ABB6F
:1036F00080937300A2CE60917A0670E090E080E043
:103700000E94E9232DEC3CEC4CEC5DE30E94482444
:103710004B015C016091790670E090E080E00E94CE
:10372000E9239B01AC01C501B4010E946A254B014C
:103730005C01A7019601C701B6010E944D268823AE
:1037400009F467C5A5019401C501B4010E944D2685
:10375000811108C08092050290920602A092070291
:10376000B092080280913C04882309F4EEC18EE2F5
:103770008B8784EF8A87E0904D06F0904E06D70144
:1037800014968D919C911597029710F111968D9139
:103790009C9112972C91B1E0B093B0042093D20485
:1037A0001092B1041092D304DC01ED91FC910280DF
:1037B000F381E02D41E050E0BE01665F7F4F199537
:1037C000019731F4BE01655F7F4FC7010E94D608A3
:1037D00065E070E080E090E00E94AF0386EF0E9419
:1037E000F30A4C01B12CA12C80914F068295880FD1
:1037F000880F807C8C5C898784EF8887E0904D06F9
:10380000F0904E06F70184819581029700F1818145
:1038100092812081F1E0F093B0042093D2041092C1
:10382000B1041092D304DC01ED91FC910280F3818C
:10383000E02D41E050E0BE01685F7F4F1995019790
:1038400031F4BE01675F7F4FC7010E94D6088091A7
:103850004F06811145C465E070E080E090E00E9471
:10386000AF0386EF0E94F30AB0E0A0E0CC24D82E8C
:10387000E92EFA2E88EF8F8321E030E0A101BE010E
:10388000695F7F4F80914D0690914E060E94B50969
:103890008981A7019601282B2F87388B498B5A8B5A
:1038A00030914F063D878091640690916506A50191
:1038B0009401281B390B41095109A0916206B0916E
:1038C00063060E9425256B017C014FE0F594E79487
:1038D000D794C7944A95D1F760915C0670915D06C4
:1038E000072E000C880B990B5BE0660F771F881F73
:1038F000991F5A95D1F720915E0630915F06032EED
:10390000000C440B550B2C0D3D1D4E1D5F1D0E94E0
:103910000625C20ED31EE41EF51E40EAC41A4FE06F
:10392000D40AE108F108A7019601C701B6010E9477
:1039300052262B013C016CE0759467945794479490
:103940006A95D1F7A0915406B09155060E94302592
:103950004B015C017DE0B594A794979487947A9588
:10396000D1F7A0915606B0915706A30192010E948B
:1039700030259C01552737FD5095452F280D391DC1
:103980004A1D5B1D2E5F3F4F4F4F5F4FF2E0559535
:10399000479537952795FA95D1F730584F4F5F4F98
:1039A000A0916006B09161060E9425254B015C0143
:1039B000AFE0B694A79497948794AA95D1F788E03E
:1039C00090E05D85851B91092F85388949895A8941
:1039D00004C056954795379527958A95D2F72F8736
:1039E000388B498B5A8BA0915806B0915906A30188
:1039F00092010E9430252B013C01BBE07594679435
:103A000057944794BA95D1F7A0915206B0915306B6
:103A1000A70196010E9430252BE095958795779513
:103A200067952A95D1F7640D751D861D971D4090E9
:103A3000500650905106052C000C6608770832E0BD
:103A4000440C551C661C771C3A95D1F7640D751D06
:103A5000861D971D0D8404C0660F771F881F991F50
:103A60000A94D2F76E5F7F4F8F4F9F4F24E030E074
:103A700040E050E00E9406258F859889A989BA897F
:103A8000821B930BA40BB50B9C01AD0160E573EC9D
:103A900080E090E00D8404C09695879577956795B2
:103AA0000A94D2F70E94522697FD2DC3660F771F06
:103AB000881F991FA50194010E94382569017A0188
:103AC0009927F7FC9A958F2D7E2D6D2D9B01AC01CA
:103AD0000E9452269B01AC01AEEDBBE00E94252561
:103AE0004B015C01A3E4B3EEA70196010E943325CC
:103AF000BC01992777FD9095892F4501BB2497FC40
:103B0000B094AB2C680D791D8A1D9B1D6153714FBC
:103B10008F4F9F4FB4E09595879577956795BA95A8
:103B2000D1F76C0D7D1D8E1D9F1D0E94E92320E0A5
:103B300030E048EC52E40E94D62560930102709375
:103B40000202809303029093040286E30E946F03B3
:103B50006C0190933B0480933A0487E30E946F03C7
:103B60007C019093390480933804809009029090EE
:103B70000A02A0900B02B0900C0220E030E04CE072
:103B800052E4C501B4010E94482618165CF09DEB72
:103B9000C91692E0D90634F4A3E5EA16A3E0FA06C2
:103BA0000CF4BCC2E2E0F0E0F0935404E093530460
:103BB000E0905304F090540461E0E114F10409F042
:103BC00060E086E10E94050361E031E0E316F10464
:103BD00009F060E087E10E940503DD24D39442E010
:103BE000E416F10409F0D12C6D2D88E10E94050343
:103BF00061E01E141F040CF060E08AE10E940503DE
:103C00006D2D8BE10E9405036D2D89E10E94050356
:103C100086E696E00E945C068823A1F086E696E0A0
:103C20000E94FC016B017C01AC019B010E944D26AE
:103C3000811108C0C0920D02D0920E02E0920F02D4
:103C4000F092100288E30E946F039E878D87909305
:103C500044048093430489E30E946F034C018AE388
:103C60000E946F035C0190934204809341048BE3B4
:103C70000E946F036C019093400480933F048CE397
:103C80000E946F037C0190933E0480933D0461E0A9
:103C90008D859E85893592400CF460E08CE10E9410
:103CA000050361E0B0E98B16B1E09B060CF060E023
:103CB0008DE10E94050361E0EEE5AE16E1E0BE068F
:103CC0000CF060E08EE10E94050361E0FEE5CF1696
:103CD000F1E0DF060CF060E08FE10E94050361E097
:103CE0002EE5E21621E0F2060CF460E080E20E948C
:103CF000050361E03EE5E31631E0F3060CF060E019
:103D000081E20E94050340900D0250900E026090E7
:103D10000F027090100220E030E048E152E4C3014D
:103D2000B2010E94482618164CF044EBA416B104C8
:103D30002CF05CEDC516D1040CF010C282E090E0CE
:103D4000909352048093510461E0809151049091CA
:103D50005204029709F060E082E20E94050384E0C9
:103D60000E94DC026C0199249394892B09F0912C18
:103D70009092480485E00E94DC025C0188248394D0
:103D8000892B09F0812C809247048DE30E946F03F8
:103D90007C019093460480934504C114D10431F012
:103DA000AB2821F08D3B92400CF4FEC182E090E004
:103DB0009093500480934F04692D83E20E94050381
:103DC000BB24B394A3ECEA16A1E0FA060CF4B12CE0
:103DD0006B2D84E20E940503682D85E20E94050395
:103DE000E0904F04F090500461E0E114F10409F018
:103DF00060E086E20E940503692D88E20E940503C7
:103E0000CD2811F4BB24B3946B2D89E20E940503E5
:103E100061E0B2E0EB16F10409F060E087E20E9495
:103E2000050386E00E94DC0221E0892B09F020E0F6
:103E300020934C0487E00E94DC0221E0892B09F0EA
:103E400020E020934B0469E070E088E090E00E945D
:103E500039146093150270931602809317029093A1
:103E600018026BE070E08AE090E00E9439146B0168
:103E70007C01C0921102D0921202E0921302F092E1
:103E800014028EE30E946F0321E0803991400CF010
:103E900020E020934A044090150250901602609052
:103EA000170270901802AA24A394FCE04F16510444
:103EB000610471040CF0A12C81E02FE0C216D10442
:103EC000E104F1040CF080E080934904B0904C04CC
:103ED00090904B046B2D69258AE20E940503B11076
:103EE000B92C6B2D8BE20E9405036A2D8CE20E9497
:103EF000050361E036E043165104610471040CF0DF
:103F000060E08DE20E940503B0E0A0E04FE0C4163F
:103F1000D104E104F10414F0AAE5B0E050914A069E
:103F20005D87503308F053C080914C0648E5C42E9D
:103F300042E0D42EC81AD10887FDD394CC0CDD1CE6
:103F4000CC0CDD1C80914B0668E8E62EF12CE81ABB
:103F5000F10887FDF394EE0CFF1CEE0CFF1C4701EB
:103F60000F2C000CAA08BB0896010D2C000C440B6A
:103F7000550B281939094A095B090E94302524EBA1
:103F800030E040E050E00E940625BA01A901480D4A
:103F9000591D6A1D7B1D4E155F052CF076014C15D1
:103FA0005D050CF47A0182E0E81AF108EE0CFF1CC2
:103FB0002FB7F894AD858A2F90E0FC01EE0FFF1F1C
:103FC000E80FF91FE358FA4FF282E1822FBF6091A8
:103FD0004A048EE20E940503809115029091160218
:103FE000A0911702B09118020697A105B1050CF037
:103FF000E8C0E2E0F0E0F0934E04E0934D040E944C
:10400000F60D83EA93E00E94AD0B6091530470912A
:104010005404C8010E94700DB80184ED94E00E9420
:104020002604C8010E94CC0B89EA93E00E94AD0BE4
:104030006091510470915204C8010E94700DB80142
:1040400084ED94E00E942604C8010E94CC0B83EB0F
:1040500093E00E94AD0B60914F0470915004C80131
:104060000E94700DB80184ED94E00E942604C801FE
:104070000E94CC0B8FEB93E00E94AD0B60914D043E
:1040800070914E04C8010E94700DB80184ED94E057
:104090000E94260442E050E06AEC73E084ED94E074
:1040A0000E943404C8010E94CC0B60ED77E080E0F0
:1040B00090E00E94AF030E94370564CA60917906C0
:1040C00070917A0676276727762790E080E00E9435
:1040D000E7232DEC3CEC4CEC5DE30E94482427CB1D
:1040E000813029F468E070E080E090E0B8CB823065
:1040F00029F46EE070E080E090E0B1CB6AE170E01E
:1041000080E090E0ACCBA50194010E9438256901C4
:104110007A01CC0CDD1CEE1CFF1CD2CC20E030E080
:1041200040EF51E4C501B4010E944826181654F02E
:10413000F3ECCF16F1E0DF062CF429E5E21622E0DD
:10414000F2063CF081E090E0909354048093530495
:104150002FCD10925404109253042ACD20E030E069
:1041600040E052E4C301B2010E9448261816A4F0B0
:10417000AD85BE85A935B2407CF4FEE5AF16F1E011
:10418000BF0654F02EE5C21621E0D2062CF03EE523
:10419000E31631E0F3061CF481E090E0D1CD1092FB
:1041A000520410925104D0CD93ECE91691E0F90637
:1041B0001CF081E090E0FCCD1092500410924F046E
:1041C000FBCDFCE04F1651046104710444F0809172
:1041D0004C04882359F080914B04882339F081E006
:1041E00090E090934E0480934D0409CF10924E04BA
:1041F00010924D0404CFA7019601C701B6010E9499
:104200004D26812C912C40ECA42E4FE7B42E811129
:10421000A9CAC0920902D0920A02E0920B02F0925F
:104220000C0290CAEF920F931F93CF93DF93E80194
:1042300034E047FD34E1042E000C550B57FF03C05A
:10424000519541955109E32E022F242FAE010E9472
:104250008621CE01DF91CF911F910F91EF900895AC
:10426000BB274A3031F4992322F4BDE29095819521
:104270009F4F0C946D21BB272A3051F4992342F4AF
:10428000BDE290958095709561957F4F8F4F9F4FC0
:104290000C944B21BB27FA01A62F621771058105EB
:1042A0009105330B30FB66F0AA27660F771F881F36
:1042B000991FAA1FA21710F0A21B63953850A9F7E7
:1042C000A05DAA3308F0A95DA19336F7B111B193AF
:1042D0001082CA010C94D723BB27FB015527AA27BC
:1042E000880F991FAA1FA41710F0A41B8395505183
:1042F000B9F7A05DAA3308F0A95DA193009779F7FB
:10430000B111B1931192CB010C94D7238F929F924C
:10431000AF92BF92CF92DF92EF92FF920F931F93D3
:10432000CF93DF9300D000D000D0CDB7DEB76A01C5
:10433000F22EB02E102FFBE3AF2EA01608F41BE3D5
:104340001F5F012F27E0AE014F5F5F4F0E94FF22EA
:10435000BC018981982F9970913009F44EC09BE27D
:10436000E1FC04C09E2D9170E0FC49C05E2D5071AF
:10437000E82FE87083FF55C084E0911101C083E00D
:10438000EF2DE81B8F1508F0E0E0D6018E2F20E21C
:104390005523C9F1992329F0D6019C93C6010196B2
:1043A0006C0196012D5F3F4FE2FE33C08EE4D601D3
:1043B0008C9391E411969C93119712968C93D9014A
:1043C0008E2F90E281112AC0E20FF32FF11D10828F
:1043D0008EEF9FEF29960FB6F894DEBF0FBECDBFCC
:1043E000DF91CF911F910F91FF90EF90DF90CF90D1
:1043F000BF90AF909F908F9008959DE2B7CF90E2CD
:10440000B5CF2D9381508111FCCFCE0ED11CE0E0B1
:10441000C1CF8EE6D6018C9391E6CCCF9D9381508F
:10442000D1CF482F447082FF3DC084E0911101C07C
:1044300083E08F1510F4EF2DE81BD6018E2F20E2BC
:10444000552309F1992329F0D6019C93C6010196C1
:104450006C0196012D5F3F4FE2FE1BC089E4D6013F
:104460008C938EE411968C93119786E412968C931C
:10447000D9018E2F90E2882309F4A6CF9D93815015
:10448000FACF2D9381508111FCCFCE0ED11CE0E0EC
:10449000D9CF89E6D6018C938EE611968C9311972D
:1044A00086E6E4CF9B0177FF02C030E020E0A1E088
:1044B000B0E0911102C0B0E0A0E0F9013196AE0F7A
:1044C000BF1F8B2C912CBB2009F461C05401EFEF6E
:1044D000AE1ABE0AAA0DBB1DFA161B0619F014F07F
:1044E0004F2D4A1B511188C0E3FC59C07601A42FFF
:1044F000B0E2A1114FC0C40ED11C992309F45BC0D6
:1045000040E0D6011196F60190836D01552309F420
:1045100048C0012F060F9A81582F507184FF03C0A5
:10452000913309F4015010160CF047C0093008F01F
:1045300008E0EEE2FE2E5B01A01AB108850191941D
:10454000819491082F3F320729F4D601FC92F6019D
:1045500031966F016217730794F1021713077CF508
:10456000DB01A21BB30BAA24A394B12CAC0EBD1E7D
:10457000AA0DBB1D11968C9121503109D6011196BF
:1045800028153905F4F0F60180836D01DBCFB12CDD
:10459000A12CA0CFF701B1937F01A150AACF911117
:1045A000B0CFD601942F50E302C05D93915091118A
:1045B000FCCFC40ED11C40E0ACCF01E0BACF80E309
:1045C000DBCF6217730731F4963388F4953311F417
:1045D000552369F0F6018083FD01842F90E281115B
:1045E00008C0A40FB11D1C9290E080E0F3CE81E3DF
:1045F000F1CF91938150F3CF911183CF8ACF28309F
:1046000008F027E03327DA01990F311D87FD91600B
:1046100000966105710539F432602E5F3D9330E3F9
:104620002A95E1F708959F3F30F0803871056105C4
:1046300009F03C5F3C5F3D93913008F08068911D2C
:10464000DF93CF931F930F93FF92EF92192F987FD1
:104650009695E92F96959695E90FFF27E253FE4F21
:1046600099273327EE24FF24A701E701059008943A
:10467000079428F4360FE71EF81E491F511D660FD8
:10468000771F881F991F0694A1F70590079428F4B7
:10469000E70EF81E491F561FC11D770F881F991F6F
:1046A000661F0694A1F70590079428F4F80E491F99
:1046B000561FC71FD11D880F991F661F771F0694AD
:1046C000A1F70590079420F4490F561FC71FD81F64
:1046D000990F661F771F881F0694A9F7849110957C
:1046E000177041F0D695C79557954795F794E7947D
:1046F0001A95C1F7E4E7F1E06894159015913591AA
:104700006591959105907FE27395E118F10A430B4D
:10471000560BC90BD009C0F7E10CF11E431F561F01
:10472000C91FD01D7EF4703311F48A95E6CFE8944A
:10473000015030F0080F0AF40027021708F4202F68
:104740002395022F7A3328F079E37D932A95E9F7B0
:1047500010C07D932A9589F60694979567953795AD
:1047600017951794E118F10A430B560BC90BD009A2
:1047700098F023957E9173957A3308F070E37C93DB
:104780002013B8F77E9170617D9330F0839571E3CB
:104790007D9370E32A95E1F71124EF90FF900F913C
:1047A0001F91CF91DF91992787FD90950895DC01A6
:1047B000FC01672F71917723E1F7329704C07C9158
:1047C0006D9370836291AE17BF07C8F30895E894A4
:1047D00009C097FB3EF490958095709561957F4F49
:1047E0008F4F9F4F9923A9F0F92F96E9BB279395F7
:1047F000F695879577956795B795F111F8CFFAF407
:10480000BB0F11F460FF1BC06F5F7F4F8F4F9F4F37
:1048100016C0882311F096E911C0772321F09EE895
:10482000872F762F05C0662371F096E8862F70E0FB
:1048300060E02AF09A95660F771F881FDAF7880FD5
:104840009695879597F90895990F0008550FAA0B2B
:10485000E0E8FEEF16161706E807F907C0F0121693
:104860001306E407F50798F0621B730B840B950B96
:1048700039F40A2661F0232B242B252B21F40895EB
:104880000A2609F4A140A6958FEF811D811D089588
:104890000E945B240C94CC240E94BE2438F00E9419
:1048A000C52420F0952311F00C94B5240C94BB245E
:1048B00011240C9400250E94DD2470F3959FC1F310
:1048C000950F50E0551F629FF001729FBB27F00DBE
:1048D000B11D639FAA27F00DB11DAA1F649F662713
:1048E000B00DA11D661F829F2227B00DA11D621F62
:1048F000739FB00DA11D621F839FA00D611D221F1C
:10490000749F3327A00D611D231F849F600D211DFF
:10491000822F762F6A2F11249F5750409AF0F1F082
:1049200088234AF0EE0FFF1FBB1F661F771F881FEB
:1049300091505040A9F79E3F510580F00C94B5244A
:104940000C9400255F3FE4F3983ED4F38695779569
:104950006795B795F795E7959F5FC1F7FE2B880F91
:10496000911D9695879597F9089597F99F6780E827
:1049700070E060E008959FEF80EC089500240A94B1
:104980001616170618060906089500240A9412162A
:104990001306140605060895092E0394000C11F45D
:1049A000882352F0BB0F40F4BF2B11F460FF04C00A
:1049B0006F5F7F4F8F4F9F4F089557FD9058440F63
:1049C000551F59F05F3F71F04795880F97FB991F6E
:1049D00061F09F3F79F0879508951216130614062B
:1049E000551FF2CF4695F1DF08C0161617061806B8
:1049F000991FF1CF86957105610508940895E89493
:104A0000BB2766277727CB0197F90895052E97FBDB
:104A10001EF400940E941D2557FD07D00E943825E2
:104A200007FC03D04EF40C941D255095409530950D
:104A300021953F4F4F4F5F4F08959095809570950A
:104A400061957F4F8F4F9F4F08950E945A25A59FD4
:104A5000900DB49F900DA49F800D911D1124089579
:104A6000B7FF0C9425250E942525821B930B0895E2
:104A7000A1E21A2EAA1BBB1BFD010DC0AA1FBB1F62
:104A8000EE1FFF1FA217B307E407F50720F0A21BD4
:104A9000B30BE40BF50B661F771F881F991F1A9441
:104AA00069F760957095809590959B01AC01BD016B
:104AB000CF010895A29FB001B39FC001A39F700DC5
:104AC000811D1124911DB29F700D811D1124911D16
:104AD00008955058BB27AA270E9481250C94CC2406
:104AE0000E94BE2438F00E94C52420F039F49F3F74
:104AF00019F426F40C94BB240EF4E095E7FB0C9417
:104B0000B524E92F0E94DD2458F3BA176207730712
:104B10008407950720F079F4A6F50C94FF240EF491
:104B2000E0950B2EBA2FA02D0B01B90190010C01BD
:104B3000CA01A0011124FF27591B99F0593F50F4D5
:104B4000503E68F11A16F040A22F232F342F44272D
:104B5000585FF3CF469537952795A795F040539525
:104B6000C9F77EF41F16BA0B620B730B840BBAF0F5
:104B70009150A1F0FF0FBB1F661F771F881FC2F760
:104B80000EC0BA0F621F731F841F48F48795779574
:104B90006795B795F7959E3F08F0B0CF9395880F2E
:104BA00008F09927EE0F9795879508950E94EA25BA
:104BB0000C94CC240E94C52458F00E94BE2440F0DE
:104BC00029F45F3F29F00C94B52451110C94002571
:104BD0000C94BB240E94DD2468F39923B1F3552380
:104BE00091F3951B550BBB27AA2762177307840700
:104BF00038F09F5F5F4F220F331F441FAA1FA9F396
:104C000035D00E2E3AF0E0E832D091505040E69583
:104C1000001CCAF72BD0FE2F29D0660F771F881FE4
:104C2000BB1F261737074807AB07B0E809F0BB0BD7
:104C3000802DBF01FF2793585F4F3AF09E3F5105EB
:104C400078F00C94B5240C9400255F3FE4F3983E73
:104C5000D4F3869577956795B795F7959F5FC9F7D4
:104C6000880F911D9695879597F90895E1E0660F55
:104C7000771F881FBB1F621773078407BA0720F0CE
:104C8000621B730B840BBA0BEE1F88F7E095089537
:104C90000E94242408F48FEF08950E942424880B96
:104CA000990B0895DB018F939F930E942525BF9157
:104CB000AF91A29F800D911DA39F900DB29F900D6B
:104CC00011240895991B79E004C0991F961708F0E4
:104CD000961B881F7A95C9F780950895EE0FFF1FE0
:104CE000881F8BBF0790F691E02D19940F931F93A7
:104CF000CF93DF938230910510F482E090E0E09151
:104D00008E06F0918F0630E020E0B0E0A0E0309712
:104D100099F42115310509F44AC0281B390B2430B8
:104D20003105D8F58A819B816115710589F1FB01F7
:104D300093838283FE0111C04081518102811381DE
:104D400048175907E0F04817590799F4109761F090
:104D500012960C93129713961C933296CF01DF9103
:104D6000CF911F910F91089500938E0610938F0697
:104D7000F4CF2115310551F04217530738F0A9013E
:104D8000DB019A01BD01DF01F801C1CFEF01F9CFCD
:104D900090938F0680938E06CDCFFE01E20FF31F16
:104DA000819391932250310939832883D7CF209161
:104DB0008C0630918D06232B41F420911B023091FB
:104DC0001C0230938D0620938C062091190230919D
:104DD0001A022115310541F42DB73EB740911D024D
:104DE00050911E02241B350BE0918C06F0918D062C
:104DF000E217F307A0F42E1B3F0B2817390778F0B2
:104E0000AC014E5F5F4F2417350748F04E0F5F1F10
:104E100050938D0640938C06819391939FCFF0E041
:104E2000E0E09CCFCF93DF930097E9F0FC0132974D
:104E300013821282A0918E06B0918F06ED0130E0B0
:104E400020E01097A1F420813181820F931F2091DF
:104E50008C0630918D062817390709F061C0F09350
:104E60008D06E0938C06DF91CF910895EA01CE176D
:104E7000DF07E8F54A815B819E0141155105B1F7D5
:104E8000E901FB83EA8349915991C40FD51FEC17BF
:104E9000FD0761F4808191810296840F951FE901DD
:104EA00099838883828193819B838A83F0E0E0E009
:104EB00012968D919C9113970097B9F52D913C9185
:104EC0001197CD010296820F931F20918C0630918D
:104ED0008D062817390739F6309751F510928F064D
:104EE00010928E06B0938D06A0938C06BCCFD38310
:104EF000C28340815181840F951FC817D90761F47F
:104F00004E5F5F4F88819981480F591F51834083BD
:104F10008A819B81938382832115310509F0B0CF6B
:104F2000F0938F06E0938E069ECFFD01DC01C0CF8B
:104F300013821282D7CF4F925F926F927F928F929D
:104F40009F92AF92BF92CF92DF92EF92FF920F9318
:104F50001F93CF93DF938C01009799F4CB01DF91DE
:104F6000CF911F910F91FF90EF90DF90CF90BF9066
:104F7000AF909F908F907F906F905F904F900C9428
:104F80007626FC01E60FF71F9C0122503109E2173B
:104F9000F30708F4AEC0D901CD91DC911197C61783
:104FA000D70720F1C530D10578F0CE0104978617D8
:104FB000970750F0C61BD70B2297C193D1936D93DF
:104FC0007C93CF010E941227C801DF91CF911F91DE
:104FD0000F91FF90EF90DF90CF90BF90AF909F9098
:104FE0008F907F906F905F904F9008955B01AC1A07
:104FF000BD0A4C018C0E9D1EA0918E06B0918F06AD
:10500000512C412CF12CE12C109731F580918C061C
:1050100090918D068815990509F05CC046165706D3
:1050200008F058C08091190290911A02009741F43B
:105030008DB79EB740911D0250911E02841B950BA7
:10504000E817F90708F055C0F0938D06E0938C0639
:10505000F90171836083B8CF8D919C91119712965D
:105060006C90129713967C901397A815B90559F573
:105070006C0142E0C40ED11CCA14DB0420F1AC0167
:105080004A195B09DA011296159780F062827382E1
:1050900051834083D9016D937C93E114F10471F045
:1050A000D7011396FC93EE9312978ECF22968C0F16
:1050B0009D1FF90191838083F301EFCFF0938F0659
:1050C000E0938E0681CF4816590608F42C017D0125
:1050D000D3019ACFCB010E9476267C01009749F03C
:1050E000AE01B8010E947C28C8010E9412278701E6
:1050F0006BCF10E000E068CFFB01DC0102C0019043
:105100000D9241505040D8F70895FB01DC01019009
:105110000D920020E1F70895F894FFCFFF00407D45
:1051200044000034420000C0410000C84164000057
:1051300000640000000000900680000000400014A1
:1051400000540000000000CA0434046104170592F2
:1051500004700484040000000069093C09B20912CB
:105160000935092209130900000000420B3404B27A
:1051700009680757004E4F524D414C005741524E5F
:10518000494E470044414E47455200594553004E51
:105190004F004F4343555049454400465245450052
:1051A0004F4E004F46460042002D00410043454E01
:1051B0005452414C20434F4D4D414E4400454E56B4
:1051C0003A00204C4946453A00534146453A0020B2
:1051D000494E4652413A005354415455533A2000E7
:1051E000312E20454E5649524F4E4D454E540020CB
:1051F000483A0020503A004761733A0020526164F7
:105200003A00322E204C49464520535550504F52BB
:105210005400536F696C3A0020543A00576174652A
:10522000723A00204F323A00536F6C3A00332E200E
:1052300053414645545900466972653A0020534F20
:10524000533A004761733A2000342E20494E4652AB
:105250004153545255435455524500576173746538
:105260003A00636D005061726B696E673A00204CC2
:10527000696768743A00504C414E45544152592078
:10528000484142495441540053595354454D2053C9
:1052900054415254494E472E2E2E0035204C49562B
:1052A000452044415348424F41524453004E4F2001
:1052B0005041474520535749544348494E470045BC
:1052C0004E563A2000207C204C4946453A2000208A
:1052D0007C205341464554593A2000207C20494EB9
:0A52E0004652413A20000D0A00007A
:020000040003F7
:10E000000D9489F10D94B2F10D94B2F10D94B2F129
:10E010000D94B2F10D94B2F10D94B2F10D94B2F1F0
:10E020000D94B2F10D94B2F10D94B2F10D94B2F1E0
:10E030000D94B2F10D94B2F10D94B2F10D94B2F1D0
:10E040000D94B2F10D94B2F10D94B2F10D94B2F1C0
:10E050000D94B2F10D94B2F10D94B2F10D94B2F1B0
:10E060000D94B2F10D94B2F10D94B2F10D94B2F1A0
:10E070000D94B2F10D94B2F10D94B2F10D94B2F190
:10E080000D94B2F10D94B2F10D94B2F10D94B2F180
:10E090000D94B2F10D94B2F10D94B2F10D94B2F170
:10E0A0000D94B2F10D94B2F10D94B2F10D94B2F160
:10E0B0000D94B2F10D94B2F10D94B2F10D94B2F150
:10E0C0000D94B2F10D94B2F10D94B2F10D94B2F140
:10E0D0000D94B2F10D94B2F10D94B2F10D94B2F130
:10E0E0000D94B2F141546D656761323536300041AF
:10E0F000726475696E6F206578706C6F72657220DE
:10E1000073746B3530305632206279204D4C530099
:10E11000426F6F746C6F616465723E004875683F52
:10E1200000436F6D70696C6564206F6E203D200048
:10E130004350552054797065202020203D20005FF9
:10E140005F4156525F415243485F5F3D2000415658
:10E1500052204C696243205665723D20004743437C
:10E160002056657273696F6E203D20004350552024
:10E1700049442020202020203D20004C6F7720663D
:10E18000757365202020203D20004869676820665F
:10E190007573652020203D200045787420667573D6
:10E1A00065202020203D20004C6F636B2066757336
:10E1B000652020203D20004D617220203720323024
:10E1C000313300312E362E3800342E332E350056A2
:10E1D00023202020414444522020206F7020636F70
:10E1E00064652020202020696E73747275637469E1
:10E1F0006F6E2061646472202020496E74657272B3
:10E20000757074006E6F20766563746F7200726A49
:10E210006D702020006A6D70200057686174207056
:10E220006F72743A00506F7274206E6F7420737541
:10E2300070706F72746564004D7573742062652030
:10E2400061206C6574746572002000577269747483
:10E25000696E672045450052656164696E672045B7
:10E26000450045452065727220636E743D00504F35
:10E27000525400303D5A65726F2061646472003FF1
:10E280003D43505520737461747300403D454550C3
:10E29000524F4D207465737400423D426C696E6B41
:10E2A000204C454400453D44756D70204545505215
:10E2B0004F4D00463D44756D7020464C415348001B
:10E2C000483D48656C70004C3D4C69737420492F83
:10E2D0004F20506F72747300513D51756974005234
:10E2E0003D44756D702052414D00563D73686F7707
:10E2F00020696E7465727275707420566563746FF0
:10E30000727300593D506F727420626C696E6B00BD
:10E310002A0011241FBECFEFD1E2DEBFCDBF01E046
:10E320000CBF12E0A0E0B2E0EEE1FDEF03E00BBFB6
:10E3300002C007900D92A030B107D9F712E0A0E01B
:10E34000B2E001C01D92AE30B107E1F70F9460F367
:10E350000D948DFE01E20EBF0FEF0DBF11241FBE05
:10E360000D9460F30D9400F020E030E040ED57E0B4
:10E3700005C0FA013197F1F72F5F3F4F2817390792
:10E38000C0F308959C01260F311DC901A0E0B0E043
:10E390002F5F3F4FABBFFC018791882361F08093D3
:10E3A000C6008091C00086FFFCCF8091C0008064D1
:10E3B0008093C000EACF08958DE08093C6008091DD
:10E3C000C00086FFFCCF8091C00080648093C000B5
:10E3D0008AE08093C6008091C00086FFFCCF8091C8
:10E3E000C00080648093C00008950F94C2F10F9420
:10E3F000DCF10895FC019081992359F09093C600B7
:10E400008091C00086FFFCCF8091C0008064809323
:10E41000C0003196992379F70895282F982F929567
:10E420009F70892F805D8A3308F0895F8093C600D2
:10E430008091C00086FFFCCF8091C00080648093F3
:10E44000C000822F8F70982F905D9A3308F0995FEB
:10E450009093C6008091C00086FFFCCF8091C000E1
:10E4600080648093C00008959C01FB01853691056E
:10E470001CF46330710594F0C90164E670E00F94F8
:10E480002EFE605D7F4F6093C6008091C00086FFC6
:10E49000FCCF8091C00080648093C0002B30310598
:10E4A00014F43297B4F0C90164E670E00F942EFEC4
:10E4B0006AE070E00F942EFE605D7F4F6093C600AF
:10E4C0008091C00086FFFCCF8091C0008064809363
:10E4D000C000C9016AE070E00F942EFEC0968093E0
:10E4E000C6008091C00086FFFCCF8091C000806490
:10E4F0008093C00008951F93182F8EE692EE60E07F
:10E500000F94C2F11093C6008091C00086FFFCCF2B
:10E510008091C00080648093C0000F94DCF11F9153
:10E5200008952F923F924F925F926F927F928F92B7
:10E530009F92AF92BF92CF92DF92EF92FF920F9392
:10E540001F93DF93CF93CDB7DEB762970FB6F894E2
:10E55000DEBF0FBECDBF382E622ECA01DB015C01CB
:10E560006D01772420E2222E2E010894411C511CBB
:10E570008BC081E0A81680E0B80681E0C80680E084
:10E58000D80628F0C601AA27BB270F940DF2BB2797
:10E59000AD2D9C2D8B2D0F940DF28A2D0F940DF225
:10E5A0002092C6008091C00086FFFCCF8091C00001
:10E5B00080648093C0009DE29093C6008091C0006B
:10E5C00086FFFCCF8091C00080648093C0002092C1
:10E5D000C6008091C00086FFFCCF8091C00080649F
:10E5E0008093C00019828601750188249924A1E0D6
:10E5F0003A1651F03A1620F0B2E03B1661F409C029
:10E600000BBFF701779007C0C7010F9477FE782EF4
:10E6100002C0F7017080872D0F940DF22092C60082
:10E620008091C00086FFFCCF8091C0008064809301
:10E63000C000872D8052F401EF70F0708F3520F408
:10E64000E40DF51D708204C0E40DF51D8EE280839B
:10E650000894E11CF11C011D111D0894811C911CE2
:10E6600090E18916910409F0C2CF80E190E0A0E02A
:10E67000B0E0A80EB91ECA1EDB1E198AC2010F9493
:10E68000FAF10F94DCF16A94662009F072CF629679
:10E690000FB6F894DEBF0FBECDBFCF91DF911F91B3
:10E6A0000F91FF90EF90DF90CF90BF90AF909F9031
:10E6B0008F907F906F905F904F903F902F90089534
:10E6C0002F923F924F925F926F927F928F929F9282
:10E6D000AF92BF92CF92DF92EF92FF920F931F9370
:10E6E000DF93CF93CDB7DEB7CD53D1400FB6F894BB
:10E6F000DEBF0FBECDBF01E20EBF0FEF0DBF94B75F
:10E70000F894A89514BE80916000886180936000A1
:10E7100010926000789493FF05C0E0910002F091A0
:10E7200001021995279A2F9A8091C00082608093E8
:10E73000C00080E18093C40088E18093C1000000A4
:10E74000EE24FF24870144E0A42EB12CCC24DD2448
:10E7500024C0C5010197F1F70894E11CF11C011DCB
:10E76000111D21E2E2162EE4F20620E0020720E06D
:10E77000120718F031E0C32ED12CC801B70127ECE5
:10E780003BE140E050E00F9441FE611571058105C9
:10E79000910519F485B1805885B98091C00087FD35
:10E7A00003C0C114D104A9F2A6014F5F5F4FC25E3E
:10E7B000DE4F59834883CE51D140C25EDE4F8881FF
:10E7C0009981CE51D140019711F00D9410FEC05D9A
:10E7D000DE4F19821882C053D14060E0C15DDE4F28
:10E7E0001882CF52D14088249924C35DDE4F19820C
