:100000000C94C5010C94F6010C94F6010C94F601C5
:100010000C94F6010C94F6010C94F6010C94F60184
:100020000C94F6010C94F6010C94F6010C94F60174
:100030000C94F6010C94BC140C94F6010C94F6018B
:100040000C94F6010C9406160C94F6010C94F6012F
:100050000C94F6010C94F6010C94F6010C947214B5
:100060000C94F6010C9446150C941C150C94F60196
:100070000C94F6010C94F6010C94F6010C94F60124
:100080000C94D8150C94F6010C94F6010C94F6011E
:100090000C94F6010C94F6010C94F6010C943416B1
:1000A0000C94F6010C94F6010C94AA150C94F6012C
:1000B0000C94F6010C94F6010C94F6010C947C154A
:1000C0000C94F6010C94F6010C94F6010C94F601D4
:1000D0000C94F6010C94F6010C94F6010C94F601C4
:1000E0000C94F6010C949D170C94AA020C94090927
:1000F0000C940E050C94A4020C94CA020C949D025C
:100100000C94AE020C94CF020C94C6020C947002B4
:100110000C946F020C9432090C9467040C945804EC
:100120000C94BC020C94B4020C9489040C94A102AB
:100130000C948E090C9422040C9408090C949902D6
:100140000C945F090C942B090C948F020C94D00230
:100150000C94D4020C94B8020C94C1040C94C20206
:100160000C9495020C9418090C947B0400407A10AE
:10017000F35A00A0724E18090010A5D4E80000E858
:100180007648170000E40B54020000CA9A3B0000B6
:1001900000E1F505000080969800000040420F0045
:1001A0000000A08601000000102700000000E80306
:1001B000000000006400000000000A0000000000D1
:1001C0000100000000002C76D888DC674F0823DF90
:1001D000C1DFAE59E1B1B796E5E3E453C63AE65163
:1001E000997696E8E6C28426EB898C9B62ED407C8A
:1001F0006FFCEFBC9C9F40F2BAA56FA5F490055A26
:100200002AF75C936B6CF9676DC11BFCE0E40D474A
:10021000FEF520E6B500D0ED902E0300943577056D
:100220000080841E080000204E0A000000C80C3325
:100230003333330F986E12831141EF8D2114893BB4
:10024000E65516CFFEE6DB18D1844B381BF77C1D34
:10025000901DA4BBE424203284725E228100C9F187
:1002600024ECA1E53D270200002100240027002AFC
:10027000002D003000330001010000040107010AD5
:100280000100002200250028002B002E0031003440
:100290000002010000050108010B010000200023FD
:1002A00000260029002C002F00320000010000036E
:1002B000010601090100000A0B02090C0D0E0807D6
:1002C0000304010000000000000000000000000026
:1002D000000000000000000000000000000000001E
:1002E00000121110000000000000000000000000DB
:1002F00000000000000000000000000505050507E3
:100300000508080808020202020A0A080804040490
:1003100004010101010101010103030303030303BC
:1003200003040707070C0C0C0C0C0C0C0C0202024B
:100330000206060606060606060B0B0B0B0B0B0B3E
:100340000B010210202008081020401020408002DD
:10035000010201080402010102040810204080800B
:10036000402010080402018004020180402010088F
:100370000402010804020101020408102040800167
:1003800002040810204080009D1711241FBECFEFEB
:10039000D1E2DEBFCDBF00E00CBF14E0A0E0B2E0D0
:1003A000EEE7F1E500E00BBF02C007900D92AA3323
:1003B000B107D9F726E0AAE3B4E001C01D92AA3C38
:1003C000B207E1F711E0C5ECD1E000E006C02197EB
:1003D0000109802FFE010E949F26C43CD10780E0C6
:1003E0000807A9F70E945D180C94BD280C94000022
:1003F000CF92DF92EF92FF921F93CF93DF93EC01A6
:100400008E818C3009F44DC038F48B30E1F060E01F
:1004100070E080EC9FE73DC085518230C0F71A81C3
:10042000612F70E0762F662766277F778B81682B98
:1004300090E080E00E9418242DEC3CEC4CEC5DE355
:100440000E94792448C06A8170E090E080E00E94B8
:1004500018246B017C01CB81C7FF0AC0AC019B0152
:1004600060E070E080E89FEB0E949A256B017C01C0
:10047000CF706C2F70E090E080E00E941A242DEC89
:100480003CEC4CEC5DE30E947924A70196010E94AC
:100490009B25DF91CF911F91FF90EF90DF90CF9040
:1004A00008951A81612F70E090E080E00E94182486
:1004B0006B017C016B816F7070E090E080E00E94C6
:1004C0001A242DEC3CEC4CEC5DE30E947924A7014E
:1004D00096010E949B2517FFDCCF9058DACF089534
:1004E00008958150823108F05AC0E82FF0E0882743
:1004F000E358FD4F8F4F0C949F269D02A1028F025F
:1005000095029902CF02A402AA02AE02B402B80276
:10051000BC02C202C602CF02CA02D002D40280913B
:1005200080008F77809380000895809180008F7D78
:10053000F9CF80918000877FF5CF84B58F7784BD18
:10054000089584B58F7DFBCF8091B0008F77809325
:10055000B00008958091B0008F7DF9CF8091900018
:100560008F77809390000895809190008F7DF9CFD0
:1005700080919000877FF5CF8091A0008F77809346
:10058000A00008958091A0008F7DF9CF8091A000F8
:10059000877FF5CF809120018F7780932001089588
:1005A000809120018F7DF9CF80912001877FF5CF49
:1005B000CF93DF93282F30E0F901EB54FD4F849166
:1005C000F901EF5BFC4FD491F901E550FD4FC49167
:1005D000CC23A1F081110E947102EC2FF0E0EE0F0C
:1005E000FF1FE556FD4FA591B491EC91ED2381E0FD
:1005F00090E009F480E0DF91CF91089580E090E0F1
:10060000FACF1F93CF93DF93282F30E0F901EB54FB
:10061000FD4F8491F901EF5BFC4FD491F901E55056
:10062000FD4FC491CC23A9F0162F81110E947102B5
:10063000EC2FF0E0EE0FFF1FEF57FD4FA591B491A7
:100640008FB7F894EC91111108C0D095DE23DC939C
:100650008FBFDF91CF911F910895DE2BF8CFCF93FD
:10066000DF9390E0FC01EF5BFC4F249185509D4FA0
:10067000FC0184918823C9F090E0880F991FFC0148
:10068000E959FD4FA591B491FC01EF57FD4FC5917C
:10069000D49161110DC09FB7F8948C91209582235D
:1006A0008C938881282328839FBFDF91CF91089561
:1006B000623051F49FB7F8943C91822F8095832348
:1006C0008C93E8812E2BEFCF8FB7F894EC912E2BE3
:1006D0002C938FBFEACF865320917B00982F987F71
:1006E000277F922B90937B008770806480937C009F
:1006F00080917A00806480937A0080917A0086FDF0
:10070000FCCF809178009091790008953FB7F894DC
:100710008091C2049091C304A091C404B091C50417
:1007200026B5A89B05C02F3F19F00196A11DB11D4C
:100730003FBFBA2FA92F982F8827BC01CD01620F88
:10074000711D811D911D42E0660F771F881F991F43
:100750004A95D1F708958F929F92AF92BF92CF9210
:10076000DF92EF92FF924B015C010E9486036B01C6
:100770007C010E9486036C197D098E099F09683EE1
:10078000734081059105A8F321E0821A9108A10820
:10079000B10888EEC80E83E0D81EE11CF11C81145C
:1007A0009104A104B10429F7FF90EF90DF90CF905E
:1007B000BF90AF909F908F90089590910002891301
:1007C0000DC0E6E6F2E0E4919FEF90930002E23084
:1007D000E1F038F4EE2381F0E13089F060E00C9430
:1007E0000103E43049F110F1E530C1F79091730055
:1007F0009D7F90937300F2CF10926E00EFCF909197
:100800006F009D7F90936F00E9CF909170009D7F66
:100810009093700091E09093B0009091B100987F18
:1008200094609093B1001092B300D8CF9091710072
:100830009D7F90937100D2CF909172009D7F909395
:100840007200CCCFAF92BF92CF92DF92EF92FF9225
:100850000F931F93CF93DF936C017B018B01040FE8
:10086000151FEB015E01AE18BF08C017D10759F084
:100870006991D601ED91FC910190F081E02DC601C6
:100880001995892B79F7C501DF91CF911F910F91B0
:10089000FF90EF90DF90CF90BF90AF900895FC0154
:1008A000448155816081718180E495E00C9422043B
:1008B000FC01538D448D252F30E0842F90E0821B66
:1008C000930B541710F0CF96089501970895FC01EB
:1008D000918D828D981761F0A28DAE0FBF2FB11D43
:1008E0005D968C91928D9F5F9F73928F90E008959B
:1008F0008FEF9FEF0895FC01918D828D981731F055
:10090000828DE80FF11D858D90E008958FEF9FEFA8
:100910000895FC01918D228D892F90E0805C9F4F7E
:10092000821B91098F739927089580E495E00E94B6
:10093000890421E0892B09F420E0822F0895FC012D
:10094000A48DA80FB92FB11DA35ABF4F2C91848D30
:1009500090E001968F739927848FA689B7892C938D
:10096000A089B1898C91837080648C93938D848DE0
:10097000981306C00288F389E02D80818F7D8083E3
:100980000895EF92FF920F931F93CF93DF93EC01A3
:1009900081E0888F9B8D8C8D98131AC0E889F98926
:1009A000808185FF15C09FB7F894EE89FF89608329
:1009B000E889F98980818370806480839FBF81E0AA
:1009C00090E0DF91CF911F910F91FF90EF900895EC
:1009D000F62E0B8D10E00F5F1F4F0F731127E02EC7
:1009E0008C8D8E110CC00FB607FCFACFE889F989FF
:1009F000808185FFF5CFCE010E949F04F1CFEB8D62
:100A0000EC0FFD2FF11DE35AFF4FF0829FB7F894D2
:100A10000B8FEA89FB8980818062CFCFCF93DF93F0
:100A2000EC01888D8823B9F0AA89BB89E889F98906
:100A30008C9185FD03C0808186FD0DC00FB607FC3B
:100A4000F7CF8C9185FFF2CF808185FFEDCFCE016E
:100A50000E949F04E9CFDF91CF91089580E090E05C
:100A6000892B29F00E94950481110E94000080E0EA
:100A700090E0892B49F080E090E0892B29F00E94DA
:100A8000000081110E94000080E090E0892B49F075
:100A900080E090E0892B29F00E94000081110E94E3
:100AA000000080E090E0892B49F080E090E0892B05
:100AB00029F00E94000081110C9400000895AF926B
:100AC000BF92CF92DF92EF92FF920F931F93CF933B
:100AD000DF936B017A01EC01C756DB4F28813CE0C4
:100AE000389F8001399F100D1124A0907906B12CF8
:100AF00027FF1FC0FB011182108288818F5F8883CE
:100B000088819801280F311D87FD3A95F6012A1535
:100B10003B051CF488818C30C4F18081918104965E
:100B200080349C4908F473C0F60180819181049659
:100B300070C088819801280F311D87FD3A952A15CC
:100B40003B05DCF68881A801480F511D87FD5A95A9
:100B5000FA01EE0FFF1FE40FF51FE751FA4F8081F6
:100B600086FFCBCF8881F801E80FF11D87FDFA954C
:100B7000CF01EE0FFF1FE80FF91FE751FA4F8081F9
:100B800060E08F730E940103B8CF8081918128813A
:100B9000A801420F511D27FD5A959A01FA01EE0F47
:100BA000FF1FE20FF31FE751FA4F21813281820FBD
:100BB000931FF7019183808388819801280F311D4D
:100BC00087FD3A95F901EE0FFF1FE20FF31FE75182
:100BD000FA4F808186FF22C08881080F111D87FD92
:100BE0001A95F801EE0FFF1FE00FF11FE751FA4FC2
:100BF000808161E08F73DF91CF911F910F91FF9002
:100C0000EF90DF90CF90BF90AF900C94010380E401
:100C10009CE9F701918380838FEF8883DF91CF91E7
:100C20001F910F91FF90EF90DF90CF90BF90AF900A
:100C30000895CF92DF92EF92FF92CF93DF93DC0182
:100C40001796CC911797D0E06111DC2F18962C9154
:100C5000189730E0220F331F25563D4F50E040E0FB
:100C6000F90185919491FC01F080BA0190E080E057
:100C7000EF2DEC23ED1310C04F5F5F4F1D96CD900D
:100C8000DD90ED90FC9050976C157D058E059F05CD
:100C900038F36FEF7FEFCB01DF91CF91FF90EF90B3
:100CA000DF90CF9008958F929F92AF92BF92CF9294
:100CB000DF92EF92FF920F931F93CF93DF93CDB705
:100CC000DEB7C054D1400FB6F894DEBF0FBECDBF23
:100CD0002FB7F8944091CA045091CB046091CC0492
:100CE0007091CD042FBFFC010185128523853485C9
:100CF0006A017B01C01AD10AE20AF30A9701860150
:100D0000003D174021053105B0F4FC018189C05C2C
:100D1000DE4F0FB6F894DEBF0FBECDBFDF91CF918F
:100D20001F910F91FF90EF90DF90CF90BF90AF9009
:100D30009F908F9008958C01FC01418752876387B3
:100D400074871482138212821182108262E085817C
:100D50000E942F0361E070E080E090E00E94AB030E
:100D600061E0F80185810E942F0360E0F801858130
:100D70000E940103F80186818551823028F58BE2BB
:100D800091E10197F1F762E0F80185810E942F035C
:100D9000F801828990E08230910538F0880F991F20
:100DA000880F991F05970197F1F7F89460E0C80143
:100DB0000E9419066F3F7F4F8F4F9F4F61F4F801DC
:100DC000118A789480E0A3CF64E170E080E090E045
:100DD0000E94AB03D8CF61E0C8010E9419066F3FA3
:100DE0007F4F8F4F9F4F59F3CE0101967C015E01DB
:100DF0009FEBA91A9EEFB90A670160E0C8010E9443
:100E00001906F601608371838283938361E0C801D0
:100E10000E941906F6016483758386839783F8E040
:100E2000CF0ED11CCA14DB0441F7789430E020E0E7
:100E3000F70180809180A280B380448155816681D2
:100E40007781FFEF8F169F06AF06BF0631F04F3F49
:100E50008FEF58076807780719F4F801118AB2CFA5
:100E6000F90183E0F595E7958A95E1F7E00FF11F29
:100E70008081880F84169506A606B706F0F0808359
:100E80002F5F3F4FF8E0EF0EF11C2832310581F65D
:100E9000F801448120818181280F3327331F82810B
:100EA000280F311D8381820F932F911D9927481799
:100EB000190699F681E0818B2ACF8160E0CF2091DD
:100EC0007604260F3327331F21323105ECF42091AD
:100ED0001605FC0190E080E0243069F082E008957E
:100EE000A09176042191AC014A5A5B4FA40FB52F13
:100EF000B11D2C930196861798F380917604680FA4
:100F00006093760480E0089581E0089510921605BC
:100F100081E0809315051092F00461E084E10E9465
:100F2000010361E085E10E940103E9EBF0E08081CB
:100F30008E7F808380818D7F808388E48093B8005A
:100F400085E48093BC0008951092CF041092CE04E3
:100F500010921D0510923F050E9486078FE692E0D1
:100F60009093C9048093C80480E792E09093C704EB
:100F70008093C6040895CF93DF9391E09093550436
:100F80008823B9F0C091B800D091BA008091BC001C
:100F90008A7B8093BC0060E084E10E94010360E0F2
:100FA00085E10E9401030E948607D093BA00C09396
:100FB000B800DF91CF9108958F929F92AF92BF9228
:100FC000CF92DF92EF92FF920F931F93CF93DF9315
:100FD000D0913F05D13208F0D7C0182FC0913E05FF
:100FE0000E9486036B017C018091160581116BC004
:100FF00082E080931605109315058FEF80931405FA
:1010000010921305D0931205AEE1B5E0E2EFF4E0E3
:1010100080E0D81391C01092F1048091F104CC0FBC
:10102000C82BC093F1048091F004813009F088C08E
:101030001092F0040E9486036B017C018091F10400
:101040008093BB008091180590911905A0911A0515
:10105000B0911B05892B8A2B8B2BA1F00E94860354
:10106000009118051091190520911A0530911B0562
:101070006C197D098E099F0906171707280739077C
:1010800008F442C08091BC0083FDD8CF85EC8093EA
:10109000BC000E9486036B017C01809116058230A2
:1010A00009F450C0809114058F3F09F46FC08091FE
:1010B0001405803209F46CC080911405803309F462
:1010C00069C084E026C08091180590911905A0910F
:1010D0001A05B0911B05892B8A2B8B2B09F484CF21
:1010E0000E9486038090180590901905A0901A051B
:1010F000B0901B056C197D098E099F09861697060D
:10110000A806B90608F070CF809117050E94BB07AA
:1011100085E010921D0510923F0510921C05DF918D
:10112000CF911F910F91FF90EF90DF90CF90BF90E4
:10113000AF909F908F9008959D9191938F5F69CF0D
:1011400085EEA5CF8091180590911905A0911A05FB
:10115000B0911B05892B8A2B8B2B09F49ECF0E9403
:101160008603009118051091190520911A053091F8
:101170001B056C197D098E099F090617170728079B
:10118000390708F08ACFC0CF81E0C3CF80E0C1CF5C
:1011900082E0BFCF83E0BDCFDC0111968D919C91A1
:1011A000DC01ED91FC910280F381E02D41E050E003
:1011B0001995019729F481E00E94DC0791E08111E3
:1011C00090E0892F0895CF93DF93EC018B818823E2
:1011D000A1F0888191E090931C0580933E051092C8
:1011E0001D0510923F0581E00E94DC0791E081110E
:1011F00090E0892FDF91CF9108950E94A40781E0AC
:101200008B83CE010E94E308982F8111E2CFF1CFAA
:101210000895E091CF048091CE04E81730F4F0E017
:10122000E053FB4F808190E008958FEF9FEF08958A
:101230009091CF048091CE042FEF3FEF981748F4A0
:10124000E92FF0E0E053FB4F208130E09F5F909367
:10125000CF04C90108958091CE049091CF04891BD9
:10126000990B0895CF92DF92EF92FF920F931F9305
:10127000CF93DF937C01CB018A0120911C052223AF
:1012800089F0EB016B01C40ED51ECC15DD0569F0AC
:101290006991D701ED91FC910190F081E02DC7019A
:1012A0001995F3CF642F0E945F07C801DF91CF919A
:1012B0001F910F91FF90EF90DF90CF900895CF9303
:1012C000DF931F92CDB7DEB7698320911C052223DF
:1012D000F9F020913F05203258F021E030E0FC0188
:1012E0003383228390E080E00F90DF91CF910895C7
:1012F00080911D05E82FF0E0E25EFA4F998190831E
:101300008F5F80931D0580933F0581E090E0ECCFD7
:1013100061E0CE0101960E945F07F7CF90E080E088
:101320000895FC01208131E030931C0520933E0597
:1013300010921D0510923F058181811109C080E046
:10134000682B8DED95E00E945F0981E00C94DC072D
:1013500088E090E0F5CF21E0FC01218360E00C946F
:1013600091092F923F924F925F926F927F928F924C
:101370009F92AF92BF92CF92DF92EF92FF920F9324
:101380001F93CF93DF93DC011496ED91FC91159799
:10139000EF2B09F422C169012A01EC01888191E057
:1013A00090931C0580933E0510921D0510923F05F9
:1013B000CD010E94CC08782E882309F40EC1F12CAF
:1013C000E12C332433948C819D8186010E191F09F1
:1013D0008017910708F48C0128800E9486034B0136
:1013E0005C0180911605811173C0602EB0E2B017C8
:1013F00010F480E2682E3092160521E0C601801BB1
:10140000910BE816F90608F420E020931505EFEF9C
:10141000E0931405109213058FEF860D809312054B
:101420003092F1048091F104220C282A2092F104D8
:101430008091F004813009F090C01092F0040E9475
:1014400086034B015C018091F1048093BB00809185
:10145000180590911905A0911A05B0911B05892BCB
:101460008A2B8B2BA1F00E948603209118053091C6
:10147000190540911A0550911B05681979098A09C7
:101480009B09261737074807590708F442C080917F
:10149000BC0083FDD8CFF5ECF093BC000E9486031E
:1014A0004B015C0180911605813009F45AC080918E
:1014B0001305861510F460901305A2EFB4E0E0ED7B
:1014C000F4E080E0861551F19D9191938F5FFACF02
:1014D0008091180590911905A0911A05B0911B05EE
:1014E000892B8A2B8B2B09F47CCF0E9486032091B9
:1014F00018053091190540911A0550911B0568197E
:1015000079098A099B09261737074807590708F000
:1015100068CF809117050E94BB07612C1092CF0401
:101520006092CE046016110609F057C042018E0C7D
:101530009F1C5401C501881999098017910798F5D6
:1015400089819A81DC01ED91FC910284F385E02D83
:101550001995F50181935F01EDCF85EE8093BC0075
:101560009DCF8091180590911905A0911A05B09111
:101570001B05892B8A2B8B2B09F494CF0E948603A1
:10158000209118053091190540911A0550911B05BD
:10159000681979098A099B092617370748075907E7
:1015A00008F080CFB6CFE00EF11EEC14FD0408F475
:1015B0000ACF872DDF91CF911F910F91FF90EF9070
:1015C000DF90CF90BF90AF909F908F907F906F9063
:1015D0005F904F903F902F900895712CEACFCF935A
:1015E000DF9300D0CDB7DEB78B8322E030E0AE01D1
:1015F0004F5F5F4FBE016D5F7F4F80918706909177
:1016000088060E94B10989819A819827892798279D
:101610000F900F900F90DF91CF9108950F931F932C
:10162000CF938C01C62F0E9491096C2F6460C80172
:101630000E9491096C2F6B7FC8010E94910983EC75
:1016400090E00197F1F7CF911F910F9108950F93BB
:101650001F93CF93DF938C01D62FC42F607F642B11
:101660000E940E0B80E1D89FB00111246C2BC801A1
:10167000DF91CF911F910F910C940E0BCF93DF93BD
:10168000EC0162E370E080E090E00E94AB0360E078
:10169000CE010E94910965E070E080E090E00E9438
:1016A000AB0360E3CE010E940E0B65E070E080E0CA
:1016B00090E00E94AB0360E3CE010E940E0B83E535
:1016C00092E00197F1F760E3CE010E940E0B61E01A
:1016D00070E080E090E00E94AB0360E2CE010E94E7
:1016E0000E0B40E068E2CE010E94270B40E068E06C
:1016F000CE010E94270B40E061E0CE010E94270B43
:1017000062E070E080E090E00E94AB0340E066E0C1
:10171000CE010E94270B40E06CE0CE01DF91CF911B
:101720000C94270BFC0101900020E9F73197AF01E1
:10173000481B590BBC0180E495E00C942204CF9324
:10174000DF930E94920BEC0187E492E00E94920BDF
:101750008C0F9D1FDF91CF910895CF93DF93EC0104
:1017600088819981009711F00E944327198218827D
:101770001D821C821B821A82DF91CF910895FC0189
:1017800080819181009711F00C94432708950F9365
:101790001F93CF93DF93EC0188819981009759F0D3
:1017A0002A813B812617370730F081E0DF91CF9106
:1017B0001F910F9108958B016F5F7F4F0E94CC277F
:1017C000009759F0998388831B830A832C813D817C
:1017D000232B59F7FC011082E8CF80E0E7CFEF928E
:1017E000FF920F931F93CF93DF936115710541F41F
:1017F00080E0DF91CF911F910F91FF90EF900895BE
:1018000041155105B1F07B01EC010C811D81040FE4
:10181000151FB8010E94C70B882351F32881398115
:101820008C819D81B701820F931F0E94B6281D8372
:101830000C8381E0DECFCF93DF93EC01FB010190BD
:101840000020E9F73197AF01461B570B0E94EF0BC1
:10185000811103C0CE010E94AD0BCE01DF91CF916B
:101860000895CF93DF93EC01FB01448155816081A2
:1018700071810E94EF0B811103C0CE010E94AD0B5C
:10188000CE01DF91CF910895EF92FF920F931F93B6
:10189000CF93DF93EC017B018A01BA010E94C70B51
:1018A00081110BC0CE010E94AD0BCE01DF91CF9113
:1018B0001F910F91FF90EF9008951D830C83B70146
:1018C000888199810E94B628F0CFFB010190002009
:1018D000E9F73197AF01461B570B0C94440C0F935B
:1018E0001F93CF93DF93CDB7DEB762970FB6F8940F
:1018F000DEBF0FBECDBF8C01CB01F801118210827B
:1019000013821282158214824AE0BE016F5F7F4FFC
:101910000E946121BE016F5F7F4FC8010E94650C6C
:1019200062960FB6F894DEBF0FBECDBFDF91CF91A8
:101930001F910F910895FB01DC0111961C921E92DC
:1019400013961C921E92129715961C921E92149733
:101950008617970749F0608171816115710521F043
:10196000448155810C94440C0895FC01118210822D
:101970001382128215821482FB0101900020E9F784
:101980003197AF01461B570B0C94440CCF93DF9358
:10199000EC016115710549F468E772E0CE010E941F
:1019A000B50CCE01DF91CF9108956130710519F426
:1019B0006AE472E0F3CF60E772E0F0CFBF92CF92BB
:1019C000DF92EF92FF920F931F93CF93DF9300D09C
:1019D00000D0CDB7DEB76C018B017A01F7018481AD
:1019E0009581449740F441E050E063ED73E0C70116
:1019F0000E94EF0BF3CFF801E15EFD4F608160685C
:101A000040E0C6010E94270B69E472E0CE01019616
:101A10000E94B50CF7010481158101151105D9F05B
:101A20000431110510F004E110E0F70160817181CB
:101A3000FB01E00FF11FB0801082CE01019661150D
:101A4000710501F10E94650CF70180819181080FF9
:101A5000191FF801B08210E000E08D819E81081707
:101A6000190798F489819A8160E0009721F0800F2E
:101A7000911FFC01608141E0C6010E94270B0F5FAE
:101A80001F4FEBCF0E94AD0BDFCFCE0101960E941E
:101A9000BF0B26960FB6F894DEBF0FBECDBFDF9109
:101AA000CF911F910F91FF90EF90DF90CF90BF905B
:101AB0000895CF93DF93EC016115710549F46CE44F
:101AC00072E0CE010E94B50CCE01DF91CF91089556
:101AD0006130710519F463E572E0F3CF6BE572E0F4
:101AE000F0CFEF92FF920F931F93CF93DF93CDB779
:101AF000DEB7E3970FB6F894DEBF0FBECDBF7C0113
:101B0000CB01BA01F7011182108213821282158271
:101B1000148242E0420F8E010F5F1F4F0E9443214B
:101B2000009789F0BC01C7010E94650CE3960FB6CF
:101B3000F894DEBF0FBECDBFDF91CF911F910F9103
:101B4000FF90EF900895C7010E94AD0BEFCF85ED98
:101B50008093BC008091180590911905A0911A05F9
:101B6000B0911B050796A11DB11D23E0B695A79561
:101B7000979587952A95D1F72091BC0024FD03C045
:101B8000109216050895409118055091190560911D
:101B90001A0570911B05452B462B472B69F30097BF
:101BA000A105B10541F02AE22A95F1F700C001979D
:101BB000A109B109E1CF809117050C94BB07CF9221
:101BC000DF92EF92FF920F931F93CF93DF93CDB7E6
:101BD000DEB7EA970FB6F894DEBF0FBECDBF809197
:101BE000BD049091BE040091BF041091C004081779
:101BF00019070CF48C018091BB049091BC04081768
:101C000019070CF48C018091B9049091BA0408175B
:101C100019070CF48C01109354040093530461E0F1
:101C20000115110509F060E080E30E94010361E005
:101C30000130110509F060E081E30E94010361E0D9
:101C40000230110509F060E082E30E9401030230D6
:101C5000110509F0F3C5809100028F3209F449C4DF
:101C60008F3F09F46FC464E872E0CE0101960E94D0
:101C7000B50CAE014F5F5F4F70E060E082E896E028
:101C80000E94DE0CCE0101960E94BF0B6091BD0444
:101C90007091BE04CE0189960E94C60C6091BF046B
:101CA0007091C004CE0183960E94C60C64E972E074
:101CB000CE0101960E94B50CBE016D5D7F4FCE0135
:101CC00001960E94310C69E972E00E941B0CBE0172
:101CD000675D7F4F0E94310CBC01CE018F960E9440
:101CE0009B0CAE01415D5F4F61E070E082E896E0E1
:101CF0000E94DE0CCE018F960E94BF0BCE01019692
:101D00000E94BF0BCE0183960E94BF0BCE01899625
:101D10000E94BF0B6091B9047091BA04CE018996FC
:101D20000E94C60C6091BB047091BC04CE018396E6
:101D30000E94C60C60EA72E0CE0101960E94B50CCA
:101D4000BE016D5D7F4FCE0101960E94310C66EAA7
:101D500072E00E941B0CBE01675D7F4F0E94310C38
:101D6000BC01CE018F960E949B0CAE01415D5F4F7E
:101D700062E070E082E896E00E94DE0CCE018F9671
:101D80000E94BF0BCE0101960E94BF0BCE0183962D
:101D90000E94BF0BCE0189960E94BF0B6091530435
:101DA00070915404CE0183960E94590D6EEA72E040
:101DB000CE0101960E94B50CBE016D5D7F4FCE0134
:101DC00001960E94310CBC01CE0189960E949B0CA9
:101DD000AE01475D5F4F63E070E082E896E00E94ED
:101DE000DE0CCE0189960E94BF0BCE0101960E94A7
:101DF000BF0BCE0183960E94BF0B67EB72E0CE0152
:101E000001960E94B50CAE014F5F5F4F70E060E03D
:101E100080E896E00E94DE0CCE0101960E94BF0B86
:101E200040910102509102026091030270910402FC
:101E300020E0CE018F960E94710D409105025091D5
:101E40000602609107027091080220E0CE01899697
:101E50000E94710D4091090250910A0260910B029B
:101E600070910C0221E0CE0183960E94710D60EF0B
:101E700072E0CE0101960E94B50CBE016D5D7F4FF0
:101E8000CE0101960E94310C66EC72E00E941B0CA0
:101E9000BE01675D7F4F0E94310C6AEC72E00E94C8
:101EA0001B0CBE01615D7F4F0E94310CBC01CE0155
:101EB000C5960E949B0CAE014B5C5F4F61E070E0E9
:101EC00080E896E00E94DE0CCE01C5960E94BF0B12
:101ED000CE0101960E94BF0BCE0183960E94BF0BDC
:101EE000CE0189960E94BF0BCE018F960E94BF0B38
:101EF0006091A4047091A504CE0189960E946F0C94
:101F00006091A6047091A704CE0183960E946F0C85
:101F10006EEC72E0CE0101960E94B50CBE016D5DC3
:101F20007F4FCE0101960E94310C63ED72E00E945A
:101F30001B0CBE01675D7F4F0E94310CBC01CE01BE
:101F40008F960E949B0CAE01415D5F4F62E070E096
:101F500080E896E00E94DE0CCE018F960E94BF0BB7
:101F6000CE0101960E94BF0BCE0183960E94BF0B4B
:101F7000CE0189960E94BF0B6091BF047091C0048E
:101F8000CE0183960E94590D6EEA72E0CE01019651
:101F90000E94B50CBE016D5D7F4FCE0101960E947F
:101FA000310CBC01CE0189960E949B0CAE01475DAD
:101FB0005F4F63E070E080E896E00E94DE0CCE01A7
:101FC00089960E94BF0BCE0101960E94BF0BCE01E5
:101FD00083960E94BF0B69ED72E0CE0101960E94CC
:101FE000B50CAE014F5F5F4F70E060E08EE796E0AA
:101FF0000E94DE0CCE0101960E94BF0B40910D02A3
:1020000050910E0260910F027091100221E0CE01FA
:1020100089960E94710D6091AF047091B004CE0159
:1020200083960E946F0C69EE72E0CE0101960E94C9
:10203000B50CBE016D5D7F4FCE0101960E94310C43
:102040006FEE72E00E941B0CBE01675D7F4F0E9425
:10205000310CBC01CE018F960E949B0CAE01415DFC
:102060005F4F61E070E08EE796E00E94DE0CCE01EB
:102070008F960E94BF0BCE0101960E94BF0BCE012E
:1020800083960E94BF0BCE0189960E94BF0B609180
:10209000AB047091AC04CE0189960E946F0C6091E4
:1020A000AD047091AE04CE0183960E946F0C63EF75
:1020B00072E0CE0101960E94B50CBE016D5D7F4FAE
:1020C000CE0101960E94310C6AEF72E00E941B0C57
:1020D000BE01675D7F4F0E94310CBC01CE018F961F
:1020E0000E949B0CAE01415D5F4F62E070E08EE7A5
:1020F00096E00E94DE0CCE018F960E94BF0BCE01AF
:1021000001960E94BF0BCE0183960E94BF0BCE01A9
:1021100089960E94BF0B6091BD047091BE04CE01F0
:1021200089960E94590D6091A9047091AA04CE016C
:1021300083960E946F0C6FEF72E0CE0101960E94B1
:10214000B50CBE016D5D7F4FCE0101960E94310C32
:1021500063ED73E00E941B0CBE01675D7F4F0E9420
:10216000310CBC01CE018F960E949B0CAE01415DEB
:102170005F4F63E070E08EE796E00E94DE0CCE01D8
:102180008F960E94BF0BCE0101960E94BF0BCE011D
:1021900083960E94BF0BCE0189960E94BF0B64E01C
:1021A00073E0CE0101960E94B50CAE014F5F5F4F08
:1021B00070E060E08CE796E00E94DE0CCE010196B4
:1021C0000E94BF0B8091B30406E612E0882311F051
:1021D00002E612E08091B40456E6E52E52E0F52EB8
:1021E000882321F042E6E42E42E0F42E6EE073E014
:1021F000CE0101960E94B50CBE016F5F7F4FCE01EC
:1022000083960E949B0CB701CE0183960E941B0C03
:1022100064E173E00E941B0CB8010E941B0CBC011E
:10222000CE0189960E949B0CAE01475D5F4F61E035
:1022300070E08CE796E00E94DE0CCE0189960E9449
:10224000BF0BCE0183960E94BF0BCE0101960E9468
:10225000BF0B6091B1047091B204CE0183960E94CD
:102260006F0C6AE173E0CE0101960E94B50CBE01CD
:102270006D5D7F4FCE0101960E94310CBC01CE01F5
:1022800089960E949B0CAE01475D5F4F62E070E053
:102290008CE796E00E94DE0CCE0189960E94BF0B6F
:1022A000CE0101960E94BF0BCE0183960E94BF0B08
:1022B0006091BB047091BC04CE0183960E94590DBD
:1022C0006EEA72E0CE0101960E94B50CBE016D5D12
:1022D0007F4FCE0101960E94310CBC01CE01899640
:1022E0000E949B0CAE01475D5F4F63E070E08CE79E
:1022F00096E00E94DE0CCE0189960E94BF0BCE01B3
:1023000001960E94BF0BCE0183960E94BF0B60E234
:1023100073E0CE0101960E94B50CAE014F5F5F4F96
:1023200070E060E08AE796E00E94DE0CCE01019644
:102330000E94BF0B609115027091160280911702E6
:10234000909118021CA21BA21EA21DA218A61FA2D9
:102350002AE0AE014F5F5F4F0E946C21BE016F5FAC
:102360007F4FCE0183960E94650C62E373E0CE013D
:1023700001960E94B50CBE016D5D7F4FCE010196A6
:102380000E94310C69E373E00E941B0CBC01CE017A
:1023900089960E949B0CAE01475D5F4F61E070E043
:1023A0008AE796E00E94DE0CCE0189960E94BF0B60
:1023B000CE0101960E94BF0BCE0183960E94BF0BF7
:1023C0008091B50402E712E0882311F009E612E0DB
:1023D0006CE373E0CE0101960E94B50CBE016F5F05
:1023E0007F4FCE0183960E949B0CB801CE0183964D
:1023F0000E941B0CBC01CE0189960E949B0CAE0171
:10240000475D5F4F62E070E08AE796E00E94DE0C75
:10241000CE0189960E94BF0BCE0183960E94BF0B0E
:10242000CE0101960E94BF0B8091B6040AE712E02C
:10243000882311F007E712E08091B70430E8E32E1B
:1024400032E0F32E882321F02EE7E22E22E0F22E56
:102450008091B80490E8C92E92E0D92E882321F00B
:1024600082E8C82E82E0D82E60EF72E0CE0101969D
:102470000E94B50CBE016F5F7F4FCE0183960E9414
:102480009B0CB601CE0183960E941B0CB7010E94E3
:102490001B0C65E473E00E941B0CB8010E941B0C2E
:1024A000BC01CE0189960E949B0CAE01475D5F4F37
:1024B00063E070E08AE796E00E94DE0CCE01899628
:1024C0000E94BF0BCE0183960E94BF0BCE010196E6
:1024D0000E94BF0BEA960FB6F894DEBF0FBECDBFC9
:1024E000DF91CF911F910F91FF90EF90DF90CF90F0
:1024F0000895E6E6F2E0149117FDB5CB61E08FE2B6
:102500000E942F03112309F4F1C0123009F005C114
:102510008091B100887F83608093B10089EF8093C0
:10252000B3008FEF9FEFDC018093A0049093A10490
:10253000A093A204B093A304809170008260809362
:10254000700091CB8FE280930002E6E6F2E01491F6
:10255000812F1F3F09F487CB123009F468C060F463
:10256000112379F1113009F444C087FD7CCB61E07F
:102570008FE20E942F03C9CF143009F499C008F4E8
:1025800078C0153091F710922001109221018091AE
:1025900021018860809321018091210181608093D5
:1025A0002101EAE2F3E0E491F0E0EE0FFF1FEF57C4
:1025B000FD4F85919491E0E7F3E0E491E0933A04D4
:1025C0009DCF14BC15BC84B5826084BD85B5816087
:1025D00085BDEAE2F3E0E491F0E0EE0FFF1FEF5774
:1025E000FD4F85919491E0E7F3E0E491E0933E04A0
:1025F00085CF1092800010928100809181008860C8
:102600008093810080918100816080938100EAE263
:10261000F3E0E491F0E0EE0FFF1FEF57FD4F8591DF
:102620009491E0E7F3E0E491E0933D0467CF1092EA
:10263000B0001092B1008091B00082608093B00031
:102640008091B10081608093B100EAE2F3E0E4910F
:10265000F0E0EE0FFF1FEF57FD4F8591949190939F
:102660009E0480939D04E0E7F3E0E491E0939F04EF
:1026700045CF109290001092910080919100886057
:102680008093910080919100816080939100EAE2B3
:10269000F3E0E491F0E0EE0FFF1FEF57FD4F85915F
:1026A0009491E0E7F3E0E491E0933C0413E026CF5B
:1026B0001092A0001092A1008091A10088608093E8
:1026C000A1008091A10081608093A100EAE2F3E083
:1026D000E491F0E0EE0FFF1FEF57FD4F85919491CD
:1026E000E0E7F3E0E491E0933B0408CF85B5887F11
:1026F000836085BD8CE787BD8FEF9FEFDC01809302
:102700004F0490935004A0935104B09352048091CD
:102710006E00826080936E00A6CA1130E9F4809149
:102720008100887F8160809381008FE39FE1909397
:102730008900809388008FEF9FEFDC0180934B042A
:1027400090934C04A0934D04B0934E0480916F007D
:10275000826080936F0087CA1330E9F48091910002
:10276000887F8160809391008FE39FE1909399002F
:10277000809398008FEF9FEFDC0180934704909344
:102780004804A0934904B0934A0480917100826088
:102790008093710068CA1430E9F48091A100887FA9
:1027A00081608093A1008FE39FE19093A9008093C3
:1027B000A8008FEF9FEFDC018093430490934404C3
:1027C000A0934504B0934604809172008260809388
:1027D000720049CA1530E9F480912101887F816037
:1027E000809321018FE39FE1909329018093280139
:1027F0008FEF9FEFDC0180933F0490934004A09300
:102800004104B0934204809173008260809373000E
:102810002ACA123089F034F4112361F0113009F022
:1028200022CA83CF143009F4BECF0CF49DCF1530EB
:10283000C9F219CA8FE35FCF8FE371CE8FE20E9496
:10284000DD0311CA0F931F93CF93DF93182FEB0172
:1028500060E00E94010383E090E00197F1F761E0FE
:10286000812F0E94010383E290E00197F1F760E07D
:10287000812F0E940103FE01EF5BFC4F6491FE017A
:10288000E550FD4FE491F0E0EE0FFF1FE556FD4FE0
:102890008591949100E315E720E030E0462F0E94F7
:1028A00058176115710581059105B9F06F5F7F4F6C
:1028B0008F4F9F4F9F70611571058105910569F0DC
:1028C0002AE330E040E050E00E943725CA01B90118
:1028D000DF91CF911F910F91089520E931E040E001
:1028E00050E0F4CF1F920F920FB60F9211242F9346
:1028F0003F938F939F93AF93BF938091CA0490911E
:10290000CB04A091CC04B091CD043091C10423E05C
:10291000230F2D3758F50196A11DB11D2093C10439
:102920008093CA049093CB04A093CC04B093CD04BD
:102930008091C2049091C304A091C404B091C504D5
:102940000196A11DB11D8093C2049093C304A0936E
:10295000C404B093C504BF91AF919F918F913F91F3
:102960002F910F900FBE0F901F90189526E8230F00
:102970000296A11DB11DD2CF1F920F920FB60F92DA
:1029800011240BB60F922F933F934F935F936F9346
:102990007F938F939F93AF93BF93EF93FF93809118
:1029A000A0049091A104A091A204B091A304892B4A
:1029B0008A2B8B2BE1F190919F04E0919D04F09183
:1029C0009E048081892780838091A0049091A10436
:1029D000A091A204B091A304181619061A061B06AA
:1029E0009CF48091A0049091A104A091A204B091C4
:1029F000A3040197A109B1098093A0049093A104B5
:102A0000A093A204B093A304FF91EF91BF91AF9163
:102A10009F918F917F916F915F914F913F912F91F6
:102A20000F900BBE0F900FBE0F901F9018958091C6
:102A300000020E94DD03E8CF1F920F920FB60F92A3
:102A400011240BB60F922F933F934F935F936F9385
:102A50007F938F939F93AF93BF93EF93FF9380E404
:102A600095E00E949F04FF91EF91BF91AF919F91DC
:102A70008F917F916F915F914F913F912F910F9027
:102A80000BBE0F900FBE0F901F9018951F920F92C4
:102A90000FB60F9211240BB60F922F938F939F9323
:102AA000EF93FF93E0915005F09151058081E09103
:102AB0005605F091570582FD1DC090818091590502
:102AC0008F5F8F7320915A05821741F0E09159056D
:102AD000F0E0E05CFA4F958F80935905FF91EF91FC
:102AE0009F918F912F910F900BBE0F900FBE0F9063
:102AF0001F9018958081F2CF1F920F920FB60F9200
:102B000011240BB60F922F933F934F935F936F93C4
:102B10007F938F939F93AF93BF93EF93FF9348E27D
:102B200051E064E271E090E080E00E945F05FF9177
:102B3000EF91BF91AF919F918F917F916F915F9135
:102B40004F913F912F910F900BBE0F900FBE0F90A2
:102B50001F9018951F920F920FB60F9211240BB66B
:102B60000F922F933F934F935F936F937F938F9326
:102B70009F93AF93BF93EF93FF9348EA50E064EACB
:102B800070E083E090E00E945F05FF91EF91BF91BC
:102B9000AF919F918F917F916F915F914F913F91F5
:102BA0002F910F900BBE0F900FBE0F901F90189596
:102BB0001F920F920FB60F9211240BB60F922F9304
:102BC0003F934F935F936F937F938F939F93AF93B5
:102BD000BF93EF93FF9348E950E064E970E082E02F
:102BE00090E00E945F05FF91EF91BF91AF919F919F
:102BF0008F917F916F915F914F913F912F910F90A6
:102C00000BBE0F900FBE0F901F9018951F920F9242
:102C10000FB60F9211240BB60F922F933F934F9341
:102C20005F936F937F938F939F93AF93BF93EF9334
:102C3000FF9348E850E064E870E081E090E00E9493
:102C40005F05FF91EF91BF91AF919F918F917F9120
:102C50006F915F914F913F912F910F900BBE0F900D
:102C60000FBE0F901F9018951F920F920FB60F92E4
:102C700011240BB60F922F933F934F935F936F9353
:102C80007F938F939F93AF93BF93EF93FF93809125
:102C9000B900887F803609F44DC008F040C0883202
:102CA00009F4A9C028F5803109F49DC0C8F488232F
:102CB00009F4FBC0883009F496C0FF91EF91BF91F1
:102CC000AF919F918F917F916F915F914F913F91C4
:102CD0002F910F900BBE0F900FBE0F901F90189565
:102CE000883109F488C0803241F78093140514C0FC
:102CF000803409F49DC040F48033B9F38833E9F699
:102D00008093140585ECB0C0803509F485C0883502
:102D100009F496C0883489F60E94A70DCECF883971
:102D200009F48CC038F5883729F050F4883611F052
:102D3000803719F683E0809316051092980457C0E7
:102D4000883809F47BC0803919F0803809F0B5CF94
:102D500080919804803208F071C0E091980481E07D
:102D60008E0F809398048091BB00F0E0E858FB4FF1
:102D700080833DC0803B39F0E0F4803A09F479C0AB
:102D8000883A09F09ACF84E0809316051092770470
:102D900010927604E091C804F091C90419958091CD
:102DA000760481110FC081E080937604109256045E
:102DB00009C0803C09F4A6CF883C09F4A3CF883B26
:102DC00009F07BCFE091770481E08E0F8093770448
:102DD000F0E0EA5AFB4F80818093BB00909177042A
:102DE0008091760429C08091F1048093BB0085EC2A
:102DF0008093BC0062CF90911305809112059817C3
:102E000058F5E091130581E08E0F80931305F0E0F3
:102E1000EE50FB4F8081E9CFE091130581E08E0FEA
:102E2000809313058091BB00F0E0EE50FB4F808350
:102E300090911305809112059817C8F285E8D8CFB4
:102E4000E091130581E08E0F809313058091BB0004
:102E5000F0E0EE50FB4F80838091150581115CCF2F
:102E600081E08093F00484EA8093BC001092160500
:102E700024CF85EC8093BC001092160580919804B5
:102E8000803230F4E0919804F0E0E858FB4F108273
:102E90006091980470E0E091C604F091C70488E75F
:102EA00094E019951092980408CF1092140534CF2D
:102EB000CF92DF92EF92FF920F931F93E82FF92F9B
:102EC00005C0015011092109310961F19081962352
:102ED0009417B9F305C0015011092109310911F105
:102EE000908196239413F7CFC12CD12CE12CF12C97
:102EF0000AC08FEFC81AD80AE80AF80A0C151D058F
:102F00002E053F0579F080818623841791F36C2D7F
:102F10007D2D8E2D9F2D1F910F91FF90EF90DF90B3
:102F2000CF90089560E070E080E090E01F910F91F5
:102F3000FF90EF90DF90CF9008951092430510928C
:102F4000420588EE93E0A0E0B0E0809344059093C2
:102F50004505A0934605B093470527E232E030933C
:102F600041052093400525EC30E030934D0520933A
:102F70004C0524EC30E030934F0520934E0520ECB7
:102F800030E0309351052093500521EC30E0309330
:102F900053052093520522EC30E0309355052093E1
:102FA000540526EC30E030935705209356051092D7
:102FB000590510925A0510925B0510925C0510920B
:102FC000E0051092DF058093E1059093E205A09360
:102FD000E305B093E40589E392E09093DE058093E6
:102FE000DD0582E08093B80626E12093B906E3E48C
:102FF000F3E0E491E093BA06EDEFF2E0E491E093C0
:10300000BB0680E89EE3A0E0B0E08093C00690930A
:10301000C106A093C206B093C30633E03093A50661
:103020002093A606E4E4F3E0E491E093A706EEEF34
:10303000F2E0E491E093A8068093AD069093AE068B
:10304000A093AF06B093B006109288061092870640
:1030500080917906803368F591E0980F9093790616
:103060008093840690E0FC01EE0FFF1FE80FF91F2C
:10307000E751FA4F88EB9BE09283818387E280934C
:10308000820681E08093830696E290938006809387
:10309000810695E290937E0680937F0694E290935A
:1030A0007C0680937D0693E290937A0680937B065C
:1030B00008958FEF80938406E1CFCF93DF93CDB750
:1030C000DEB760970FB6F894DEBF0FBECDBF789421
:1030D00084B5826084BD84B5816084BD85B582601D
:1030E00085BD85B5816085BD80916E0081608093CE
:1030F0006E00109281008091810082608093810037
:103100008091810081608093810080918000816046
:10311000809380008091B10084608093B1008091A1
:10312000B00081608093B0008091910082608093B4
:103130009100809191008160809391008091900036
:103140008160809390008091A10082608093A100B3
:103150008091A10081608093A1008091A000816096
:103160008093A00080912101826080932101809151
:1031700021018160809321018091200181608093F1
:10318000200180917A00846080937A0080917A0097
:10319000826080937A0080917A00816080937A00C7
:1031A00080917A00806880937A001092C100E0914B
:1031B0005005F091510582E08083E0914C05F0913B
:1031C0004D051082E0914E05F0914F0580E180831E
:1031D00010925805E0915405F091550586E08083E2
:1031E000E0915205F0915305808180618083E091E8
:1031F0005205F0915305808188608083E0915205EB
:10320000F0915305808180688083E0915205F091B0
:10321000530580818F7D808364E670E080E090E0DC
:103220000E94AB0383E793E00E949F0B0E94A407D8
:1032300088E48093B80062E084E00E942F0362E09B
:1032400085E00E942F0362E086E00E942F0362E087
:1032500087E00E942F0360E089E00E942F0360E076
:103260008BE00E942F0316E161E0812F0E942F0363
:1032700060E0812F0E9401031F5F1333A9F761E013
:1032800088E00E942F0361E08AE00E942F0360E043
:1032900088E00E94010360E08AE00E94010382E866
:1032A00096E00E943E0B82E896E00E94AB0980E81F
:1032B00096E00E943E0B80E896E00E94AB098EE704
:1032C00096E00E943E0B8EE796E00E94AB098CE7E9
:1032D00096E00E943E0B8CE796E00E94AB098AE7DD
:1032E00096E00E943E0B8AE796E00E94AB096AE8EE
:1032F00073E0CE0101960E94B50CAE014F5F5F4FA7
:1033000070E060E082E896E00E94DE0CCE0101965B
:103310000E94BF0B6CE973E0CE0101960E94B50CD0
:10332000AE014F5F5F4F61E070E082E896E00E947F
:10333000DE0CCE0101960E94BF0B6FEA73E0CE0156
:1033400001960E94B50CAE014F5F5F4F62E070E0E6
:1033500082E896E00E94DE0CCE0101960E94BF0B2F
:1033600061EC73E0CE0101960E94B50CAE014F5F97
:103370005F4F63E070E082E896E00E94DE0CCE01D1
:1033800001960E94BF0B67EB72E0CE0101960E948E
:10339000B50CAE014F5F5F4F70E060E080E896E0F3
:1033A0000E94DE0CCE0101960E94BF0B69ED72E017
:1033B000CE0101960E94B50CAE014F5F5F4F70E0E9
:1033C00060E08EE796E00E94DE0CCE0101960E943E
:1033D000BF0B64E073E0CE0101960E94B50CAE0114
:1033E0004F5F5F4F70E060E08CE796E00E94DE0C7C
:1033F000CE0101960E94BF0B60E273E0CE01019600
:103400000E94B50CAE014F5F5F4F70E060E08AE74D
:1034100096E00E94DE0CCE0101960E94BF0B62E096
:103420008091B8060E942F032FB7F8948091CA04A8
:103430009091CB04A091CC04B091CD042FBF805DBE
:103440009740A109B1098093BC069093BD06A09353
:10345000BE06B093BF0617E31093C50662E08091E5
:10346000A5060E942F032FB7F8948091CA0490916B
:10347000CB04A091CC04B091CD042FBF805D9740C8
:10348000A109B1098093A9069093AA06A093AB065F
:10349000B093AC061093B20683E0809389068091C6
:1034A000870690918806009711F00E94432786E0D6
:1034B00090E00E94A7268C0187E7D8018C938DEDC0
:1034C00095E012969C938E93119713961C921397E6
:1034D00080E290E015969C938E9314971093880643
:1034E000009387060E94A40781E0F8018383C80146
:1034F0000E94E308182F8111ADC010E01093A804BA
:1035000080918406803308F052C061E08CE00E9414
:103510002F0380918406282F30E0F901EE0FFF1F62
:10352000E20FF31FE751FA4F9081907C9C609083EB
:1035300010928506109286062CE0622F0E94932638
:10354000829FB001112430E020E0AB01420F531FF5
:10355000FA01EE0FFF1FE40FF51FE751FA4F9081BC
:1035600096FD17C02F5F3F4F2C30310571F781302A
:1035700009F0D2C01092800082E080938100109206
:10358000850010928400B19A80916F0082608093D0
:103590006F00E09184068E2F90E0FC01EE0FFF1F7C
:1035A000E80FF91FE751FA4F8081806480838CEC2B
:1035B00093E00E94920B8091A804882309F4D8C05C
:1035C0008DE493E00E949F0B85ED93E00E949F0B9A
:1035D00061E086E10E94010361E086E20E9401034E
:1035E00061E080E20E94010361E080E30E94010348
:1035F0006CED75E080E090E00E94AB0301E083EBAE
:1036000096E00E945306C12CD12C60ECE62E6FE7A9
:10361000F62E882331F083EB96E00E94F8016B01CF
:103620007C0183EB96E00E945306882309F414C6BC
:103630008091B9068B3038F08D3008F49CC08551EC
:10364000823008F474C5812C912C50ECA52E5FE7D4
:10365000B52EAFC080ED8C8721E030E0AE014F5F2A
:103660005F4FBE01645F7F4F80918706909188060F
:103670000E94B1098981853509F03FCF8AEA0E940D
:10368000EF0A90938B0680938A068CEA0E94EF0AD9
:1036900090938D0680938C068EEA0E94EF0A909399
:1036A0008F0680938E0680EB0E94EF0A90939B0614
:1036B00080939A0682EB0E94EF0A90939D06809376
:1036C0009C0684EB0E94EF0A90939F0680939E06CF
:1036D00086EB0E94EF0A909391068093900688EB08
:1036E0000E94EF0A90939306809392068AEB0E94C1
:1036F000EF0A90939506809394068CEB0E94EF0A54
:1037000090939706809396068EEB0E94EF0A909313
:10371000990680939806F2CE823061F41092900060
:1037200080939100109295001092940088BB809332
:1037300071002FCF833069F41092A00082E0809353
:10374000A1001092A5001092A40089BB8093720082
:1037500020CF81111ECF1092200182E080932101A1
:1037600010922501109224018ABB8093730011CF1F
:1037700080E593E027CF6091B40670E090E080E0B0
:103780000E941A242DEC3CEC4CEC5DE30E94792461
:103790004B015C016091B30670E090E080E00E9414
:1037A0001A249B01AC01C501B4010E949B254B0169
:1037B0005C01A7019601C701B6010E947E268823FD
:1037C00009F458C5A5019401C501B4010E947E26E3
:1037D000811108C08092050290920602A092070211
:1037E000B09208028091A804882309F4EBC1FEE29C
:1037F000FB8784EF8A87E0908706F0908806D701E0
:1038000014968D919C911597029708F111968D91C0
:103810009C9112972C9100931C0520933E051092C9
:103820001D0510923F05DC01ED91FC910280F381B2
:10383000E02D41E050E0BE01665F7F4F1995019792
:1038400031F4BE01655F7F4FC7010E94CC0865E07F
:1038500070E080E090E00E94AB0386EF0E94EF0AE8
:103860006C01F12CE12C809189068295880F880FDC
:10387000807C8C5C898784EF8887A0908706B090D5
:103880008806F501848195810297F8F08181928103
:10389000208100931C0520933E0510921D05109277
:1038A0003F05DC01ED91FC910280F381E02D41E0C8
:1038B00050E0BE01685F7F4F1995019731F4BE015A
:1038C000675F7F4FC5010E94CC08809189068111F6
:1038D00040C465E070E080E090E00E94AB0386EFBA
:1038E0000E94EF0AB0E0A0E08824982EA92EBA2EFC
:1038F00088EF8F8321E030E0AE014F5F5F4FBE0164
:10390000695F7F4F80918706909188060E94B10978
:103910008981A5019401282B2D873E874F87588BDD
:103920001091890680919E0690919F06A7019601AD
:10393000281B390B41095109A0919C06B0919D06A5
:103940000E9456256B017C014FE0F594E794D794D3
:10395000C7944A95D1F76091960670919706072E05
:10396000000C880B990B5BE0660F771F881F991F6F
:103970005A95D1F72091980630919906032E000CA4
:10398000440B550B2C0D3D1D4E1D5F1D0E94372510
:10399000C20ED31EE41EF51E30EAC31A3FE0D30A5E
:1039A000E108F108A7019601C701B6010E9483262C
:1039B0002B013C016CE075946794579447946A9589
:1039C000D1F7A0918E06B0918F060E9461254B0120
:1039D0005C017DE0B594A794979487947A95D1F78C
:1039E000A0919006B0919106A30192010E946125D9
:1039F0009C01552737FD5095452F280D391D4A1D2F
:103A00005B1D2E5F3F4F4F4F5F4FF2E0559547953F
:103A100037952795FA95D1F730584F4F5F4FA091C2
:103A20009A06B0919B060E9456254B015C01AFE0BF
:103A3000B694A79497948794AA95D1F788E090E0DC
:103A4000811B91092D853E854F85588904C0569567
:103A50004795379527958A95D2F72D873E874F87CB
:103A6000588BA0919206B0919306A30192010E94F7
:103A700061252B013C01BBE07594679457944794F2
:103A8000BA95D1F7A0918C06B0918D06A701960149
:103A90000E9461252BE095958795779567952A95E6
:103AA000D1F7640D751D861D971D40908A065090B4
:103AB0008B06052C000C6608770832E0440C551C78
:103AC000661C771C3A95D1F7640D751D861D971DF0
:103AD000012E04C0660F771F881F991F0A94D2F722
:103AE0006E5F7F4F8F4F9F4F24E030E040E050E00B
:103AF0000E9437258D859E85AF85B889821B930BE3
:103B0000A40BB50B9C01AD0160E573EC80E090E087
:103B100004C096958795779567951A95D2F70E9478
:103B2000832697FD29C3660F771F881F991FA5015C
:103B300094010E94692569017A019927F7FC9A95F9
:103B40008F2D7E2D6D2D9B01AC010E9483269B0144
:103B5000AC01AEEDBBE00E9456254B015C01A3E435
:103B6000B3EEA70196010E946425BC01992777FD59
:103B70009095892F4501BB2497FCB094AB2C680D20
:103B8000791D8A1D9B1D6153714F8F4F9F4FB4E06C
:103B90009595879577956795BA95D1F76C0D7D1DAD
:103BA0008E1D9F1D0E941A2420E030E048EC52E454
:103BB0000E94072660930102709302028093030221
:103BC0009093040286E30E946B036C019093A70418
:103BD0008093A60487E30E946B037C019093A50465
:103BE0008093A4048090090290900A02A0900B0296
:103BF000B0900C0220E030E04CE052E4C501B4018A
:103C00000E94792618165CF09DEBC91692E0D90641
:103C100034F4A3E5EA16A3E0FA060CF4B8C282E095
:103C200090E09093C0048093BF04E090BF04F090B4
:103C3000C00461E0E114F10409F060E086E10E9453
:103C4000010361E0F1E0EF16F10409F060E087E1C3
:103C50000E94010311E022E0E216F10409F010E0F5
:103C6000612F88E10E94010361E01E141F040CF023
:103C700060E08AE10E940103612F8BE10E94010351
:103C8000612F89E10E94010380EA96E00E945306B9
:103C90008823A1F080EA96E00E94F8016B017C0184
:103CA000AC019B010E947E26811108C0C0920D02CA
:103CB000D0920E02E0920F02F092100288E30E946E
:103CC0006B033C019093B0048093AF0489E30E949E
:103CD0006B034C018AE30E946B035C019093AE047A
:103CE0008093AD048BE30E946B036C019093AC0452
:103CF0008093AB048CE30E946B037C019093AA0435
:103D00008093A90461E039E5631632E073060CF490
:103D100060E08CE10E94010361E040E9841641E02B
:103D200094060CF060E08DE10E94010361E05EE525
:103D3000A51651E0B5060CF060E08EE10E9401038B
:103D400061E08EE5C81681E0D8060CF060E08FE1F6
:103D50000E94010361E09EE5E91691E0F9060CF48A
:103D600060E080E20E94010361E0AEE5EA16A1E0B6
:103D7000FA060CF060E081E20E94010320900D023F
:103D800030900E0240900F025090100220E030E080
:103D900048E152E4C201B1010E94792618164CF0A4
:103DA000B4EBAB16B1042CF0ECEDCE16D1040CF054
:103DB0000AC282E090E09093BE048093BD0461E06B
:103DC0008091BD049091BE04029709F060E082E208
:103DD0000E94010384E00E94D8026C01992493940C
:103DE000892B09F0912C9092B40485E00E94D802AE
:103DF0005C0188248394892B09F0812C8092B30480
:103E00008DE30E946B037C019093B2048093B10414
:103E1000C114D10431F0AB2821F08D3B92400CF459
:103E2000F8C182E090E09093BC048093BB04692DBC
:103E300083E20E94010311E093ECE91691E0F90698
:103E40000CF410E0612F84E20E940103682D85E2EA
:103E50000E940103E090BB04F090BC0461E0E11417
:103E6000F10409F060E086E20E940103692D88E216
:103E70000E940103CD2809F411E0612F89E20E941C
:103E8000010361E0A2E0EA16F10409F060E087E2D4
:103E90000E94010386E00E94D80221E0892B09F0EC
:103EA00020E02093B80487E00E94D80221E0892B0B
:103EB00009F020E02093B70469E070E088E090E02A
:103EC0000E942214609315027093160280931702C9
:103ED000909318026BE070E08AE090E00E94221458
:103EE0006B017C01C0921102D0921202E092130287
:103EF000F09214028EE30E946B0321E0803991401E
:103F00000CF020E02093B6048090150290901602E9
:103F1000A0901702B090180277247394ECE08E16EC
:103F20009104A104B1040CF0712C81E0FFE0CF16E4
:103F3000D104E104F1040CF080E08093B504109109
:103F4000B8046090B704612F66258AE20E940103DD
:103F50001111162D612F8BE20E940103672D8CE257
:103F60000E94010361E026E082169104A104B104DD
:103F70000CF060E08DE20E940103B0E0A0E03FE0C1
:103F8000C316D104E104F10414F0AAE5B0E01091E5
:103F90008406103308F050C08091860648E5C42E90
:103FA00042E0D42EC81AD10887FDD394CC0CDD1C76
:103FB000CC0CDD1C8091850668E8E62EF12CE81A11
:103FC000F10887FDF394EE0CFF1CEE0CFF1C27019B
:103FD0000F2C000C6608770896010D2C000C440B82
:103FE000550B24193509460957090E94612524EB10
:103FF00030E040E050E00E943725420E531E641E20
:10400000751E4E145F042CF076014C145D040CF404
:10401000720142E0E41AF108EE0CFF1C2FB7F8948D
:10402000812F90E0FC01EE0FFF1FE80FF91FE75111
:10403000FA4FF282E1822FBF6091B6048EE20E94B5
:1040400001038091150290911602A0911702B09180
:1040500018020697A105B1050CF0E8C082E090E0D7
:104060009093BA048093B9040E94DF0D8CEE93E024
:104070000E94920B6091BF047091C004CE01019622
:104080000E94590DCE0101960E944F04CE01019667
:104090000E94BF0B82EF93E00E94920B6091BD04DF
:1040A0007091BE04CE0101960E94590DCE01019679
:1040B0000E944F04CE0101960E94BF0B8CEF93E04B
:1040C0000E94920B6091BB047091BC04CE010196DA
:1040D0000E94590DCE0101960E944F04CE01019617
:1040E0000E94BF0B88E094E00E94920B6091B9049B
:1040F0007091BA04CE0101960E94590DCE0101962D
:104100000E944F04CE0101960E94BF0B83E194E010
:104110000E94920B87E492E00E94920B60ED77E0A0
:1041200080E090E00E94AB030E942E0568CA609177
:10413000B3067091B40676276727762790E080E073
:104140000E9418242DEC3CEC4CEC5DE30E94792499
:104150002ECB813029F468E070E080E090E0BDCBA8
:10416000823029F46EE070E080E090E0B6CB6AE146
:1041700070E080E090E0B1CBA50194010E94692538
:1041800069017A01CC0CDD1CEE1CFF1CD6CC20E0B2
:1041900030E040EF51E4C501B4010E9479261816C1
:1041A00054F0B3ECCB16B1E0DB062CF4E9E5EE16E7
:1041B000E2E0FE061CF081E090E033CD1092C004F6
:1041C0001092BF0432CD20E030E040E052E4C20162
:1041D000B1010E9479261816A4F0F9E56F16F2E0F5
:1041E0007F067CF42EE5A21621E0B20654F03EE5EF
:1041F000C31631E0D3062CF04EE5E41641E0F40698
:104200001CF481E090E0D7CD1092BE041092BD0462
:10421000D6CD83ECE81681E0F8061CF081E090E052
:1042200002CE1092BC041092BB0401CE5CE0851655
:104230009104A104B10444F08091B804882339F0BA
:104240008091B704882319F081E090E009CF1092A3
:10425000BA041092B90408CFA7019601C701B601AC
:104260000E947E26812C912C40ECA42E4FE7B42E88
:104270008111B8CAC0920902D0920A02E0920B02E0
:10428000F0920C029FCAEF920F931F93CF93DF938C
:10429000E80134E047FD34E1042E000C550B57FFD4
:1042A00003C0519541955109E32E022F242FAE01F1
:1042B0000E94B721CE01DF91CF911F910F91EF9016
:1042C0000895BB274A3031F4992322F4BDE290953A
:1042D00081959F4F0C949E21BB272A3051F499233E
:1042E00042F4BDE290958095709561957F4F8F4F18
:1042F0009F4F0C947C21BB27FA01A62F62177105F2
:1043000081059105330B30FB66F0AA27660F771FF6
:10431000881F991FAA1FA21710F0A21B639538507F
:10432000A9F7A05DAA3308F0A95DA19336F7B111F2
:10433000B1931082CA010C940824BB27FB015527B6
:10434000AA27880F991FAA1FA41710F0A41B8395F2
:104350005051B9F7A05DAA3308F0A95DA193009769
:1043600079F7B111B1931192CB010C9408248F927B
:104370009F92AF92BF92CF92DF92EF92FF920F93F4
:104380001F93CF93DF9300D000D000D0CDB7DEB71E
:104390006A01F22EB02E102FFBE3AF2EA01608F408
:1043A0001BE31F5F012F27E0AE014F5F5F4F0E94AD
:1043B0003023BC018981982F9970913009F44EC047
:1043C0009BE2E1FC04C09E2D9170E0FC49C05E2D93
:1043D0005071E82FE87083FF55C084E0911101C04F
:1043E00083E0EF2DE81B8F1508F0E0E0D6018E2F5B
:1043F00020E25523C9F1992329F0D6019C93C601E7
:1044000001966C0196012D5F3F4FE2FE33C08EE4B2
:10441000D6018C9391E411969C93119712968C93EC
:10442000D9018E2F90E281112AC0E20FF32FF11DE6
:1044300010828EEF9FEF29960FB6F894DEBF0FBE65
:10444000CDBFDF91CF911F910F91FF90EF90DF9043
:10445000CF90BF90AF909F908F9008959DE2B7CF7F
:1044600090E2B5CF2D9381508111FCCFCE0ED11C9F
:10447000E0E0C1CF8EE6D6018C9391E6CCCF9D9340
:104480008150D1CF482F447082FF3DC084E091110C
:1044900001C083E08F1510F4EF2DE81BD6018E2F9D
:1044A00020E2552309F1992329F0D6019C93C601F6
:1044B00001966C0196012D5F3F4FE2FE1BC089E41F
:1044C000D6018C938EE411968C93119786E4129604
:1044D0008C93D9018E2F90E2882309F4A6CF9D9367
:1044E0008150FACF2D9381508111FCCFCE0ED11C7B
:1044F000E0E0D9CF89E6D6018C938EE611968C93B5
:10450000119786E6E4CF9B0177FF02C030E020E000
:10451000A1E0B0E0911102C0B0E0A0E0F901319655
:10452000AE0FBF1F8B2C912CBB2009F461C054012E
:10453000EFEFAE1ABE0AAA0DBB1DFA161B0619F044
:1045400014F04F2D4A1B511188C0E3FC59C076016D
:10455000A42FB0E2A1114FC0C40ED11C992309F4BD
:104560005BC040E0D6011196F60190836D015523A2
:1045700009F448C0012F060F9A81582F507184FF0B
:1045800003C0913309F4015010160CF047C00930F4
:1045900008F008E0EEE2FE2E5B01A01AB1088501EA
:1045A0009194819491082F3F320729F4D601FC920F
:1045B000F60131966F016217730794F10217130722
:1045C0007CF5DB01A21BB30BAA24A394B12CAC0E87
:1045D000BD1EAA0DBB1D11968C9121503109D6012B
:1045E000119628153905F4F0F60180836D01DBCFB3
:1045F000B12CA12CA0CFF701B1937F01A150AACF7C
:104600009111B0CFD601942F50E302C05D93915029
:104610009111FCCFC40ED11C40E0ACCF01E0BACF69
:1046200080E3DBCF6217730731F4963388F4953358
:1046300011F4552369F0F6018083FD01842F90E287
:10464000811108C0A40FB11D1C9290E080E0F3CE50
:1046500081E3F1CF91938150F3CF911183CF8ACF32
:10466000283008F027E03327DA01990F311D87FD44
:10467000916000966105710539F432602E5F3D93BB
:1046800030E32A95E1F708959F3F30F080387105B7
:10469000610509F03C5F3C5F3D93913008F0806814
:1046A000911DDF93CF931F930F93FF92EF92192FDA
:1046B000987F9695E92F96959695E90FFF27EA53EF
:1046C000FE4F99273327EE24FF24A701E701059029
:1046D0000894079428F4360FE71EF81E491F511D51
:1046E000660F771F881F991F0694A1F705900794FE
:1046F00028F4E70EF81E491F561FC11D770F881FAB
:10470000991F661F0694A1F70590079428F4F80EE8
:10471000491F561FC71FD11D880F991F661F771F7E
:104720000694A1F70590079420F4490F561FC71F60
:10473000D81F990F661F771F881F0694A9F78491C9
:104740001095177041F0D695C79557954795F794F2
:10475000E7941A95C1F7ECE6F1E06894159015918D
:1047600035916591959105907FE27395E118F10A75
:10477000430B560BC90BD009C0F7E10CF11E431FC8
:10478000561FC91FD01D7EF4703311F48A95E6CFF1
:10479000E894015030F0080F0AF40027021708F4DB
:1047A000202F2395022F7A3328F079E37D932A95E1
:1047B000E9F710C07D932A9589F606949795679539
:1047C000379517951794E118F10A430B560BC90B4F
:1047D000D00998F023957E9173957A3308F070E3B1
:1047E0007C932013B8F77E9170617D9330F08395B0
:1047F00071E37D9370E32A95E1F71124EF90FF9028
:104800000F911F91CF91DF91992787FD9095089582
:10481000DC01FC01672F71917723E1F7329704C027
:104820007C916D9370836291AE17BF07C8F30895B2
:10483000E89409C097FB3EF490958095709561953A
:104840007F4F8F4F9F4F9923A9F0F92F96E9BB27F0
:104850009395F695879577956795B795F111F8CF6C
:10486000FAF4BB0F11F460FF1BC06F5F7F4F8F4FD7
:104870009F4F16C0882311F096E911C0772321F0CD
:104880009EE8872F762F05C0662371F096E8862F65
:1048900070E060E02AF09A95660F771F881FDAF7BC
:1048A000880F9695879597F90895990F0008550FE9
:1048B000AA0BE0E8FEEF16161706E807F907C0F0A6
:1048C00012161306E407F50798F0621B730B840BAE
:1048D000950B39F40A2661F0232B242B252B21F488
:1048E00008950A2609F4A140A6958FEF811D811D28
:1048F00008950E948C240C94FD240E94EF2438F02B
:104900000E94F62420F0952311F00C94E6240C94D8
:10491000EC2411240C9431250E940E2570F3959FF0
:10492000C1F3950F50E0551F629FF001729FBB27A6
:10493000F00DB11D639FAA27F00DB11DAA1F649F42
:104940006627B00DA11D661F829F2227B00DA11DF5
:10495000621F739FB00DA11D621F839FA00D611D7B
:10496000221F749F3327A00D611D231F849F600D9C
:10497000211D822F762F6A2F11249F5750409AF0C5
:10498000F1F088234AF0EE0FFF1FBB1F661F771F51
:10499000881F91505040A9F79E3F510580F00C941C
:1049A000E6240C9431255F3FE4F3983ED4F38695DA
:1049B00077956795B795F795E7959F5FC1F7FE2BBC
:1049C000880F911D9695879597F9089597F99F6798
:1049D00080E870E060E008959FEF80EC0895002487
:1049E0000A941616170618060906089500240A9454
:1049F00012161306140605060895092E0394000CDA
:104A000011F4882352F0BB0F40F4BF2B11F460FF68
:104A100004C06F5F7F4F8F4F9F4F089557FD905891
:104A2000440F551F59F05F3F71F04795880F97FB72
:104A3000991F61F09F3F79F087950895121613062C
:104A40001406551FF2CF4695F1DF08C0161617065B
:104A50001806991FF1CF8695710561050894089590
:104A6000E894BB2766277727CB0197F90895052E91
:104A700097FB1EF400940E944E2557FD07D00E941C
:104A8000692507FC03D04EF40C944E2550954095B3
:104A9000309521953F4F4F4F5F4F089590958095EA
:104AA000709561957F4F8F4F9F4F08950E948B2582
:104AB000A59F900DB49F900DA49F800D911D112472
:104AC0000895B7FF0C9456250E945625821B930B20
:104AD0000895A1E21A2EAA1BBB1BFD010DC0AA1F3F
:104AE000BB1FEE1FFF1FA217B307E407F50720F057
:104AF000A21BB30BE40BF50B661F771F881F991FD2
:104B00001A9469F760957095809590959B01AC011A
:104B1000BD01CF010895A29FB001B39FC001A39F23
:104B2000700D811D1124911DB29F700D811D1124E6
:104B3000911D08955058BB27AA270E94B2250C94B6
:104B4000FD240E94EF2438F00E94F62420F039F46E
:104B50009F3F19F426F40C94EC240EF4E095E7FB47
:104B60000C94E624E92F0E940E2558F3BA17620729
:104B700073078407950720F079F4A6F50C94302587
:104B80000EF4E0950B2EBA2FA02D0B01B901900168
:104B90000C01CA01A0011124FF27591B99F0593FAC
:104BA00050F4503E68F11A16F040A22F232F342FF4
:104BB0004427585FF3CF469537952795A795F04042
:104BC0005395C9F77EF41F16BA0B620B730B840B57
:104BD000BAF09150A1F0FF0FBB1F661F771F881F0F
:104BE000C2F70EC0BA0F621F731F841F48F4879567
:104BF00077956795B795F7959E3F08F0B0CF939559
:104C0000880F08F09927EE0F9795879508950E94D1
:104C10001B260C94FD240E94F62458F00E94EF24D9
:104C200040F029F45F3F29F00C94E62451110C94D4
:104C300031250C94EC240E940E2568F39923B1F3DE
:104C4000552391F3951B550BBB27AA2762177307B2
:104C5000840738F09F5F5F4F220F331F441FAA1F46
:104C6000A9F335D00E2E3AF0E0E832D09150504002
:104C7000E695001CCAF72BD0FE2F29D0660F771FB0
:104C8000881FBB1F261737074807AB07B0E809F096
:104C9000BB0B802DBF01FF2793585F4F3AF09E3F1B
:104CA000510578F00C94E6240C9431255F3FE4F331
:104CB000983ED4F3869577956795B795F7959F5F5E
:104CC000C9F7880F911D9695879597F90895E1E0AA
:104CD000660F771F881FBB1F621773078407BA0709
:104CE00020F0621B730B840BBA0BEE1F88F7E09564
:104CF00008950E94552408F48FEF08950E945524CA
:104D0000880B990B0895DB018F939F930E94562582
:104D1000BF91AF91A29F800D911DA39F900DB29F57
:104D2000900D11240895991B79E004C0991F9617DE
:104D300008F0961B881F7A95C9F780950895EE0FA5
:104D4000FF1F881F8BBF0790F691E02D19940F93DA
:104D50001F93CF93DF938230910510F482E090E0AF
:104D6000E091C806F091C90630E020E0B0E0A0E094
:104D7000309799F42115310509F44AC0281B390BE5
:104D800024303105D8F58A819B816115710589F13F
:104D9000FB0193838283FE0111C040815181028116
:104DA000138148175907E0F04817590799F41097ED
:104DB00061F012960C93129713961C933296CF01C2
:104DC000DF91CF911F910F9108950093C806109322
:104DD000C906F4CF2115310551F04217530738F0B9
:104DE000A901DB019A01BD01DF01F801C1CFEF018B
:104DF000F9CF9093C9068093C806CDCFFE01E20F8C
:104E0000F31F819391932250310939832883D7CF9F
:104E10002091C6063091C706232B41F420911B0236
:104E200030911C023093C7062093C60620911902C8
:104E300030911A022115310541F42DB73EB740914A
:104E40001D0250911E02241B350BE091C606F09105
:104E5000C706E217F307A0F42E1B3F0B28173907EC
:104E600078F0AC014E5F5F4F2417350748F04E0FC6
:104E70005F1F5093C7064093C606819391939FCFBF
:104E8000F0E0E0E09CCFCF93DF930097E9F0FC01E6
:104E9000329713821282A091C806B091C906ED0123
:104EA00030E020E01097A1F420813181820F931F20
:104EB0002091C6063091C7062817390709F061C04E
:104EC000F093C706E093C606DF91CF910895EA01FB
:104ED000CE17DF07E8F54A815B819E014115510538
:104EE000B1F7E901FB83EA8349915991C40FD51FBA
:104EF000EC17FD0761F4808191810296840F951F64
:104F0000E90199838883828193819B838A83F0E07E
:104F1000E0E012968D919C9113970097B9F52D9131
:104F20003C911197CD010296820F931F2091C606E6
:104F30003091C7062817390739F6309751F5109286
:104F4000C9061092C806B093C706A093C606BCCF88
:104F5000D383C28340815181840F951FC817D9071D
:104F600061F44E5F5F4F88819981480F591F5183CB
:104F700040838A819B81938382832115310509F0C7
:104F8000B0CFF093C906E093C8069ECFFD01DC01C7
:104F9000C0CF13821282D7CF4F925F926F927F92CF
:104FA0008F929F92AF92BF92CF92DF92EF92FF9239
:104FB0000F931F93CF93DF938C01009799F4CB014C
:104FC000DF91CF911F910F91FF90EF90DF90CF90E5
:104FD000BF90AF909F908F907F906F905F904F9019
:104FE0000C94A726FC01E60FF71F9C012250310903
:104FF000E217F30708F4AEC0D901CD91DC91119707
:10500000C617D70720F1C530D10578F0CE01049737
:105010008617970750F0C61BD70B2297C193D193E1
:105020006D937C93CF010E944327C801DF91CF91FC
:105030001F910F91FF90EF90DF90CF90BF90AF90B6
:105040009F908F907F906F905F904F9008955B013D
:10505000AC1ABD0A4C018C0E9D1EA091C806B091E1
:10506000C906512C412CF12CE12C109731F580917F
:10507000C6069091C7068815990509F05CC04616CA
:10508000570608F058C08091190290911A020097B3
:1050900041F48DB79EB740911D0250911E02841BB2
:1050A000950BE817F90708F055C0F093C706E09391
:1050B000C606F90171836083B8CF8D919C911197D9
:1050C00012966C90129713967C901397A815B905B9
:1050D00059F56C0142E0C40ED11CCA14DB0420F166
:1050E000AC014A195B09DA011296159780F06282C9
:1050F000738251834083D9016D937C93E114F10451
:1051000071F0D7011396FC93EE9312978ECF2296EF
:105110008C0F9D1FF90191838083F301EFCFF093F2
:10512000C906E093C80681CF4816590608F42C0139
:105130007D01D3019ACFCB010E94A7267C01009765
:1051400049F0AE01B8010E94AD28C8010E94432772
:1051500087016BCF10E000E068CFFB01DC0102C0EB
:1051600001900D9241505040D8F70895FB01DC01A9
:0E51700001900D920020E1F70895F894FFCF12
:10517E00FF00407D44000034420000C0410000C8E2
:10518E004164000000640000000000CA06800000B8
:10519E0040145400000000C104220458040E058976
:1051AE000467047B04000000005F0932098E0908C1
:1051BE00092B09180909090D0A0057004E4F524DC7
:1051CE00414C005741524E494E470044414E4745CF
:1051DE005200594553004E4F004F434355504945D9
:1051EE00440046524545004F4E004F464600420091
:1051FE002D00410043454E5452414C20434F4D4DDE
:10520E00414E4400454E563A00204C4946453A0020
:10521E00534146453A0020494E4652413A005354B6
:10522E00415455533A2000312E20454E5649524F87
:10523E004E4D454E540020483A0020503A004761EA
:10524E00733A00205261643A00322E204C49464592
:10525E0020535550504F525400536F696C3A0020F2
:10526E00543A0057617465723A00204F323A005337
:10527E006F6C3A00332E205341464554590046690F
:10528E0072653A0020534F533A004761733A20003B
:10529E00342E20494E465241535452554354555282
:1052AE00450057617374653A00636D005061726B0F
:1052BE00696E673A00204C696768743A004F4B007C
:1052CE004E4F5420464F554E4420287573696E67D5
:1052DE002064656661756C74207072657373757287
:1052EE00652900504C414E45544152592048414287
:1052FE004954415420424F4F5400504C414E455456
:10530E004152592048414249544154005359535433
:10531E00454D205354415254494E472E2E2E0035A2
:10532E00204C4956452044415348424F4152445324
:10533E0000493243204F4E4C494E4500424D5031AC
:10534E0038303A200044415348424F415244532092
:10535E00494E495449414C495A454400454E563AE6
:10536E002000207C204C4946453A2000207C2053CA
:10537E0041464554593A2000207C20494E46524120
:10538E003A2000207C20493243204C4344733A207B
:10539E00307832372030783236203078323520303F
:0A53AE0078323420307832330000EA
:00000001FF
