:020000040000FA
:100000000C94C9010C94FA010C94FA010C94FA01B5
:100010000C94FA010C94FA010C94FA010C94FA0174
:100020000C94FA010C94FA010C94FA010C94FA0164
:100030000C94FA010C94B5150C94FA010C94FA0185
:100040000C94FA010C94FF160C94FA010C94FA012A
:100050000C94FA010C94FA010C94FA010C946B15AF
:100060000C94FA010C943F160C9415160C94FA019A
:100070000C94FA010C94FA010C94FA010C94FA0114
:100080000C94D1160C94FA010C94FA010C94FA0118
:100090000C94FA010C94FA010C94FA010C942D17AB
:1000A0000C94FA010C94FA010C94A3160C94FA0126
:1000B0000C94FA010C94FA010C94FA010C94751644
:1000C0000C94FA010C94FA010C94FA010C94FA01C4
:1000D0000C94FA010C94FA010C94FA010C94FA01B4
:1000E0000C94FA010C9460090C9493020C94730222
:1000F0000C94BC020C94D4020C9473090C94800BE5
:100100000C94C0020C94A8020C94A1020C947402EA
:100110000C9434040C94B8020C9461040C94B20254
:100120000C9468070C9496180C9450090C94A70929
:100130000C949D020C947A090C9470040C94840421
:100140000C94CA040C9499020C9417050C94510950
:100150000C94A5020C94CE020C94D8020C94920438
:100160000C94CA020C94AE020C94F0090C94C602D2
:100170000C94D30200407A10F35A00A0724E180972
:100180000010A5D4E80000E87648170000E40B54FE
:10019000020000CA9A3B000000E1F50500008096CD
:1001A0009800000040420F000000A08601000000FF
:1001B000102700000000E8030000000064000000B9
:1001C00000000A00000000000100000000002C7682
:1001D000D888DC674F0823DFC1DFAE59E1B1B7969D
:1001E000E5E3E453C63AE651997696E8E6C28426FA
:1001F000EB898C9B62ED407C6FFCEFBC9C9F40F2D6
:10020000BAA56FA5F490055A2AF75C936B6CF96751
:100210006DC11BFCE0E40D47FEF520E6B500D0ED16
:10022000902E0300943577050080841E080000207E
:100230004E0A000000C80C333333330F986E12831C
:100240001141EF8D2114893BE65516CFFEE6DB18F0
:10025000D1844B381BF77C1D901DA4BBE4242032B5
:1002600084725E228100C9F124ECA1E53D270200E1
:10027000002100240027002A002D00300033000157
:10028000010000040107010A0100002200250028E6
:10029000002B002E0031003400020100000501088F
:1002A000010B01000020002300260029002C002F54
:1002B0000032000001000003010601090100000AEC
:1002C0000B02090C0D0E08070304010000000000DA
:1002D000000000000000000000000000000000001E
:1002E00000000000000000000012111000000000DB
:1002F00000000000000000000000000000000000FE
:1003000000000005050505070508080808020202A7
:10031000020A0A08080404040401010101010101A0
:10032000010303030303030303040707070C0C0C77
:100330000C0C0C0C0C02020202060606060606064F
:10034000060B0B0B0B0B0B0B0B01021020200808EC
:100350001020401020408002010201080402010127
:100360000204081020408080402010080402018010
:100370000402018040201008040201080402010167
:100380000204081020408001020408102040800070
:10039000961811241FBECFEFD1E2DEBFCDBF00E023
:1003A0000CBF14E0A0E0B2E0ECE8F3E500E00BBF26
:1003B00002C007900D92AC36B107D9F727E0ACE642
:1003C000B4E001C01D92A233B207E1F711E0C9EC1D
:1003D000D1E000E006C021970109802FFE010E94B4
:1003E000A627C83CD10780E00807A9F70E94961904
:1003F0000C94C4290C940000CF92DF92EF92FF92EC
:100400001F93CF93DF93EC018E818C3009F44DC0A4
:1004100038F48B30E1F060E070E080EC9FE73DC0A5
:1004200085518230C0F71A81612F70E0762F6627E0
:1004300066277F778B81682B90E080E00E941F25E4
:100440002DEC3CEC4CEC5DE30E94802548C06A81B9
:1004500070E090E080E00E941F256B017C01CB8161
:10046000C7FF0AC0AC019B0160E070E080E89FEB31
:100470000E94A1266B017C01CF706C2F70E090E090
:1004800080E00E9421252DEC3CEC4CEC5DE30E94C9
:100490008025A70196010E94A226DF91CF911F918E
:1004A000FF90EF90DF90CF9008951A81612F70E058
:1004B00090E080E00E941F256B017C016B816F70D2
:1004C00070E090E080E00E9421252DEC3CEC4CECAB
:1004D0005DE30E948025A70196010E94A22617FFD6
:1004E000DCCF9058DACF089508958150823108F01A
:1004F0005AC0E82FF0E08827EF57FD4F8F4F0C943C
:10050000A627A102A502930299029D02D302A80286
:10051000AE02B202B802BC02C002C602CA02D302D4
:10052000CE02D402D802809180008F778093800021
:100530000895809180008F7DF9CF80918000877F22
:10054000F5CF84B58F7784BD089584B58F7DFBCFBB
:100550008091B0008F778093B00008958091B000B3
:100560008F7DF9CF809190008F77809390000895D0
:10057000809190008F7DF9CF80919000877FF5CF9B
:100580008091A0008F778093A00008958091A000B3
:100590008F7DF9CF8091A000877FF5CF80912001DA
:1005A0008F77809320010895809120018F7DF9CF6E
:1005B00080912001877FF5CFCF93DF93282F30E004
:1005C000F901E354FD4F8491F901E75BFC4FD491AD
:1005D000F901ED5FFC4FC491CC23A1F081110E9481
:1005E0007502EC2FF0E0EE0FFF1FED55FD4FA591CA
:1005F000B491EC91ED2381E090E009F480E0DF918B
:10060000CF91089580E090E0FACF1F93CF93DF93CE
:10061000282F30E0F901E354FD4F8491F901E75BA5
:10062000FC4FD491F901ED5FFC4FC491CC23A9F0AC
:10063000162F81110E947502EC2FF0E0EE0FFF1FC4
:10064000E757FD4FA591B4918FB7F894EC91111134
:1006500008C0D095DE23DC938FBFDF91CF911F912F
:100660000895DE2BF8CFCF93DF9390E0FC01E75B9A
:10067000FC4F24918D5F9C4FFC0184918823C9F02D
:1006800090E0880F991FFC01E159FD4FA591B491AD
:10069000FC01E757FD4FC591D49161110DC09FB783
:1006A000F8948C91209582238C9388812823288329
:1006B0009FBFDF91CF910895623051F49FB7F894B6
:1006C0003C91822F809583238C93E8812E2BEFCF52
:1006D0008FB7F894EC912E2B2C938FBFEACF8653D3
:1006E00020917B00982F987F277F922B90937B00FF
:1006F0008770806480937C0080917A00806480930E
:100700007A0080917A0086FDFCCF809178009091EC
:10071000790008953FB7F8948091F8049091F90416
:10072000A091FA04B091FB0426B5A89B05C02F3F09
:1007300019F00196A11DB11D3FBFBA2FA92F982F07
:100740008827BC01CD01620F711D811D911D42E002
:10075000660F771F881F991F4A95D1F708958F92CA
:100760009F92AF92BF92CF92DF92EF92FF924B0196
:100770005C010E948A036B017C010E948A036C1950
:100780007D098E099F09683E734081059105A8F394
:1007900021E0821A9108A108B10888EEC80E83E012
:1007A000D81EE11CF11C81149104A104B10429F7A5
:1007B000FF90EF90DF90CF90BF90AF909F908F9081
:1007C00008959091000289130DC0EEE6F2E0E491E5
:1007D0009FEF90930002E230E1F038F4EE2381F0D5
:1007E000E13089F060E00C940503E43049F110F148
:1007F000E530C1F7909173009D7F90937300F2CF25
:1008000010926E00EFCF90916F009D7F90936F00DC
:10081000E9CF909170009D7F9093700091E090934C
:10082000B0009091B100987F94609093B1001092C5
:10083000B300D8CF909171009D7F90937100D2CF7B
:10084000909172009D7F90937200CCCFDB01149643
:100850004D915C9115976D917C91DC01ED91FC912E
:100860000280F381E02D1994AF92BF92CF92DF9274
:10087000EF92FF920F931F93CF93DF936C017B0155
:100880008B01040F151FEB015E01AE18BF08C017E6
:10089000D10759F06991D601ED91FC910190F08159
:1008A000E02DC6011995892B79F7C501DF91CF910C
:1008B0001F910F91FF90EF90DF90CF90BF90AF907E
:1008C0000895FC01538D448D252F30E0842F90E056
:1008D000821B930B541710F0CF960895019708953B
:1008E000FC01918D828D981761F0A28DAE0FBF2F04
:1008F000B11D5D968C91928D9F5F9F73928F90E05A
:1009000008958FEF9FEF0895FC01918D828D9817C8
:1009100031F0828DE80FF11D858D90E008958FEF05
:100920009FEF0895FC01918D228D892F90E0805CCE
:100930009F4F821B91098F739927089586E795E051
:100940000E94920421E0892B09F420E0822F08956F
:10095000FC01A48DA80FB92FB11DA35ABF4F2C9134
:10096000848D90E001968F739927848FA689B7892B
:100970002C93A089B1898C91837080648C93938D22
:10098000848D981306C00288F389E02D80818F7DC5
:1009900080830895EF92FF920F931F93CF93DF937D
:1009A000EC0181E0888F9B8D8C8D98131AC0E889AB
:1009B000F989808185FF15C09FB7F894EE89FF897A
:1009C0006083E889F98980818370806480839FBF18
:1009D00081E090E0DF91CF911F910F91FF90EF9018
:1009E0000895F62E0B8D10E00F5F1F4F0F73112728
:1009F000E02E8C8D8E110CC00FB607FCFACFE88963
:100A0000F989808185FFF5CFCE010E94A804F1CF3E
:100A1000EB8DEC0FFD2FF11DE35AFF4FF0829FB7D6
:100A2000F8940B8FEA89FB8980818062CFCFCF93C6
:100A3000DF93EC01888D8823B9F0AA89BB89E88906
:100A4000F9898C9185FD03C0808186FD0DC00FB6AC
:100A500007FCF7CF8C9185FFF2CF808185FFEDCF2A
:100A6000CE010E94A804E9CFDF91CF91089580E0E4
:100A700090E0892B29F00E949E0481110E940000C1
:100A800080E090E0892B49F080E090E0892B29F00C
:100A90000E94000081110E94000080E090E0892BFC
:100AA00049F080E090E0892B29F00E94000081113C
:100AB0000E94000080E090E0892B49F080E090E007
:100AC000892B29F00E94000081110C9400000895E8
:100AD000AF92BF92CF92DF92EF92FF920F931F934C
:100AE000CF93DF936B017A01EC01C553DB4F288173
:100AF0003CE0389F8001399F100D1124A090AF0673
:100B0000B12C27FF1FC0FB011182108288818F5FEB
:100B1000888388819801280F311D87FD3A95F60159
:100B20002A153B051CF488818C30C4F180819181A9
:100B3000049680349C4908F473C0F6018081918149
:100B4000049670C088819801280F311D87FD3A9561
:100B50002A153B05DCF68881A801480F511D87FD49
:100B60005A95FA01EE0FFF1FE40FF51FE15EF94FF2
:100B7000808186FFCBCF8881F801E80FF11D87FDCA
:100B8000FA95CF01EE0FFF1FE80FF91FE15EF94F55
:100B9000808160E08F730E940503B8CF80819181CE
:100BA0002881A801420F511D27FD5A959A01FA018B
:100BB000EE0FFF1FE20FF31FE15EF94F218132813B
:100BC000820F931FF7019183808388819801280FFA
:100BD000311D87FD3A95F901EE0FFF1FE20FF31F5C
:100BE000E15EF94F808186FF22C08881080F111DC8
:100BF00087FD1A95F801EE0FFF1FE00FF11FE15E70
:100C0000F94F808161E08F73DF91CF911F910F9138
:100C1000FF90EF90DF90CF90BF90AF900C940503C2
:100C200080E49CE9F701918380838FEF8883DF91D3
:100C3000CF911F910F91FF90EF90DF90CF90BF90D9
:100C4000AF900895CF92DF92EF92FF92CF93DF9310
:100C5000DC011796CC911797D0E06111DC2F189624
:100C60002C91189730E0220F331F2D553D4F50E047
:100C700040E0F90185919491FC01F080BA0190E087
:100C800080E0EF2DEC23ED1310C04F5F5F4F1D96FA
:100C9000CD90DD90ED90FC9050976C157D058E0504
:100CA0009F0538F36FEF7FEFCB01DF91CF91FF907E
:100CB000EF90DF90CF9008958F929F92AF92BF9266
:100CC000CF92DF92EF92FF920F931F93CF93DF9318
:100CD000CDB7DEB7C054D1400FB6F894DEBF0FBE1B
:100CE000CDBF2FB7F8944091000550910105609158
:100CF0000205709103052FBFFC0101851285238534
:100D000034856A017B01C01AD10AE20AF30A97010D
:100D10008601003D174021053105B0F4FC018189B1
:100D2000C05CDE4F0FB6F894DEBF0FBECDBFDF91C3
:100D3000CF911F910F91FF90EF90DF90CF90BF90D8
:100D4000AF909F908F9008958C01FC01418752874E
:100D5000638774871482138212821182108262E088
:100D600085810E94330361E070E080E090E00E94A2
:100D7000AF0361E0F80185810E94330360E0F80170
:100D800085810E940503F80186818551823028F50E
:100D90008BE291E10197F1F762E0F80185810E9411
:100DA0003303F801828990E08230910538F0880F92
:100DB000991F880F991F05970197F1F7F89460E044
:100DC000C8010E9422066F3F7F4F8F4F9F4F61F4F3
:100DD000F801118A789480E0A3CF64E170E080E0AC
:100DE00090E00E94AF03D8CF61E0C8010E942206C4
:100DF0006F3F7F4F8F4F9F4F59F3CE0101967C017C
:100E00005E019FEBA91A9EEFB90A670160E0C80175
:100E10000E942206F601608371838283938361E0DE
:100E2000C8010E942206F601648375838683978336
:100E3000F8E0CF0ED11CCA14DB0441F7789430E0FF
:100E400020E0F70180809180A280B38044815581A9
:100E500066817781FFEF8F169F06AF06BF0631F0E0
:100E60004F3F8FEF58076807780719F4F801118A88
:100E7000B2CFF90183E0F595E7958A95E1F7E00FA8
:100E8000F11F8081880F84169506A606B706F0F03C
:100E900080832F5F3F4FF8E0EF0EF11C28323105C1
:100EA00081F6F801448120818181280F3327331F87
:100EB0008281280F311D8381820F932F911D9927E5
:100EC0004817190699F681E0818B2ACF8160E0CF1F
:100ED00008952091A804260F3327331F21323105AE
:100EE000ECF420914C05FC0190E080E0243069F0A6
:100EF00082E00895A091A8042191AC0148575B4F6E
:100F0000A40FB52FB11D2C930196861798F38091ED
:100F1000A804680F6093A80480E0089581E0089514
:100F200010924C0581E080934B051092260561E0FC
:100F300084E10E94050361E085E10E940503E9EB7D
:100F4000F0E080818E7F808380818D7F808388E444
:100F50008093B80085E48093BC0008951092050545
:100F60001092040510925305109275050E94900787
:100F700083E792E09093FF048093FE0484E792E07D
:100F80009093FD048093FC040895CF93DF9391E048
:100F9000909387048823B9F0C091B800D091BA002B
:100FA0008091BC008A7B8093BC0060E084E10E9459
:100FB000050360E085E10E9405030E949007D0933D
:100FC000BA00C093B800DF91CF9108958F929F929D
:100FD000AF92BF92CF92DF92EF92FF920F931F9347
:100FE000CF93DF93D0917505D13208F0D7C0182F79
:100FF000C09174050E948A036B017C0180914C05AD
:1010000081116BC082E080934C0510934B058FEFEC
:1010100080934A0510924905D0934805A4E5B5E0B0
:10102000E8E2F5E080E0D81391C0109227058091A6
:101030002705CC0FC82BC09327058091260581304A
:1010400009F088C0109226050E948A036B017C017A
:10105000809127058093BB0080914E0590914F05AC
:10106000A0915005B0915105892B8A2B8B2BA1F0B3
:101070000E948A0300914E0510914F052091500562
:10108000309151056C197D098E099F0906171707C4
:101090002807390708F442C08091BC0083FDD8CFEF
:1010A00085EC8093BC000E948A036B017C018091D7
:1010B0004C05823009F450C080914A058F3F09F4F5
:1010C0006FC080914A05803209F46CC080914A0556
:1010D000803309F469C084E026C080914E05909168
:1010E0004F05A0915005B0915105892B8A2B8B2B70
:1010F00009F484CF0E948A0380904E0590904F059A
:10110000A0905005B09051056C197D098E099F097A
:1011100086169706A806B90608F070CF80914D058F
:101120000E94C50785E01092530510927505109234
:101130005205DF91CF911F910F91FF90EF90DF90BB
:10114000CF90BF90AF909F908F9008959D91919375
:101150008F5F69CF85EEA5CF80914E0590914F05A9
:10116000A0915005B0915105892B8A2B8B2B09F446
:101170009ECF0E948A0300914E0510914F05209149
:101180005005309151056C197D098E099F0906178C
:1011900017072807390708F08ACFC0CF81E0C3CFEF
:1011A00080E0C1CF82E0BFCF83E0BDCFDC011196EC
:1011B0008D919C91DC01ED91FC910280F381E02DF9
:1011C00041E050E01995019729F481E00E94E6077B
:1011D00091E0811190E0892F08950F931F93CF9391
:1011E000DF93E1E0F0E02115310511F0E2E0F0E0FD
:1011F000EC01AC81BD81AE17BF0738F1DA018B017C
:1012000089819A81488151E0509352054093740539
:101210001092530510927505232B41F4B801CE01AD
:10122000DF91CF911F910F910C94D6081097B1F3D5
:10123000FC0120813181F9012281338141E050E0BC
:10124000BD01F9011995019749F380E0DF91CF9134
:101250001F910F910895CF93DF93EC018B81882329
:10126000A1F0888191E090935205809374051092CB
:1012700053051092750581E00E94E60791E0811107
:1012800090E0892FDF91CF9108950E94AE0781E011
:101290008B83CE010E942B09982F8111E2CFF1CFD1
:1012A0000895E091050580910405E81730F4F0E019
:1012B000EA5FFA4F808190E008958FEF9FEF0895E5
:1012C00090910505809104052FEF3FEF981748F4A2
:1012D000E92FF0E0EA5FFA4F208130E09F5F9093C2
:1012E0000505C90108958091040590910505891BA4
:1012F000990B0895CF92DF92EF92FF920F931F9375
:10130000CF93DF937C01CB018A01209152052223E8
:1013100089F0EB016B01C40ED51ECC15DD0569F01B
:101320006991D701ED91FC910190F081E02DC70109
:101330001995F3CF642F0E946907C801DF91CF91FF
:101340001F910F91FF90EF90DF90CF900895CF9372
:10135000DF931F92CDB7DEB7698320915205222318
:10136000F9F020917505203258F021E030E0FC01C1
:101370003383228390E080E00F90DF91CF91089536
:1013800080915305E82FF0E0EC5AFA4F9981908351
:101390008F5F809353058093750581E090E0ECCFDB
:1013A00061E0CE0101960E946907F7CFFC0124811C
:1013B00031E030935205209374051092530510923A
:1013C00075058385682B83E196E00E94A70981E07B
:1013D0000C94E60728E0FC01238760E00C94D60912
:1013E00090E080E008952F923F924F925F926F922B
:1013F0007F928F929F92AF92BF92CF92DF92EF92A5
:10140000FF920F931F93CF93DF93DC011496ED911E
:10141000FC911597EF2B09F422C169012A01EC0117
:10142000888191E090935205809374051092530542
:1014300010927505CD010E94D608782E882309F4F4
:101440000EC1F12CE12C332433948C819D818601D3
:101450000E191F098017910708F48C0128800E943B
:101460008A034B015C0180914C05811173C0602E91
:10147000B0E2B01710F480E2682E30924C0521E003
:10148000C601801B910BE816F90608F420E02093B2
:101490004B05EFEFE0934A05109249058FEF860D5B
:1014A000809348053092270580912705220C282A31
:1014B0002092270580912605813009F090C0109276
:1014C00026050E948A034B015C01809127058093C9
:1014D000BB0080914E0590914F05A0915005B091B1
:1014E0005105892B8A2B8B2BA1F00E948A03209116
:1014F0004E0530914F0540915005509151056819A6
:1015000079098A099B09261737074807590708F4FC
:1015100042C08091BC0083FDD8CFF5ECF093BC00B5
:101520000E948A034B015C0180914C05813009F4D3
:101530005AC080914905861510F460904905A8E2CB
:10154000B5E0E6E0F5E080E0861551F19D919193DC
:101550008F5FFACF80914E0590914F05A091500575
:10156000B0915105892B8A2B8B2B09F47CCF0E94DB
:101570008A0320914E0530914F05409150055091BE
:101580005105681979098A099B0926173707480701
:10159000590708F068CF80914D050E94C507612C5E
:1015A00010920505609204056016110609F057C0F7
:1015B00042018E0C9F1C5401C5018819990980179E
:1015C000910798F589819A81DC01ED91FC91028463
:1015D000F385E02D1995F50181935F01EDCF85EE3F
:1015E0008093BC009DCF80914E0590914F05A091B6
:1015F0005005B0915105892B8A2B8B2B09F494CF80
:101600000E948A0320914E0530914F05409150056C
:1016100050915105681979098A099B0926173707DE
:101620004807590708F080CFB6CFE00EF11EEC1442
:10163000FD0408F40ACF872DDF91CF911F910F9100
:10164000FF90EF90DF90CF90BF90AF909F908F90E2
:101650007F906F905F904F903F902F900895712CE6
:10166000EACFCF93DF9300D0CDB7DEB78B8322E0F4
:1016700030E0AE014F5F5F4FBE016D5F7F4F8091E5
:10168000EF069091F0060E94F30989819A819827CC
:10169000892798270F900F900F90DF91CF91089591
:1016A0000F931F93CF938C01C62F0E94D6096C2FE6
:1016B0006460C8010E94D6096C2F6B7FC8010E942C
:1016C000D60983EC90E00197F1F7CF911F910F912C
:1016D00008950F931F93CF93DF938C01D62FC42FC0
:1016E000607F642B0E94500B80E1D89FB0011124D1
:1016F0006C2BC801DF91CF911F910F910C94500B6F
:1017000041E00E94690B81E090E008950F931F93E0
:10171000CF93DF93EC010E94AE071D828A85823051
:1017200010F098E09D83888762E370E080E090E0AD
:101730000E94AF036B85CE010E94D60968EE73E06C
:1017400080E090E00E94AF0360E3CE010E94500B66
:101750000BE416E4C8010197F1F760E3CE010E94A3
:10176000500BC8010197F1F760E3CE010E94500BC6
:1017700083E592E00197F1F760E2CE010E94500B01
:101780006D81606240E0CE010E94690B84E08E832F
:1017900040E06CE0CE010E94690B40E061E0CE01C8
:1017A0000E94690B0BE31FE1C8010197F1F782E08A
:1017B0008F8340E066E0CE010E94690B40E062E06A
:1017C000CE010E94690BC8010197F1F7DF91CF911B
:1017D0001F910F910895FC0101900020E9F73197C6
:1017E000AF01481B590BBC0186E795E00C9434040B
:1017F000CF93DF93EC0188819981009711F00E94CB
:101800004A28198218821D821C821B821A82DF914B
:10181000CF910895FC0180819181009711F00C9483
:101820004A2808950F931F93CF93DF93EC0188818B
:101830009981009759F02A813B812617370730F0AC
:1018400081E0DF91CF911F910F9108958B016F5F20
:101850007F4F0E94D328009759F0998388831B8378
:101860000A832C813D81232B59F7FC011082E8CF9C
:1018700080E0E7CFEF92FF920F931F93CF93DF9318
:101880006115710541F480E0DF91CF911F910F91B7
:10189000FF90EF90089541155105B1F07B01EC01E7
:1018A0000C811D81040F151FB8010E94120C8823A2
:1018B00051F3288139818C819D81B701820F931F5B
:1018C0000E94BD291D830C8381E0DECFCF93DF937F
:1018D000EC01FB0101900020E9F73197AF01461BB5
:1018E000570B0E943A0C811103C0CE010E94F80BE5
:1018F000CE01DF91CF910895CF93DF93EC01FB01EF
:1019000044815581608171810E943A0C811103C02C
:10191000CE010E94F80BCE01DF91CF910895EF9296
:10192000FF920F931F93CF93DF93EC017B018A010A
:10193000BA010E94120C81110BC0CE010E94F80B5B
:10194000CE01DF91CF911F910F91FF90EF900895FD
:101950001D830C83B701888199810E94BD29F0CF36
:10196000FB0101900020E9F73197AF01461B570BAF
:101970000C948F0C0F931F93CF93DF93CDB7DEB7EB
:1019800062970FB6F894DEBF0FBECDBF8C01CB01BE
:10199000F8011182108213821282158214824AE0A9
:1019A000BE016F5F7F4F0E946822BE016F5F7F4F55
:1019B000C8010E94B00C62960FB6F894DEBF0FBE4D
:1019C000CDBFDF91CF911F910F910895FB01DC01F5
:1019D00011961C921E9213961C921E9212971596A7
:1019E0001C921E9214978617970749F060817181A7
:1019F0006115710521F0448155810C948F0C089577
:101A0000FC01118210821382128215821482FB0162
:101A100001900020E9F73197AF01461B570B0C945A
:101A20008F0CCF93DF93EC016115710549F462E9E6
:101A300072E0CE010E94000DCE01DF91CF9108959A
:101A40006130710519F467E572E0F3CF66E373E086
:101A5000F0CFBF92CF92DF92EF92FF920F931F933E
:101A6000CF93DF9300D000D01F921F92CDB7DEB787
:101A70007C01D62E8A01F80184819581449740F437
:101A800041E050E066E674E0C8010E943A0CF3CFF2
:101A90006D2D88E0EFE1F2E0DE01119601900D92EC
:101AA0008A95E1F7F70180858D1510F46FEF680FC7
:101AB000E62FF0E0EE0FFF1F81E090E08C0F9D1FFE
:101AC000E80FF91F6081606840E0C7010E94690B60
:101AD0006AE674E0CE0101960E94000DF801C48010
:101AE000D580C114D104E9F0F4E1CF16D10418F087
:101AF00084E1C82ED12CF80160817181FB01EC0DCD
:101B0000FD1DB0801082CE0101966115710519F19D
:101B10000E94B00CF80180819181C80ED91EF60197
:101B2000B082BE016F5F7F4FC7010E942604CE01C5
:101B300001960E940A0C28960FB6F894DEBF0FBEDD
:101B4000CDBFDF91CF911F910F91FF90EF90DF906C
:101B5000CF90BF9008950E94F80BDCCFCF93DF9316
:101B6000EC016115710549F469E572E0CE010E944E
:101B7000000DCE01DF91CF9108956130710519F408
:101B800068E073E0F3CF6CE972E0F0CFCF93DF93BE
:101B9000CDB7DEB762970FB6F894DEBF0FBECDBFEC
:101BA00060E672E0CE0101960E94000DAE014F5F2B
:101BB0005F4F70E060E08CEB96E00E94290DCE0153
:101BC00001960E940A0C8091D704882309F442C030
:101BD00061E772E0CE0101960E94000DAE014F5FF9
:101BE0005F4F61E070E08CEB96E00E94290DCE0122
:101BF00001960E940A0C64E872E0CE0101960E94F0
:101C0000000DAE014F5F5F4F62E070E08CEB96E03D
:101C10000E94290DCE0101960E940A0C64E972E02F
:101C2000CE0101960E94000DAE014F5F5F4F63E051
:101C300070E08CEB96E00E94290DCE0101960E9487
:101C40000A0C62960FB6F894DEBF0FBECDBFDF91CF
:101C5000CF9108958091D6048823B1F063EA72E0B1
:101C6000CE0101960E94000DAE014F5F5F4F61E013
:101C700070E08CEB96E00E94290DCE0101960E9447
:101C80000A0C66EB72E0B9CF8091EB049091EC0402
:101C90008C3B22E092070CF445C067EC72E0CE0169
:101CA00001960E94000DAE014F5F5F4F61E070E052
:101CB0008CEB96E00E94290DCE0101960E940A0C41
:101CC0006091EB047091EC04CE0107960E94BA0C6F
:101CD0006AED72E0CE0101960E94000DBE01695FBF
:101CE0007F4FCE0101960E947C0CBC01CE010D9667
:101CF0000E94E60CAE01435F5F4F62E070E08CEB48
:101D000096E00E94290DCE010D960E940A0CCE018C
:101D100001960E940A0CCE0107960E940A0C6FEDF4
:101D200072E07ECF803991400CF445C061EF72E0E3
:101D3000CE0101960E94000DAE014F5F5F4F61E042
:101D400070E08CEB96E00E94290DCE0101960E9476
:101D50000A0C6091EB047091EC04CE0107960E948E
:101D6000BA0C6AED72E0CE0101960E94000DBE0130
:101D7000695F7F4FCE0101960E947C0CBC01CE01B1
:101D80000D960E94E60CAE01435F5F4F62E070E08B
:101D90008CEB96E00E94290DCE010D960E940A0C54
:101DA000CE0101960E940A0CCE0107960E940A0CF1
:101DB0006DEF72E035CF60E173E0CE0101960E94D5
:101DC000000DAE014F5F5F4F61E070E08CEB96E07D
:101DD0000E94290DCE0101960E940A0C6091EB042D
:101DE0007091EC04CE0107960E94BA0C6AED72E085
:101DF000CE0101960E94000DBE01695F7F4FCE01AA
:101E000001960E947C0CBC01CE010D960E94E60C4E
:101E1000AE01435F5F4F62E070E08CEB96E00E94A2
:101E2000290DCE010D960E940A0CCE0101960E944A
:101E30000A0CCE0107960E940A0C61E273E0F0CE14
:101E4000EF92FF920F931F93CF93DF93CDB7DEB73F
:101E5000E3970FB6F894DEBF0FBECDBF7C01CB0178
:101E6000BA01F70111821082138212821582148244
:101E700042E0420F8E010F5F1F4F0E944A220097DF
:101E800089F0BC01C7010E94B00CE3960FB6F8942C
:101E9000DEBF0FBECDBFDF91CF911F910F91FF909D
:101EA000EF900895C7010E94F80BEFCF85ED809366
:101EB000BC0080914E0590914F05A0915005B091C6
:101EC00051050796A11DB11D23E0B695A7959795DD
:101ED00087952A95D1F72091BC0024FD03C010926C
:101EE0004C05089540914E0550914F056091500565
:101EF00070915105452B462B472B69F30097A1059F
:101F0000B10541F02AE22A95F1F700C00197A10935
:101F1000B109E1CF80914D050C94C507CF92DF92B6
:101F2000EF92FF920F931F93CF93DF93CDB7DEB75E
:101F3000EA970FB6F894DEBF0FBECDBF8091EF04D5
:101F40009091F0040091F1041091F2040817190720
:101F50000CF48C018091ED049091EE0408171907A0
:101F60000CF48C018091E9049091EA040817190798
:101F70000CF48C01109386040093850461E0011534
:101F8000110509F060E080E30E94050361E0013083
:101F9000110509F060E081E30E94050361E0023071
:101FA000110509F060E082E30E940503023011058B
:101FB00009F03DC5809100028F3209F493C38F3F31
:101FC00009F4B9C367E473E0CE0101960E94000DE5
:101FD000AE014F5F5F4F70E060E080EE96E00E94E0
:101FE000290DCE0101960E940A0C6091EF047091B8
:101FF000F004CE0189960E94110D6091F104709158
:10200000F204CE0183960E94110D67E573E0CE01C4
:1020100001960E94000DBE016D5D7F4FCE010196BD
:102020000E947C0C6CE573E00E94660CBE01675D4B
:102030007F4F0E947C0CBC01CE018F960E94E60C63
:10204000AE01415D5F4F61E070E080EE96E00E947E
:10205000290DCE018F960E940A0CCE0101960E9496
:102060000A0CCE0183960E940A0CCE0189960E942A
:102070000A0C6091E9047091EA04CE0189960E94ED
:10208000110D6091ED047091EE04CE0183960E94D3
:10209000110D63E673E0CE0101960E94000DBE01B2
:1020A0006D5D7F4FCE0101960E947C0C69E673E066
:1020B0000E94660CBE01675D7F4F0E947C0CBC01D4
:1020C000CE018F960E94E60CAE01415D5F4F62E04B
:1020D00070E080EE96E00E94290DCE018F960E945E
:1020E0000A0CCE0101960E940A0CCE0183960E9432
:1020F0000A0CCE0189960E940A0C609185047091A9
:102100008604CE0183960E94AE0D61E773E0CE0196
:1021100001960E94000DBE016D5D7F4FCE010196BC
:102120000E947C0CBC01CE0189960E94E60CAE0197
:10213000475D5F4F63E070E080EE96E00E94290DFE
:10214000CE0189960E940A0CCE0101960E940A0CCB
:10215000CE0183960E940A0C6AE773E0CE010196D5
:102160000E94000DAE014F5F5F4F70E060E084EDB4
:1021700096E00E94290DCE0101960E940A0C409122
:10218000010250910202609103027091040220E06A
:10219000CE018F960E94200F4091050250910602B9
:1021A000609107027091080220E0CE0189960E949A
:1021B000200F4091090250910A0260910B02709128
:1021C0000C0221E0CE0183960E94200F6EEA73E09C
:1021D000CE0101960E94000DBE016D5D7F4FCE01C4
:1021E00001960E947C0C69E873E00E94660CBE01B7
:1021F000675D7F4F0E947C0C6DE873E00E94660C67
:10220000BE01615D7F4F0E947C0CBC01CE01C59672
:102210000E94E60CAE014B5C5F4F61E070E084ED24
:1022200096E00E94290DCE01C5960E940A0CCE01AF
:1022300001960E940A0CCE0183960E940A0CCE01E0
:1022400089960E940A0CCE018F960E940A0C60911A
:10225000D8047091D904CE0189960E94BA0C60917D
:10226000DA047091DB04CE0183960E94BA0C6AED09
:1022700072E0CE0101960E94000DBE016D5D7F4FA0
:10228000CE0101960E947C0C61E973E00E94660C0D
:10229000BE01675D7F4F0E947C0CBC01CE018F9612
:1022A0000E94E60CAE01415D5F4F62E070E084ED9C
:1022B00096E00E94290DCE018F960E940A0CCE0155
:1022C00001960E940A0CCE0183960E940A0CCE0150
:1022D00089960E940A0C6091F1047091F204CE017B
:1022E00083960E94AE0D61E773E0CE0101960E94D5
:1022F000000DBE016D5D7F4FCE0101960E947C0CEA
:10230000BC01CE0189960E94E60CAE01475D5F4F8D
:1023100063E070E084ED96E00E94290DCE0189967D
:102320000E940A0CCE0101960E940A0CCE018396EF
:102330000E940A0C67E973E0CE0101960E94000D2D
:10234000AE014F5F5F4F70E060E088EC96E00E9466
:10235000290DCE0101960E940A0C40910D02509168
:102360000E0260910F027091100221E0CE01899659
:102370000E94200F6091E3047091E404CE018396E3
:102380000E94BA0C67EA73E0CE0101960E94000D2C
:10239000BE016D5D7F4FCE0101960E947C0C6DEAFF
:1023A00073E00E94660CBE01675D7F4F0E947C0C4B
:1023B000BC01CE018F960E94E60CAE01415D5F4FDD
:1023C00061E070E088EC96E00E94290DCE018F96C6
:1023D0000E940A0CCE0101960E940A0CCE0183963F
:1023E0000E940A0CCE0189960E940A0C6091DF04BB
:1023F0007091E004CE0189960E94BA0C6091E104CC
:102400007091E204CE0183960E94BA0C61EB73E0F6
:10241000CE0101960E94000DBE016D5D7F4FCE0181
:1024200001960E947C0C68EB73E00E94660CBE0172
:10243000675D7F4F0E947C0CBC01CE018F960E948D
:10244000E60CAE01415D5F4F62E070E088EC96E023
:102450000E94290DCE018F960E940A0CCE01019692
:102460000E940A0CCE0183960E940A0CCE01899626
:102470000E940A0C6091EF047091F004CE018996DD
:102480000E94AE0D6091DD047091DE04CE01839652
:102490000E94BA0C6DEB73E0CE0101960E94000D14
:1024A000BE016D5D7F4FCE0101960E947C0C66E6F9
:1024B00074E00E94660CBE01675D7F4F0E947C0C39
:1024C000BC01CE018F960E94E60CAE01415D5F4FCC
:1024D00063E070E088EC96E00E94290DCE018F96B3
:1024E0000E940A0CCE0101960E940A0CCE0183962E
:1024F0000E940A0CCE0189960E940A0C0E94C60D09
:1025000062EC73E0CE0101960E94000DAE014F5FB8
:102510005F4F70E060E080EB96E00E94290DCE01F5
:1025200001960E940A0C609115027091160280912A
:102530001702909118021CA21BA21EA21DA218A68F
:102540001FA22AE0AE014F5F5F4F0E947322BE01BF
:102550006F5F7F4FCE0183960E94B00C64ED73E0F5
:10256000CE0101960E94000DBE016D5D7F4FCE0130
:1025700001960E947C0C6BED73E00E94660CBC011E
:10258000CE0189960E94E60CAE01475D5F4F61E087
:1025900070E080EB96E00E94290DCE0189960E94A2
:1025A0000A0CCE0101960E940A0CCE0183960E946D
:1025B0000A0C8091E50408E313E0882311F00FE290
:1025C00013E06EED73E0CE0101960E94000DBE0196
:1025D0006F5F7F4FCE0183960E94E60CB801CE015B
:1025E00083960E94660CBC01CE0189960E94E60C7F
:1025F000AE01475D5F4F62E070E080EB96E00E94C5
:10260000290DCE0189960E940A0CCE0183960E9464
:102610000A0CCE0101960E940A0C8091E6040DE39B
:1026200013E0882311F001E912E08091E70433E41C
:10263000E32E33E0F32E882321F021E4E22E23E081
:10264000F22E8091E80493E4C92E93E0D92E8823DA
:1026500021F085E4C82E83E0D82E6EEA73E0CE0127
:1026600001960E94000DBE016F5F7F4FCE018396E1
:102670000E94E60CB601CE0183960E94660CB7015B
:102680000E94660C67EE73E00E94660CB8010E941F
:10269000660CBC01CE0189960E94E60CAE01475D36
:1026A0005F4F63E070E080EB96E00E94290DCE0161
:1026B00089960E940A0CCE0183960E940A0CCE01D4
:1026C00001960E940A0CEA960FB6F894DEBF0FBE80
:1026D000CDBFDF91CF911F910F91FF90EF90DF90D1
:1026E000CF900895EEE6F2E0149117FD6BCC61E017
:1026F0008FE20E943303112309F4F1C0123009F074
:1027000005C18091B100887F83608093B10089EF1B
:102710008093B3008FEF9FEFDC018093D2049093FE
:10272000D304A093D404B093D50480917000826048
:102730008093700047CC8FE280930002EEE6F2E0D7
:102740001491812F1F3F09F43DCC123009F468C069
:1027500060F4112379F1113009F444C087FD32CCC3
:1027600061E08FE20E943303C9CF143009F499C0AD
:1027700008F478C0153091F71092200110922101D1
:1027800080912101886080932101809121018160E5
:1027900080932101E2E3F3E0E491F0E0EE0FFF1F0C
:1027A000E757FD4F85919491E8E7F3E0E491E093DA
:1027B0006C049DCF14BC15BC84B5826084BD85B506
:1027C000816085BDE2E3F3E0E491F0E0EE0FFF1FEE
:1027D000E757FD4F85919491E8E7F3E0E491E093AA
:1027E000700485CF1092800010928100809181004A
:1027F0008860809381008091810081608093810056
:10280000E2E3F3E0E491F0E0EE0FFF1FE757FD4F46
:1028100085919491E8E7F3E0E491E0936F0467CF4A
:102820001092B0001092B1008091B000826080934D
:10283000B0008091B10081608093B100E2E3F3E0E9
:10284000E491F0E0EE0FFF1FE757FD4F8591949163
:102850009093D0048093CF04E8E7F3E0E491E09311
:10286000D10445CF10929000109291008091910078
:1028700088608093910080919100816080939100A5
:10288000E2E3F3E0E491F0E0EE0FFF1FE757FD4FC6
:1028900085919491E8E7F3E0E491E0936E0413E00E
:1028A00026CF1092A0001092A1008091A100886014
:1028B0008093A1008091A10081608093A100E2E358
:1028C000F3E0E491F0E0EE0FFF1FE757FD4F859135
:1028D0009491E8E7F3E0E491E0936D0408CF85B5C7
:1028E000887F836085BD8CE787BD8FEF9FEFDC011C
:1028F0008093810490938204A0938304B093840412
:1029000080916E00826080936E005CCB1130E9F4A0
:1029100080918100887F8160809381008FE39FE1B7
:1029200090938900809388008FEF9FEFDC01809364
:102930007D0490937E04A0937F04B09380048091E3
:102940006F00826080936F003DCB1330E9F480917B
:102950009100887F8160809391008FE39FE1909345
:102960009900809398008FEF9FEFDC0180937904AA
:1029700090937A04A0937B04B0937C0480917100BF
:102980008260809371001ECB1430E9F48091A10025
:10299000887F81608093A1008FE39FE19093A900DD
:1029A0008093A8008FEF9FEFDC01809375049093D4
:1029B0007604A0937704B0937804809172008260CB
:1029C00080937200FFCA1530E9F480912101887F5D
:1029D0008160809321018FE39FE19093290180938F
:1029E00028018FEF9FEFDC018093710490937204B4
:1029F000A0937304B09374048091730082608093F9
:102A00007300E0CA123089F034F4112361F0113000
:102A100009F0D8CA83CF143009F4BECF0CF49DCF8F
:102A20001530C9F2CFCA8FE35FCF8FE371CE8FE24B
:102A30000E94E103C7CA0F931F93CF93DF93182F10
:102A4000EB0160E00E94050383E090E00197F1F75D
:102A500061E0812F0E94050383E290E00197F1F786
:102A600060E0812F0E940503FE01E75BFC4F64914B
:102A7000FE01ED5FFC4FE491F0E0EE0FFF1FED551E
:102A8000FD4F8591949100E315E720E030E0462F5B
:102A90000E9451186115710581059105B9F06F5FAC
:102AA0007F4F8F4F9F4F9F70611571058105910575
:102AB00069F02AE330E040E050E00E943E26CA017F
:102AC000B901DF91CF911F910F91089520E931E075
:102AD00040E050E0F4CF1F920F920FB60F921124F6
:102AE0002F933F938F939F93AF93BF938091000554
:102AF00090910105A0910205B09103053091F70472
:102B000023E0230F2D3758F50196A11DB11D209309
:102B1000F7048093000590930105A0930205B093FC
:102B200003058091F8049091F904A091FA04B09102
:102B3000FB040196A11DB11D8093F8049093F90444
:102B4000A093FA04B093FB04BF91AF919F918F9132
:102B50003F912F910F900FBE0F901F90189526E870
:102B6000230F0296A11DB11DD2CF1F920F920FB657
:102B70000F9211240BB60F922F933F934F935F93B5
:102B80006F937F938F939F93AF93BF93EF93FF9335
:102B90008091D2049091D304A091D404B091D50433
:102BA000892B8A2B8B2BE1F19091D104E091CF04FA
:102BB000F091D0048081892780838091D204909104
:102BC000D304A091D404B091D504181619061A069E
:102BD0001B069CF48091D2049091D304A091D4045C
:102BE000B091D5040197A109B1098093D2049093C3
:102BF000D304A093D404B093D504FF91EF91BF9177
:102C0000AF919F918F917F916F915F914F913F9184
:102C10002F910F900BBE0F900FBE0F901F90189525
:102C2000809100020E94E103E8CF1F920F920FB63D
:102C30000F9211240BB60F922F933F934F935F93F4
:102C40006F937F938F939F93AF93BF93EF93FF9374
:102C500086E795E00E94A804FF91EF91BF91AF91A4
:102C60009F918F917F916F915F914F913F912F91A4
:102C70000F900BBE0F900FBE0F901F9018951F92D4
:102C80000F920FB60F9211240BB60F922F938F93C2
:102C90009F93EF93FF93E0918605F09187058081E4
:102CA000E0918C05F0918D0582FD1DC09081809191
:102CB0008F058F5F8F7320919005821741F0E0910F
:102CC0008F05F0E0EA58FA4F958F80938F05FF91BA
:102CD000EF919F918F912F910F900BBE0F900FBE90
:102CE0000F901F9018958081F2CF1F920F920FB610
:102CF0000F9211240BB60F922F933F934F935F9334
:102D00006F937F938F939F93AF93BF93EF93FF93B3
:102D100048E251E064E271E090E080E00E946805E2
:102D2000FF91EF91BF91AF919F918F917F916F91A3
:102D30005F914F913F912F910F900BBE0F900FBE5F
:102D40000F901F9018951F920F920FB60F9211249B
:102D50000BB60F922F933F934F935F936F937F9395
:102D60008F939F93AF93BF93EF93FF9348EA50E005
:102D700064EA70E083E090E00E946805FF91EF91C3
:102D8000BF91AF919F918F917F916F915F914F9183
:102D90003F912F910F900BBE0F900FBE0F901F9081
:102DA00018951F920F920FB60F9211240BB60F9227
:102DB0002F933F934F935F936F937F938F939F9343
:102DC000AF93BF93EF93FF9348E950E064E970E05D
:102DD00082E090E00E946805FF91EF91BF91AF9172
:102DE0009F918F917F916F915F914F913F912F9123
:102DF0000F900BBE0F900FBE0F901F9018951F9253
:102E00000F920FB60F9211240BB60F922F933F9390
:102E10004F935F936F937F938F939F93AF93BF93E2
:102E2000EF93FF9348E850E064E870E081E090E0C1
:102E30000E946805FF91EF91BF91AF919F918F9193
:102E40007F916F915F914F913F912F910F900BBEAA
:102E50000F900FBE0F901F9018951F920F920FB6F4
:102E60000F9211240BB60F922F933F934F935F93C2
:102E70006F937F938F939F93AF93BF93EF93FF9342
:102E80008091B900887F803609F44DC008F040C0B9
:102E9000883209F4A9C028F5803109F49DC0C8F42E
:102EA000882309F4FBC0883009F496C0FF91EF91A4
:102EB000BF91AF919F918F917F916F915F914F9152
:102EC0003F912F910F900BBE0F900FBE0F901F9050
:102ED0001895883109F488C0803241F780934A05FB
:102EE00014C0803409F49DC040F48033B9F38833B2
:102EF000E9F680934A0585ECB0C0803509F485C0B9
:102F0000883509F496C0883489F60E94560FCECFD2
:102F1000883909F48CC038F5883729F050F48836A0
:102F200011F0803719F683E080934C051092CA04A3
:102F300057C0883809F47BC0803919F0803809F00F
:102F4000B5CF8091CA04803208F071C0E091CA0404
:102F500081E08E0F8093CA048091BB00F0E0E655BB
:102F6000FB4F80833DC0803B39F0E0F4803A09F4A8
:102F700079C0883A09F09ACF84E080934C0510928A
:102F8000A9041092A804E091FE04F091FF041995A1
:102F90008091A80481110FC081E08093A804109251
:102FA000880409C0803C09F4A6CF883C09F4A3CF6B
:102FB000883B09F07BCFE091A90481E08E0F8093DC
:102FC000A904F0E0E857FB4F80818093BB0090910B
:102FD000A9048091A80429C0809127058093BB0093
:102FE00085EC8093BC0062CF9091490580914805A3
:102FF000981758F5E091490581E08E0F80934905B7
:10300000F0E0E85DFA4F8081E9CFE091490581E089
:103010008E0F809349058091BB00F0E0E85DFA4F88
:10302000808390914905809148059817C8F285E8FA
:10303000D8CFE091490581E08E0F809349058091BA
:10304000BB00F0E0E85DFA4F808380914B05811171
:103050005CCF81E08093260584EA8093BC001092C7
:103060004C0524CF85EC8093BC0010924C058091D8
:10307000CA04803230F4E091CA04F0E0E655FB4F18
:1030800010826091CA0470E0E091FC04F091FD04AC
:103090008AEA94E019951092CA0408CF10924A0562
:1030A00034CFCF92DF92EF92FF920F931F93E82FCE
:1030B000F92F05C0015011092109310961F19081F1
:1030C00096239417B9F305C001501109210931095C
:1030D00011F1908196239413F7CFC12CD12CE12CC0
:1030E000F12C0AC08FEFC81AD80AE80AF80A0C15A2
:1030F0001D052E053F0579F080818623841791F305
:103100006C2D7D2D8E2D9F2D1F910F91FF90EF9097
:10311000DF90CF90089560E070E080E090E01F9134
:103120000F91FF90EF90DF90CF9008951092790566
:103130001092780588EE93E0A0E0B0E080937A05E5
:1031400090937B05A0937C05B0937D052BE232E044
:10315000309377052093760525EC30E03093830596
:103160002093820524EC30E030938505209384057C
:1031700020EC30E0309387052093860521EC30E089
:10318000309389052093880522EC30E030938B053D
:1031900020938A0526EC30E030938D0520938C0532
:1031A00010928F0510929005109291051092920541
:1031B0001092160610921506809317069093180623
:1031C000A0931906B0931A068DE392E0909314062B
:1031D0008093130682E08093200726E12093210745
:1031E000EBE4F3E0E491E0932207E5E0F3E0E4911F
:1031F000E093230780E89EE3A0E0B0E080932807F7
:1032000090932907A0932A07B0932B0733E03093BC
:103210000D0720930E07ECE4F3E0E491E0930F0731
:10322000E6E0F3E0E491E0931007809315079093B4
:103230001607A0931707B09318071092F006109284
:10324000EF068091AF06803308F06CC091E0980FD4
:103250009093AF068093EC0690E0FC01EE0FFF1F09
:10326000E80FF91FE15EF94F88EB9BE092838183C1
:103270001092E3061092E2062FE432E03093E1066A
:103280002093E00687E28093E40694E19093E906B8
:1032900084E08093EA061092EB061092D706109213
:1032A000D6063093D5062093D40646E24093D8063E
:1032B0009093DD068093DE061092DF061092CB0617
:1032C0001092CA063093C9062093C80645E240937F
:1032D000CC069093D1068093D2061092D30610921A
:1032E000BF061092BE063093BD062093BC0644E292
:1032F0004093C0069093C5068093C6061092C706F9
:103300001092B3061092B2063093B1062093B00625
:1033100023E22093B4069093B9068093BA061092E4
:10332000BB0608958FEF8093EC06A2CFCF93DF9377
:10333000CDB7DEB7AD970FB6F894DEBF0FBECDBFE9
:10334000789484B5826084BD84B5816084BD85B580
:10335000826085BD85B5816085BD80916E0081608C
:1033600080936E0010928100809181008260809332
:103370008100809181008160809381008091800034
:103380008160809380008091B10084608093B1005F
:103390008091B00081608093B00080919100826044
:1033A0008093910080919100816080939100809141
:1033B00090008160809390008091A1008260809352
:1033C000A1008091A10081608093A1008091A00064
:1033D00081608093A000809121018260809321010F
:1033E0008091210181608093210180912001816081
:1033F0008093200180917A00846080937A0080918C
:103400007A00826080937A0080917A008160809354
:103410007A0080917A00806880937A001092C100CF
:10342000E0918605F091870582E08083E091820536
:10343000F09183051082E0918405F091850580E18B
:10344000808310928E05E0918A05F0918B0586E0CD
:103450008083E0918805F091890580818061808377
:10346000E0918805F0918905808188608083E091F2
:103470008805F0918905808180688083E0918805C6
:10348000F091890580818F7D808362E080912007A3
:103490000E9433032FB7F8948091000590910105A5
:1034A000A0910205B09103052FBF805D9740A1094F
:1034B000B1098093240790932507A0932607B09322
:1034C000270717E310932D0762E080910D070E94F4
:1034D00033032FB7F8948091000590910105A091D6
:1034E0000205B09103052FBF805D9740A109B10986
:1034F0008093110790931207A0931307B0931407BA
:1035000010931A0783E08093F1068091EF06909163
:10351000F006009711F00E944A2886E090E00E9491
:10352000AE278C0187E7D8018C9383E196E0129651
:103530009C938E93119713961C92139780E290E0C0
:1035400015969C938E9314971093F0060093EF06B4
:103550000E94AE0781E0F8018383C8010E942B0915
:10356000182F8111C1C110E01093DC048091EC068A
:10357000803308F052C061E08CE00E9433038091F8
:10358000EC06282F30E0F901EE0FFF1FE20FF31FCA
:10359000E15EF94F9081907C9C6090831092ED06E3
:1035A0001092EE062CE0622F0E949A27829FB001B3
:1035B000112430E020E0AB01420F531FFA01EE0F5F
:1035C000FF1FE40FF51FE15EF94F908196FD17C0D4
:1035D0002F5F3F4F2C30310571F7813009F0E6C184
:1035E0001092800082E080938100109285001092FA
:1035F0008400B19A80916F00826080936F00E091A7
:10360000EC068E2F90E0FC01EE0FFF1FE80FF91F74
:10361000E15EF94F80818064808362E084E00E94F3
:10362000330362E085E00E94330362E086E00E949B
:10363000330362E087E00E94330360E089E00E9488
:10364000330360E08BE00E94330316E161E0812FD9
:103650000E9433031F5F1333C9F761E088E00E94C3
:10366000330361E08AE00E94330380EE96E00E941B
:10367000860B80EE96E00E94EA0984ED96E00E94B7
:10368000860B84ED96E00E94EA0988EC96E00E94A1
:10369000860B88EC96E00E94EA098CEB96E00E948B
:1036A000860B8CEB96E00E94EA0980EB96E00E9484
:1036B000860B80EB96E00E94EA096FEE73E09E01B4
:1036C0002F5F3F4F1901C9010E94000DA10170E059
:1036D00060E080EE96E00E94290DC1010E940A0C74
:1036E00061E074E0C1010E94000DA10161E070E0A1
:1036F00080EE96E00E94290DC1010E940A0C64E14F
:1037000074E0C1010E94000DA10162E070E080EE52
:1037100096E00E94290DC1010E940A0C66E274E045
:10372000C1010E94000DA10163E070E080EE96E00F
:103730000E94290DC1010E940A0C6CED75E080E029
:1037400090E00E94AF03122D032D84E00E94DC0262
:103750005C0199249394892B09F0912C9092D704C1
:1037600085E00E94DC026C0188248394892B09F097
:10377000812C8092D6048DE30E946F037C01382F48
:103780002F2D8115944014F03FEF23E0832F922FCB
:1037900097FF02C090E080E09093EC048093EB04EC
:1037A000A114B10449F0C114D10431F05CEBE51669
:1037B00052E0F5060CF426C182E090E09093EE040E
:1037C0008093ED04692D83E20E940503682D85E254
:1037D0000E9405038824839490E9E91691E0F90694
:1037E0000CF4812C682D84E20E94050361E0809135
:1037F000ED049091EE04892B09F060E086E20E94CE
:103800000503692D88E20E940503682D89E20E9464
:10381000050361E0AB2841F0CD2831F0ACEBEA16AE
:10382000A2E0FA060CF460E087E20E9405030E9421
:10383000C60D2FB7F8948091000590910105A091D5
:103840000205B09103052FBF4091F3045091F40499
:103850006091F5047091F604841B950BA60BB70BD1
:10386000803D9740A105B10508F454C52FB7F894E1
:103870008091000590910105A0910205B09103058A
:103880002FBF8093F3049093F404A093F504B093B6
:10389000F6048BE197E00E945C06C12CD12C70EC01
:1038A000E72E7FE7F72E882331F08BE197E00E9427
:1038B000FC016B017C018BE197E00E945C06882390
:1038C00009F4D1C5809121078B3038F08D3008F490
:1038D000A6C08551823008F426C5812C912C60EC5D
:1038E000A62E6FE7B62EB9C080ED8FA321E030E0A1
:1038F000AE014F5F5F4FBE01695D7F4F8091EF0664
:103900009091F0060E94F3098981853509F02BCE4C
:103910008AEA0E94310B9093F3068093F2068CEAB8
:103920000E94310B9093F5068093F4068EEA0E9474
:10393000310B9093F7068093F60680EB0E94310BD3
:10394000909303078093020782EB0E94310B9093C0
:1039500005078093040784EB0E94310B90930707BF
:103960008093060786EB0E94310B9093F9068093B3
:10397000F80688EB0E94310B9093FB068093FA06C1
:103980008AEB0E94310B9093FD068093FC068CEB32
:103990000E94310B9093FF068093FE068EEB0E94EF
:1039A000310B9093010780930007DECD823061F4E4
:1039B00010929000809391001092950010929400C4
:1039C00088BB809371001BCE833069F41092A000F5
:1039D00082E08093A1001092A5001092A40089BB00
:1039E000809372000CCE81110ACE1092200182E0E9
:1039F0008093210110922501109224018ABB8093AB
:103A00007300FDCD80E9E81681E0F8061CF081E046
:103A100090E0D4CE1092EE041092ED04D3CE6091DB
:103A20001C0770E090E080E00E9421252DEC3CEC2A
:103A30004CEC5DE30E9480254B015C0160911B070B
:103A400070E090E080E00E9421259B01AC01C5015F
:103A5000B4010E94A2264B015C01A7019601C70197
:103A6000B6010E948527882309F40BC5A50194019E
:103A7000C501B4010E948527811108C0809205020A
:103A800090920602A0920702B09208028091DC0494
:103A9000882309F4B4C18EE28EA344EFB42EBDA2F4
:103AA00021E030E0AE014B5D5F4FBE016A5D7F4FAC
:103AB0008091EF069091F0060E94ED0865E070E0BD
:103AC00080E090E00E94AF0386EF0E94310B6C0112
:103AD000F12CE12C8091F1068295880F880F807C73
:103AE0008C5C8CA3BBA221E030E0AE014D5D5F4F4A
:103AF000BE016C5D7F4F8091EF069091F0060E94B1
:103B0000ED088091F106811120C465E070E080E04D
:103B100090E00E94AF0386EF0E94310BB0E0A0E07E
:103B20008824982EA92EBA2E88EF8AA321E030E0AF
:103B3000A101BE016E5D7F4F8091EF069091F0066E
:103B40000E94F3098981A5019401282B2AA73BA78C
:103B50004CA75DA73091F10638A780910607909198
:103B60000707A7019601281B390B41095109A091AC
:103B70000407B09105070E945D266B017C014FE0B0
:103B8000F594E794D794C7944A95D1F76091FE06CF
:103B90007091FF06072E000C880B990B5BE0660FF7
:103BA000771F881F991F5A95D1F7209100073091F0
:103BB0000107032E000C440B550B2C0D3D1D4E1D13
:103BC0005F1D0E943E26C20ED31EE41EF51E40EA73
:103BD000C41A4FE0D40AE108F108A7019601C70111
:103BE000B6010E948A272B013C016CE07594679412
:103BF000579447946A95D1F7A091F606B091F706CD
:103C00000E9468264B015C017DE0B594A7949794CF
:103C100087947A95D1F7A091F806B091F906A3019F
:103C200092010E9468269C01552737FD5095452F2B
:103C3000280D391D4A1D5B1D2E5F3F4F4F4F5F4FB3
:103C4000F2E05595479537952795FA95D1F7305875
:103C50004F4F5F4FA0910207B09103070E945D266E
:103C60004B015C01AFE0B694A79497948794AA9512
:103C7000D1F788E090E058A5851B91092AA53BA5BE
:103C80004CA55DA504C056954795379527958A950F
:103C9000D2F72AA73BA74CA75DA7A091FA06B0913F
:103CA000FB06A30192010E9468262B013C01BBE0A8
:103CB0007594679457944794BA95D1F7A091F406F8
:103CC000B091F506A70196010E9468262BE0959514
:103CD0008795779567952A95D1F7640D751D861D93
:103CE000971D4090F2065090F306052C000C6608D4
:103CF000770832E0440C551C661C771C3A95D1F7C6
:103D0000640D751D861D971D08A404C0660F771FDE
:103D1000881F991F0A94D2F76E5F7F4F8F4F9F4F76
:103D200024E030E040E050E00E943E268AA59BA5BA
:103D3000ACA5BDA5821B930BA40BB50B9C01AD01DB
:103D400060E573EC80E090E008A404C09695879548
:103D5000779567950A94D2F70E948A2797FD08C342
:103D6000660F771F881F991FA50194010E94702676
:103D700069017A019927F7FC9A958F2D7E2D6D2D7B
:103D80009B01AC010E948A279B01AC01AEEDBBE018
:103D90000E945D264B015C01A3E4B3EEA7019601EE
:103DA0000E946B26BC01992777FD9095892F4501CC
:103DB000BB2497FCB094AB2C680D791D8A1D9B1D0C
:103DC0006153714F8F4F9F4FB4E0959587957795CD
:103DD0006795BA95D1F76C0D7D1D8E1D9F1D0E94B4
:103DE000212520E030E048EC52E40E940E27609349
:103DF000010270930202809303029093040286E30F
:103E00000E946F036C019093DB048093DA0487E3D4
:103E10000E946F037C019093D9048093D804809012
:103E2000090290900A02A0900B02B0900C0220E0D0
:103E300030E04CE052E4C501B4010E94802718161E
:103E40005CF09DEBC91692E0D90634F4A3E5EA16BE
:103E5000A3E0FA060CF497C282E090E09093F2049B
:103E60008093F104E090F104F090F20461E0E11439
:103E7000F10409F060E086E10E94050361E0F1E0F1
:103E8000EF16F10409F060E087E10E940503DD24EC
:103E9000D39422E0E216F10409F0D12C6D2D88E1D3
:103EA0000E94050361E01E141F040CF060E08AE12B
:103EB0000E9405036D2D8BE10E9405036D2D89E1A4
:103EC0000E94050388E097E00E945C068823A1F029
:103ED00088E097E00E94FC016B017C01AC019B0132
:103EE0000E948527811108C0C0920D02D0920E0257
:103EF000E0920F02F092100288E30E946F0399A7EC
:103F000088A79093E4048093E30489E30E946F03FD
:103F10004C018AE30E946F035C019093E20480935A
:103F2000E1048BE30E946F036C019093E0048093A3
:103F3000DF048CE30E946F037C019093DE04809386
:103F4000DD0461E048A559A5493552400CF460E014
:103F50008CE10E94050361E090E9891691E09906E1
:103F60000CF060E08DE10E94050361E0AEE5AA1669
:103F7000A1E0BA060CF060E08EE10E94050361E06A
:103F8000BEE5CB16B1E0DB060CF060E08FE10E94ED
:103F9000050361E0EEE5EE16E1E0FE060CF460E0FC
:103FA00080E20E94050361E0FEE5EF16F1E0FF0606
:103FB0000CF060E081E20E94050340900D025090F9
:103FC0000E0260900F027090100220E030E048E195
:103FD00052E4C301B2010E94802718164CF024EB72
:103FE000A216B1042CF03CEDC316D1040CF0E7C1CD
:103FF00082E090E09093F0048093EF0461E0809180
:10400000EF049091F004029709F060E082E20E94D0
:10401000050386E00E94DC0221E0892B09F020E004
:104020002093E80487E00E94DC0221E0892B09F05C
:1040300020E02093E70469E070E088E090E00E94CF
:104040001B156093150270931602809317029093CC
:1040500018026BE070E08AE090E00E941B154B01B3
:104060005C018092110290921202A0921302B0920F
:1040700014028EE30E946F0321E0803991400CF01E
:1040800020E02093E60440901502509016026090C4
:10409000170270901802EE24E394FCE04F165104CE
:1040A000610471040CF0E12C81E02FE08216910490
:1040B000A104B1040CF080E08093E504F090E804E2
:1040C000D090E7046F2D6D258AE20E940503F11060
:1040D000FD2C6F2D8BE20E9405036E2D8CE20E9459
:1040E000050361E036E043165104610471040CF0ED
:1040F00060E08DE20E940503B0E0A0E04FE084168E
:104100009104A104B10414F0AAE5B0E05091EC06CA
:1041100058A7503308F053C08091EE0648E5C42EEE
:1041200042E0D42EC81AD10887FDD394CC0CDD1CF4
:10413000CC0CDD1C8091ED0668E8E62EF12CE81A27
:10414000F10887FDF394EE0CFF1CEE0CFF1C4701F9
:104150000F2C000CAA08BB0896010D2C000C440B78
:10416000550B281939094A095B090E94682624EB76
:1041700030E040E050E00E943E26BA01A901480D1F
:10418000591D6A1D7B1D4E155F052CF076014C15DF
:104190005D050CF47A0182E0E81AF108EE0CFF1CD0
:1041A0002FB7F894A8A58A2F90E0FC01EE0FFF1F0F
:1041B000E80FF91FE15EF94FF282E1822FBF6091B3
:1041C000E6048EE20E94050380911502909116028A
:1041D000A0911702B09118020697A105B1050CF045
:1041E00014C182E090E09093EA048093E9040E9475
:1041F0008E0F88E394E00E94EB0B6091F1047091C4
:10420000F204812F902F0E94AE0D612F702F86E750
:1042100095E00E942604812F902F0E940A0C8EE3C5
:1042200094E00E94EB0B6091EF047091F004812FF9
:10423000902F0E94AE0D612F702F86E795E00E94AF
:104240002604812F902F0E940A0C88E494E00E949B
:10425000EB0B6091ED047091EE04812F902F0E9482
:10426000AE0D612F702F86E795E00E942604812F06
:10427000902F0E940A0C84E594E00E94EB0BC09002
:10428000EB04D090EC040D2C000CEE08FF08F7FEB8
:10429000D2C06DE286E795E00E94CA042227332748
:1042A000A9012C193D094E095F0919A2FE01B19619
:1042B0007F01CA01B9012AE030E040E050E00E94ED
:1042C0007026605DD7016E937D0121153105410592
:1042D000510579F7E114F10419F0C7010E94EB0BC5
:1042E0008DE594E00E94EB0B6091E9047091EA0483
:1042F000812F902F0E94AE0D612F702F86E795E0E1
:104300000E94260488E694E00E94EB0B812F902FF8
:104310000E940A0C62E370E080E090E00E94AF032C
:104320000E94370512CA60911B0770911C077627FF
:104330006727762790E080E00E941F252DEC3CEC5B
:104340004CEC5DE30E94802586CB813029F468E047
:1043500070E080E090E0DDCB823029F46EE070E028
:1043600080E090E0D6CB6AE170E080E090E0D1CBD5
:10437000A50194010E94702669017A01CC0CDD1C14
:10438000EE1CFF1CF7CC20E030E040EF51E4C5010B
:10439000B4010E948027181654F0B3ECCB16B1E09C
:1043A000DB062CF4E9E5EE16E2E0FE061CF081E007
:1043B00090E054CD1092F2041092F10453CD20E01D
:1043C00030E040E052E4C301B2010E948027181699
:1043D000A4F048A559A5493552407CF49EE5A9169C
:1043E00091E0B90654F0AEE5CA16A1E0DA062CF069
:1043F000BEE5EB16B1E0FB061CF481E090E0FACDDF
:104400001092F0041092EF04F9CDBCE04B16510469
:104410006104710444F08091E804882339F08091AC
:10442000E704882319F081E090E0DDCE1092EA04E1
:104430001092E904DCCEA701960119A2FE01B19603
:104440007F01CA01B9012AE030E040E050E00E945B
:104450007026605DD7016E937D0121153105410500
:10446000510579F737CFA7019601C701B6010E9420
:104470008527812C912C50ECA52E5FE7B52E81115C
:1044800005CBC0920902D0920A02E0920B02F09290
:104490000C02ECCAEF920F931F93CF93DF93E801C6
:1044A00034E047FD34E1042E000C550B57FF03C0E8
:1044B000519541955109E32E022F242FAE010E9400
:1044C000BE22CE01DF91CF911F910F91EF90089501
:1044D000BB274A3031F4992322F4BDE290958195AF
:1044E0009F4F0C94A522BB272A3051F4992342F404
:1044F000BDE290958095709561957F4F8F4F9F4F4E
:104500000C948322BB27FA01A62F6217710581053F
:104510009105330B30FB66F0AA27660F771F881FC3
:10452000991FAA1FA21710F0A21B63953850A9F774
:10453000A05DAA3308F0A95DA19336F7B111B1933C
:104540001082CA010C940F25BB27FB015527AA270F
:10455000880F991FAA1FA41710F0A41B8395505110
:10456000B9F7A05DAA3308F0A95DA193009779F788
:10457000B111B1931192CB010C940F258F929F92A0
:10458000AF92BF92CF92DF92EF92FF920F931F9361
:10459000CF93DF9300D000D000D0CDB7DEB76A0153
:1045A000F22EB02E102FFBE3AF2EA01608F41BE363
:1045B0001F5F012F27E0AE014F5F5F4F0E9437243E
:1045C000BC018981982F9970913009F44EC09BE20B
:1045D000E1FC04C09E2D9170E0FC49C05E2D50713D
:1045E000E82FE87083FF55C084E0911101C083E09B
:1045F000EF2DE81B8F1508F0E0E0D6018E2F20E2AA
:104600005523C9F1992329F0D6019C93C60101963F
:104610006C0196012D5F3F4FE2FE33C08EE4D60160
:104620008C9391E411969C93119712968C93D901D7
:104630008E2F90E281112AC0E20FF32FF11D10821C
:104640008EEF9FEF29960FB6F894DEBF0FBECDBF59
:10465000DF91CF911F910F91FF90EF90DF90CF905E
:10466000BF90AF909F908F9008959DE2B7CF90E25A
:10467000B5CF2D9381508111FCCFCE0ED11CE0E03F
:10468000C1CF8EE6D6018C9391E6CCCF9D9381501D
:10469000D1CF482F447082FF3DC084E0911101C00A
:1046A00083E08F1510F4EF2DE81BD6018E2F20E24A
:1046B000552309F1992329F0D6019C93C60101964F
:1046C0006C0196012D5F3F4FE2FE1BC089E4D601CD
:1046D0008C938EE411968C93119786E412968C93AA
:1046E000D9018E2F90E2882309F4A6CF9D938150A3
:1046F000FACF2D9381508111FCCFCE0ED11CE0E07A
:10470000D9CF89E6D6018C938EE611968C931197BA
:1047100086E6E4CF9B0177FF02C030E020E0A1E015
:10472000B0E0911102C0B0E0A0E0F9013196AE0F07
:10473000BF1F8B2C912CBB2009F461C05401EFEFFB
:10474000AE1ABE0AAA0DBB1DFA161B0619F014F00C
:104750004F2D4A1B511188C0E3FC59C07601A42F8C
:10476000B0E2A1114FC0C40ED11C992309F45BC063
:1047700040E0D6011196F60190836D01552309F4AE
:1047800048C0012F060F9A81582F507184FF03C033
:10479000913309F4015010160CF047C0093008F0AD
:1047A00008E0EEE2FE2E5B01A01AB10885019194AB
:1047B000819491082F3F320729F4D601FC92F6012B
:1047C00031966F016217730794F1021713077CF596
:1047D000DB01A21BB30BAA24A394B12CAC0EBD1E0B
:1047E000AA0DBB1D11968C9121503109D60111964D
:1047F00028153905F4F0F60180836D01DBCFB12C6B
:10480000A12CA0CFF701B1937F01A150AACF9111A4
:10481000B0CFD601942F50E302C05D939150911117
:10482000FCCFC40ED11C40E0ACCF01E0BACF80E396
:10483000DBCF6217730731F4963388F4953311F4A4
:10484000552369F0F6018083FD01842F90E28111E8
:1048500008C0A40FB11D1C9290E080E0F3CE81E36C
:10486000F1CF91938150F3CF911183CF8ACF28302C
:1048700008F027E03327DA01990F311D87FD916099
:1048800000966105710539F432602E5F3D9330E387
:104890002A95E1F708959F3F30F080387105610552
:1048A00009F03C5F3C5F3D93913008F08068911DBA
:1048B000DF93CF931F930F93FF92EF92192F987F5F
:1048C0009695E92F96959695E90FFF27E253FE4FAF
:1048D00099273327EE24FF24A701E70105900894C8
:1048E000079428F4360FE71EF81E491F511D660F66
:1048F000771F881F991F0694A1F70590079428F445
:10490000E70EF81E491F561FC11D770F881F991FFC
:10491000661F0694A1F70590079428F4F80E491F26
:10492000561FC71FD11D880F991F661F771F06943A
:10493000A1F70590079420F4490F561FC71FD81FF1
:10494000990F661F771F881F0694A9F78491109509
:10495000177041F0D695C79557954795F794E7940A
:104960001A95C1F7E4E7F1E0689415901591359137
:104970006591959105907FE27395E118F10A430BDB
:10498000560BC90BD009C0F7E10CF11E431F561F8F
:10499000C91FD01D7EF4703311F48A95E6CFE894D8
:1049A000015030F0080F0AF40027021708F4202FF6
:1049B0002395022F7A3328F079E37D932A95E9F73E
:1049C00010C07D932A9589F606949795679537953B
:1049D00017951794E118F10A430B560BC90BD00930
:1049E00098F023957E9173957A3308F070E37C9369
:1049F0002013B8F77E9170617D9330F0839571E359
:104A00007D9370E32A95E1F71124EF90FF900F91C9
:104A10001F91CF91DF91992787FD90950895DC0133
:104A2000FC01672F71917723E1F7329704C07C91E5
:104A30006D9370836291AE17BF07C8F30895E89431
:104A400009C097FB3EF490958095709561957F4FD6
:104A50008F4F9F4F9923A9F0F92F96E9BB27939584
:104A6000F695879577956795B795F111F8CFFAF494
:104A7000BB0F11F460FF1BC06F5F7F4F8F4F9F4FC5
:104A800016C0882311F096E911C0772321F09EE823
:104A9000872F762F05C0662371F096E8862F70E089
:104AA00060E02AF09A95660F771F881FDAF7880F63
:104AB0009695879597F90895990F0008550FAA0BB9
:104AC000E0E8FEEF16161706E807F907C0F0121621
:104AD0001306E407F50798F0621B730B840B950B24
:104AE00039F40A2661F0232B242B252B21F4089579
:104AF0000A2609F4A140A6958FEF811D811D089516
:104B00000E9493250C9404260E94F62538F00E94FA
:104B1000FD2520F0952311F00C94ED250C94F32540
:104B200011240C9438260E94152670F3959FC1F32A
:104B3000950F50E0551F629FF001729FBB27F00D4B
:104B4000B11D639FAA27F00DB11DAA1F649F6627A0
:104B5000B00DA11D661F829F2227B00DA11D621FEF
:104B6000739FB00DA11D621F839FA00D611D221FA9
:104B7000749F3327A00D611D231F849F600D211D8D
:104B8000822F762F6A2F11249F5750409AF0F1F010
:104B900088234AF0EE0FFF1FBB1F661F771F881F79
:104BA00091505040A9F79E3F510580F00C94ED259F
:104BB0000C9438265F3FE4F3983ED4F386957795BE
:104BC0006795B795F795E7959F5FC1F7FE2B880F1F
:104BD000911D9695879597F9089597F99F6780E8B5
:104BE00070E060E008959FEF80EC089500240A943F
:104BF0001616170618060906089500240A941216B8
:104C00001306140605060895092E0394000C11F4EA
:104C1000882352F0BB0F40F4BF2B11F460FF04C097
:104C20006F5F7F4F8F4F9F4F089557FD9058440FF0
:104C3000551F59F05F3F71F04795880F97FB991FFB
:104C400061F09F3F79F087950895121613061406B8
:104C5000551FF2CF4695F1DF08C016161706180645
:104C6000991FF1CF86957105610508940895E89420
:104C7000BB2766277727CB0197F90895052E97FB69
:104C80001EF400940E94552657FD07D00E947026FE
:104C900007FC03D04EF40C94552650954095309562
:104CA00021953F4F4F4F5F4F089590958095709598
:104CB00061957F4F8F4F9F4F08950E949226A59F29
:104CC000900DB49F900DA49F800D911D1124089507
:104CD000B7FF0C945D260E945D26821B930B0895FE
:104CE000A1E21A2EAA1BBB1BFD010DC0AA1FBB1FF0
:104CF000EE1FFF1FA217B307E407F50720F0A21B62
:104D0000B30BE40BF50B661F771F881F991F1A94CE
:104D100069F760957095809590959B01AC01BD01F8
:104D2000CF010895A29FB001B39FC001A39F700D52
:104D3000811D1124911DB29F700D811D1124911DA3
:104D400008955058BB27AA270E94B9260C94042620
:104D50000E94F62538F00E94FD2520F039F49F3F8F
:104D600019F426F40C94F3250EF4E095E7FB0C946B
:104D7000ED25E92F0E94152658F3BA17620773072D
:104D80008407950720F079F4A6F50C9437260EF4E5
:104D9000E0950B2EBA2FA02D0B01B90190010C014B
:104DA000CA01A0011124FF27591B99F0593F50F463
:104DB000503E68F11A16F040A22F232F342F4427BB
:104DC000585FF3CF469537952795A795F0405395B3
:104DD000C9F77EF41F16BA0B620B730B840BBAF083
:104DE0009150A1F0FF0FBB1F661F771F881FC2F7EE
:104DF0000EC0BA0F621F731F841F48F48795779502
:104E00006795B795F7959E3F08F0B0CF9395880FBB
:104E100008F09927EE0F9795879508950E9422270D
:104E20000C9404260E94FD2558F00E94F62540F0BF
:104E300029F45F3F29F00C94ED2551110C9438268C
:104E40000C94F3250E94152668F39923B1F355239A
:104E500091F3951B550BBB27AA276217730784078D
:104E600038F09F5F5F4F220F331F441FAA1FA9F323
:104E700035D00E2E3AF0E0E832D091505040E69511
:104E8000001CCAF72BD0FE2F29D0660F771F881F72
:104E9000BB1F261737074807AB07B0E809F0BB0B65
:104EA000802DBF01FF2793585F4F3AF09E3F510579
:104EB00078F00C94ED250C9438265F3FE4F3983E8F
:104EC000D4F3869577956795B795F7959F5FC9F762
:104ED000880F911D9695879597F90895E1E0660FE3
:104EE000771F881FBB1F621773078407BA0720F05C
:104EF000621B730B840BBA0BEE1F88F7E0950895C5
:104F00000E945C2508F48FEF08950E945C25880BB1
:104F1000990B0895DB018F939F930E945D26BF91AB
:104F2000AF91A29F800D911DA39F900DB29F900DF8
:104F300011240895991B79E004C0991F961708F071
:104F4000961B881F7A95C9F780950895EE0FFF1F6D
:104F5000881F8BBF0790F691E02D19940F931F9334
:104F6000CF93DF938230910510F482E090E0E091DE
:104F70003007F091310730E020E0B0E0A0E030975A
:104F800099F42115310509F44AC0281B390B243046
:104F90003105D8F58A819B816115710589F1FB0185
:104FA00093838283FE0111C040815181028113816C
:104FB00048175907E0F04817590799F4109761F01E
:104FC00012960C93129713961C933296CF01DF9191
:104FD000CF911F910F9108950093300710933107DF
:104FE000F4CF2115310551F04217530738F0A901CC
:104FF000DB019A01BD01DF01F801C1CFEF01F9CF5B
:105000009093310780933007CDCFFE01E20FF31F5D
:10501000819391932250310939832883D7CF2091EE
:105020002E0730912F07232B41F420911B02309142
:105030001C0230932F0720932E07209119023091E4
:105040001A022115310541F42DB73EB740911D02DA
:1050500050911E02241B350BE0912E07F0912F0773
:10506000E217F307A0F42E1B3F0B2817390778F03F
:10507000AC014E5F5F4F2417350748F04E0F5F1F9E
:1050800050932F0740932E07819391939FCFF0E089
:10509000E0E09CCFCF93DF930097E9F0FC013297DB
:1050A00013821282A0913007B0913107ED0130E0F8
:1050B00020E01097A1F420813181820F931F20916D
:1050C0002E0730912F072817390709F061C0F09398
:1050D0002F07E0932E07DF91CF910895EA01CE17B5
:1050E000DF07E8F54A815B819E0141155105B1F763
:1050F000E901FB83EA8349915991C40FD51FEC174D
:10510000FD0761F4808191810296840F951FE9016A
:1051100099838883828193819B838A83F0E0E0E096
:1051200012968D919C9113970097B9F52D913C9112
:105130001197CD010296820F931F20912E07309177
:105140002F072817390739F6309751F51092310794
:1051500010923007B0932F07A0932E07BCCFD383B4
:10516000C28340815181840F951FC817D90761F40C
:105170004E5F5F4F88819981480F591F518340834B
:105180008A819B81938382832115310509F0B0CFF9
:10519000F0933107E09330079ECFFD01DC01C0CFD3
:1051A00013821282D7CF4F925F926F927F928F922B
:1051B0009F92AF92BF92CF92DF92EF92FF920F93A6
:1051C0001F93CF93DF938C01009799F4CB01DF916C
:1051D000CF911F910F91FF90EF90DF90CF90BF90F4
:1051E000AF909F908F907F906F905F904F900C94B6
:1051F000AE27FC01E60FF71F9C0122503109E21790
:10520000F30708F4AEC0D901CD91DC911197C61710
:10521000D70720F1C530D10578F0CE010497861765
:10522000970750F0C61BD70B2297C193D1936D936C
:105230007C93CF010E944A28C801DF91CF911F9132
:105240000F91FF90EF90DF90CF90BF90AF909F9025
:105250008F907F906F905F904F9008955B01AC1A94
:10526000BD0A4C018C0E9D1EA0913007B0913107F4
:10527000512C412CF12CE12C109731F580912E0707
:1052800090912F078815990509F05CC046165706BE
:1052900008F058C08091190290911A02009741F4C9
:1052A0008DB79EB740911D0250911E02841B950B35
:1052B000E817F90708F055C0F0932F07E0932E0781
:1052C000F90171836083B8CF8D919C9111971296EB
:1052D0006C90129713967C901397A815B90559F501
:1052E0006C0142E0C40ED11CCA14DB0420F1AC01F5
:1052F0004A195B09DA011296159780F0628273826F
:1053000051834083D9016D937C93E114F10471F0D2
:10531000D7011396FC93EE9312978ECF22968C0FA3
:105320009D1FF90191838083F301EFCFF093310743
:10533000E093300781CF4816590608F42C017D010F
:10534000D3019ACFCB010E94AE277C01009749F090
:10535000AE01B8010E94B429C8010E944A28870101
:105360006BCF10E000E068CFFB01DC0102C00190D0
:105370000D9241505040D8F70895FB01DC01019097
:105380000D920020E1F70895F894FFCFFF00407DD3
:1053900044000034420000C0410000C841640000E5
:1053A000006400000000003207800000004000148C
:1053B00000540000000000CA043404610417059280
:1053C000047004840400000000A7097A09F0095061
:1053D0000973096009510900000000800B3404F0D2
:1053E00009680757004E4F524D414C00332E205351
:1053F00041464554592053595354454D00212121CC
:10540000204649524520414C45525420212121003B
:105410005355505052455353494F4E3A204F4E002A
:105420005354415455533A2044414E47455200216C
:10543000212120534F5320414354495645202121D7
:105440002100454D455247454E4359205349474E4B
:10545000414C00212121204741532044414E4745E2
:105460005220212121004761733A00455848415597
:105470005354204F4E2044414E474552004741531C
:10548000205741524E494E470045584841555354C4
:10549000204F4E205741524E494E47004669726593
:1054A0003A4E4F202020534F533A4E4F00535953FA
:1054B00054454D20534543555245004F43435550A5
:1054C0004945440046524545004F46460042002D9E
:1054D00000410043454E5452414C20434F4D4D41F5
:1054E0004E4400454E563A00204C4946453A00533A
:1054F0004146453A0020494E4652413A00535441F4
:105500005455533A2000312E20454E5649524F4EA5
:105510004D454E540020483A0020503A0020526138
:10552000643A00322E204C49464520535550504F86
:10553000525400536F696C3A0020543A005761741A
:1055400065723A00204F323A00536F6C3A00342EA5
:1055500020494E46524153545255435455524500EA
:1055600057617374653A00636D005061726B696EC8
:10557000673A00204C696768743A00504C414E45C8
:1055800054415259204841424954415400535953BF
:1055900054454D205354415254494E472E2E2E000F
:1055A00035204C4956452044415348424F415244CE
:1055B00053004E4F205041474520535749544348CC
:1055C000494E4700454E563A2000207C204C494623
:1055D000453A2000207C205341464554593A20004A
:1055E000207C204741533A2000207C20494E4652DF
:0855F000413A20000D0A000001
:020000040003F7
:10E000000D9489F10D94B2F10D94B2F10D94B2F129
:10E010000D94B2F10D94B2F10D94B2F10D94B2F1F0
:10E020000D94B2F10D94B2F10D94B2F10D94B2F1E0
:10E030000D94B2F10D94B2F10D94B2F10D94B2F1D0
:10E040000D94B2F10D94B2F10D94B2F10D94B2F1C0
:10E050000D94B2F10D94B2F10D94B2F10D94B2F1B0
:10E060000D94B2F10D94B2F10D94B2F10D94B2F1A0
:10E070000D94B2F10D94B2F10D94B2F10D94B2F190
:10E080000D94B2F10D94B2F10D94B2F10D94B2F180
:10E090000D94B2F10D94B2F10D94B2F10D94B2F170
:10E0A0000D94B2F10D94B2F10D94B2F10D94B2F160
:10E0B0000D94B2F10D94B2F10D94B2F10D94B2F150
:10E0C0000D94B2F10D94B2F10D94B2F10D94B2F140
:10E0D0000D94B2F10D94B2F10D94B2F10D94B2F130
:10E0E0000D94B2F141546D656761323536300041AF
:10E0F000726475696E6F206578706C6F72657220DE
:10E1000073746B3530305632206279204D4C530099
:10E11000426F6F746C6F616465723E004875683F52
:10E1200000436F6D70696C6564206F6E203D200048
:10E130004350552054797065202020203D20005FF9
:10E140005F4156525F415243485F5F3D2000415658
:10E1500052204C696243205665723D20004743437C
:10E160002056657273696F6E203D20004350552024
:10E1700049442020202020203D20004C6F7720663D
:10E18000757365202020203D20004869676820665F
:10E190007573652020203D200045787420667573D6
:10E1A00065202020203D20004C6F636B2066757336
:10E1B000652020203D20004D617220203720323024
:10E1C000313300312E362E3800342E332E350056A2
:10E1D00023202020414444522020206F7020636F70
:10E1E00064652020202020696E73747275637469E1
:10E1F0006F6E2061646472202020496E74657272B3
:10E20000757074006E6F20766563746F7200726A49
:10E210006D702020006A6D70200057686174207056
:10E220006F72743A00506F7274206E6F7420737541
:10E2300070706F72746564004D7573742062652030
:10E2400061206C6574746572002000577269747483
:10E25000696E672045450052656164696E672045B7
:10E26000450045452065727220636E743D00504F35
:10E27000525400303D5A65726F2061646472003FF1
:10E280003D43505520737461747300403D454550C3
:10E29000524F4D207465737400423D426C696E6B41
:10E2A000204C454400453D44756D70204545505215
:10E2B0004F4D00463D44756D7020464C415348001B
:10E2C000483D48656C70004C3D4C69737420492F83
:10E2D0004F20506F72747300513D51756974005234
:10E2E0003D44756D702052414D00563D73686F7707
:10E2F00020696E7465727275707420566563746FF0
:10E30000727300593D506F727420626C696E6B00BD
:10E310002A0011241FBECFEFD1E2DEBFCDBF01E046
:10E320000CBF12E0A0E0B2E0EEE1FDEF03E00BBFB6
:10E3300002C007900D92A030B107D9F712E0A0E01B
:10E34000B2E001C01D92AE30B107E1F70F9460F367
:10E350000D948DFE01E20EBF0FEF0DBF11241FBE05
:10E360000D9460F30D9400F020E030E040ED57E0B4
:10E3700005C0FA013197F1F72F5F3F4F2817390792
:10E38000C0F308959C01260F311DC901A0E0B0E043
:10E390002F5F3F4FABBFFC018791882361F08093D3
:10E3A000C6008091C00086FFFCCF8091C0008064D1
:10E3B0008093C000EACF08958DE08093C6008091DD
:10E3C000C00086FFFCCF8091C00080648093C000B5
:10E3D0008AE08093C6008091C00086FFFCCF8091C8
:10E3E000C00080648093C00008950F94C2F10F9420
:10E3F000DCF10895FC019081992359F09093C600B7
:10E400008091C00086FFFCCF8091C0008064809323
:10E41000C0003196992379F70895282F982F929567
:10E420009F70892F805D8A3308F0895F8093C600D2
:10E430008091C00086FFFCCF8091C00080648093F3
:10E44000C000822F8F70982F905D9A3308F0995FEB
:10E450009093C6008091C00086FFFCCF8091C000E1
:10E4600080648093C00008959C01FB01853691056E
:10E470001CF46330710594F0C90164E670E00F94F8
:10E480002EFE605D7F4F6093C6008091C00086FFC6
:10E49000FCCF8091C00080648093C0002B30310598
:10E4A00014F43297B4F0C90164E670E00F942EFEC4
:10E4B0006AE070E00F942EFE605D7F4F6093C600AF
:10E4C0008091C00086FFFCCF8091C0008064809363
:10E4D000C000C9016AE070E00F942EFEC0968093E0
